:100000000C94D5040C94F2040C94F2040C94F204B5
:100010000C94F2040C94F2040C94F2040C94F20488
:100020000C94F2040C94F2040C94BB0F0C946F1417
:100030000C94E9240C94F2040C94F2040C94F20451
:100040000C94F2040C94F2040C94F2040C94F20458
:100050000C94F2040C9492100C94F2040C94F2049C
:100060000C94F2040C94F2040C94F2040C94F20438
:100070000C94F2040C94F2040C94F2040C94F20428
:100080000C94F2040C94F2040C94F2040C94F20418
:100090000C94F2040C94F2040C94F2040C94F20408
:1000A0000C94F2040C94F2040C94F20405010980FF
:1000B000A101850319012AB700150126B700950192
:1000C00075108100C0050C0901A101850419012AE0
:1000D000A002150126A002950175108100C005013E
:1000E0000906A1018505050719E029E71500250185
:1000F0009508750181020507190029EF15002501F2
:1001000095F075018102050819012905950575010C
:100110009102950175039101C005010902A1010930
:1001200001A100050919012905150025019505758D
:10013000018102950175038101050109300931151D
:1001400081257F95027508810609381581257F95DF
:100150000175088106050C0A38021581257F950175
:1001600075088106C0C005010906A101050719E04F
:1001700029E715002501950875018102950175088B
:1001800081010507190029FF150026FF0095067556
:100190000881000508190129059505750191029549
:1001A0000175039101C00000000000000000000084
:1001B000000000000000000000007E0F00D4FFFFE0
:1001C000FFC70000007800000000000000002A2B9C
:1001D00028000000000000000000000000000000F7
:1001E0000029000000002C1E342021222434262760
:1001F000252E362D3738271E1F2021222324252681
:100200003333362E37381F0405060708090A0B0C4E
:100210000D0E0F101112131415161718191A1B1C96
:100220001D2F3130232D350405060708090A0B0C54
:100230000D0E0F101112131415161718191A1B1C76
:100240001D2F3130354C0102E701012C0103E7007D
:100250000102E30102E10101220103E10103E300E4
:100260000102E201012C0103E2000102E301012B82
:100270000103E3000102E301012C0103E300010299
:10028000E20102E30101310103E30103E2000102A3
:10029000E201012C0103E2001D08E2002961E100F6
:1002A000155000001E00340004413300095D4D006C
:1002B0001F0036001200140001002A6420003700DD
:1002C00008000D002D002C682100130018000E00FE
:1002D0002E004A0022001C000C001B0000002D5DB7
:1002E000210A19080000060800002E5D220A0353A7
:1002F0000000351800002F5D2300090007000500ED
:100300000000305D24000A000B0010002F004B009D
:100310002500060017001A003000280026001500EE
:100320001100190001002B0027000F0016421D00CC
:1003300001004E00310038002D78E5000453000024
:100340002900010001000100010000003A001E0226
:10035000010022022E0001003B001F0221022302A5
:10036000010001003C002F0226022F000100E300E3
:100370003D00300227023000010001003E00310242
:100380003500350200000100460019010000060199
:100390000000010001000100000001000000010058
:1003A0003F000100010001000000010040001508AD
:1003B0002814150101000100410007081701070179
:1003C0003700010042002600050C20002700010034
:1003D000430025022E0231002E000100440045009A
:1003E0000100010001000000010001002965010079
:1003F000010000000100010001000100095D010091
:1004000001000A00F2000B000100F5000100F000FD
:10041000F10028000100F40001000600F3001700BD
:1004200001000100010001000100010000000100C5
:1004300001000100000001000000010001000100B6
:100440000000010000000100010001005000010057
:10045000000001000100010051000100A90001009D
:10046000010001005200AC00AA00FA0001000100E6
:100470004F00AB00A800F9000100010001000100DD
:1004800001000100005C0100AE000100010000005D
:10049000010001000100E100010000001E00140045
:1004A00004001D61095D01001F001A0016001B00F9
:1004B000E10401002000080007000600010001001F
:1004C0002100150009001900010001002200170099
:1004D0000A00050000000100010001000000010009
:1004E0000000010001000100000001000000010007
:1004F00023001C000B001100000001002400180064
:100500000D0010002F00010025000C000E00360029
:1005100030000100260012000F003700010001002A
:100520002700130033003871010001000100310081
:100530003468E5000100000029002B003961E1006A
:10054000E00000001E00140004001D000100010076
:100550001F001A0016001B000100E2002000080026
:100560000700060001002C002100150009001900F9
:10057000E3000100220017000A000500000001004E
:1005800046001C0000001200000001004C00190190
:10059000000006010000010023001C000B001100F8
:1005A00000000100240018000D00100001000100EF
:1005B00025000C000E00360001000100260012008C
:1005C0000F0037000100010027001300330038003E
:1005D000010001002A0031000100010001000000BB
:1005E00001000100010001000100000001003400D1
:1005F00000573362010001000100360012001400B0
:100600000100E3000100370008000D002D00065135
:100610000100130018000E002E00010001001C0054
:100620000C001B0000000100190806080000315DE5
:1006300000000100325D1D080000335D0000010074
:1006400001000900070005000000010001000A0088
:100650000B0010002F0001000100060017001A0017
:100660003000075101001500110019000100E700DA
:1006700001000F0016781D72010001000100010049
:100680000100010001000000010001000100010063
:100690000100000001003A001E00010001000100FD
:1006A00001003B001F0001000100010001003C00AF
:1006B000200001000100010001003D0021000100B7
:1006C0000100010001003E002200010000000100C5
:1006D0000100010000000100000001000100010014
:1006E000000001000000010001003F0023000100A4
:1006F0000000010001004000240001000100010091
:10070000010041002500010001000100010042003C
:1007100026000100010001570100430027000100ED
:1007200001000100010001000100010001000000C2
:1007300001000100010001000100000001000100B2
:1007400001000100010001000100010001000100A1
:100750000100025701000100260201000100010012
:100760000100010027020100010001000100310227
:100770003500350200000100010001000000010009
:100780000000010001000100000001000000010064
:100790000100010050000100000001000100010003
:1007A00051000100010001000100010052000100A0
:1007B00001000100010001004F00010001000100E3
:1007C0000100010001000100010001000100010021
:1007D00001000100010000000A0000000000030603
:1007E000B200080001000000A80008000200030099
:1007F000A0001400030057494E555342000000006A
:100800000000000000008400040007002A004400EB
:100810006500760069006300650049006E007400A1
:1008200065007200660061006300650047005500C6
:10083000490044007300000050007B003900440070
:100840004200370046003100460044002D003700CA
:100850004500370041002D003400300030003800E2
:100860002D0039003300360042002D0036004200D2
:1008700041003600430031003900410033003000B0
:10088000380063007D00000000001B0301636F6EF1
:100890006669677572652E6572676F646F782D651E
:1008A0007A2E636F6D0009026B00040100A0FA0943
:1008B000040000010301010009211101000122408F
:1008C000000705810308000A090401000103010271
:1008D00000092111010001224D00070582030800D3
:1008E0000A090402000103000000092111010001AE
:1008F000226D000705830320000A0904030002FF9C
:1009000000000007058403400005070505034000BB
:10091000051201100200000008973274490100011D
:1009200002000116034500720067006F0044006F6B
:10093000007800200045005A00000030035A0053A0
:10094000004100200054006500630068006E006FE5
:10095000006C006F006700790020004C00610062AD
:10096000007300200049006E0063000000040309CA
:1009700004050F3900021C100500DF60DDD8894531
:10098000C74C9CD2659D9E648A9F00000306B200FE
:1009900045001810050038B60834A909A0478BFD9A
:1009A000A0768815B6650001420011241FBECFEF66
:1009B000DAE0DEBFCDBF11E0A0E0B1E0ECE3FFE4A0
:1009C00002C005900D92A23AB107D9F722E0A2EA3F
:1009D000B1E001C01D92A53DB207E1F70E947B2165
:1009E0000C946A270C940000E8EDF0E080818E7F83
:1009F00080831092E2001092DA001092E100A0EEE3
:100A0000B0E08C9181608C9380818F77808319BC5A
:100A1000A7EDB0E08C918E7F8C9380818F7E808358
:100A200010929F0208952091E4003091E50095E630
:100A3000A9012091EC00822F817020FF06C08091D7
:100A4000E80080FF06C080E008952091E80022FDC4
:100A50001AC08091C402882389F0853089F0809182
:100A6000EB0085FD0FC02091E4003091E5004217B6
:100A70005307F9F29150E1F684E0089582E0089579
:100A800083E0089581E00895EF92FF920F931F9302
:100A9000CF937C018B010E941305C82F882371F02E
:100AA0008C2FCF911F910F91FF90EF900895F70138
:100AB00081917F018093F100015011090115110509
:100AC00079F38091E80085FDF2CF8091E8008E7780
:100AD0008093E8000E941305882381F3C82FE0CF9C
:100AE0008091C60287FF13C08091E80082FF06C094
:100AF0008091E8008B778093E80004C08091C40265
:100B00008111F2CF08958091C4028823D9F3809196
:100B1000E80080FFF8CF8091E8008E77ECCF982F27
:100B20009093E900242F762F50E0891731F07091CF
:100B3000EC002091ED005091F00021FD07C09F5F77
:100B4000973071F78093E90081E008953091EB00D0
:100B50003E7F3093EB003091ED003D7F3093ED0010
:100B60003091EB0031603093EB007093EC002093F8
:100B7000ED005093F0002091EE0027FDE0CF80E0E3
:100B80000895CF92DF92EF92FF920F931F93CF932E
:100B9000DF93C8EDD0E088818F7E8883E7EDF0E0B9
:100BA00080818160808384E082BF81E080939F02A6
:100BB00088818E7F888302EE10E0F8011082109207
:100BC000DA0081EEC82ED12CF601108288818F7751
:100BD000888388818068888388818F7D888319BC19
:100BE0001092C4021092C5021092C3021092C20267
:100BF00090EEE92EF12CF70180818B7F8083888134
:100C00008160888342E060E080E00E948F05F60109
:100C100080818E7F8083F8018081816080838081E4
:100C200088608083F70180818E7F808388818061E6
:100C30008883DF91CF911F910F91FF90EF90DF900C
:100C4000CF900895FC018091CC029091CD0286173F
:100C50009707A0F06115710529F48091E8008E775F
:100C60008093E80090E06115710551F4911108C07E
:100C70008091E80082FF35C080E00895BC01F2CF8A
:100C80008091C4028823C9F18530C9F18091E800C0
:100C900083FD31C08091E80082FDEACF8091E800B9
:100CA00080FFE1CF8091F3002091F200382F611591
:100CB000710519F02830310558F091E028303105E0
:100CC00009F090E08091E8008E778093E800CBCF28
:100CD00084918093F1003196615071092F5F3F4FED
:100CE000E6CF8091C402882341F0853041F08091A5
:100CF000E80083FFBDCF81E0089582E0089583E09E
:100D00000895FC018091CC029091CD02861797073F
:100D1000A0F06115710529F49091E8009E779093F9
:100D2000E80090E06115710551F4911108C08091BF
:100D3000E80082FF34C080E00895BC01F2CF8091CA
:100D4000C4028823C1F18530C1F18091E80083FDA0
:100D500030C08091E80082FDEACF8091E80080FFFA
:100D6000E1CF8091F3002091F200382F61157105D9
:100D700019F02830310558F091E02830310509F09C
:100D800090E02091E8002E772093E800CBCF81916E
:100D90008093F100615071092F5F3F4FE7CF809141
:100DA000C402882341F0853041F08091E80083FF40
:100DB000BECF81E0089582E0089583E00895809198
:100DC000A10208952091C402243091F42093E900F7
:100DD00070E050E040E00E944405882321F010922A
:100DE0009D0210929E028091E8008E778093E80029
:100DF000089590918402803F59F48091850287FF85
:100E00000DC01092850291110BC01092800208C093
:100E1000813F81F48091850218169CF3992381F01B
:100E20008091860290918702892B09F064C010920C
:100E30007D020895823F49F497FFF0CF109284021B
:100E4000809185028111ECCFE0CF833F19F4191610
:100E5000ACF3E4CF20918602893F29F41216F4F610
:100E600010928602DBCF8A3F19F427FFD7CFF8CF45
:100E7000209187028B3F29F427FFD0CF1092870261
:100E8000CDCF8C3F19F41216CCF3C8CF843F31F488
:100E9000809183028E7F80938302C0CF853F21F4AF
:100EA000809183028D7FF7CF863F21F4809183026A
:100EB0008B7FF1CF873F21F480918302877FEBCF37
:100EC000883F21F4809183028F7EE5CF8D3F31F4FE
:100ED000809155028E7F80935502A0CF8E3F21F4E2
:100EE000809155028D7FF7CF8F3F09F097CF80918A
:100EF00055028B7FF0CF08958091550280FD1AC076
:100F000081FD14C082FD14C080917D02882391F080
:100F10008C3370F427E0829FC00111246CE370E0F1
:100F20000E94DD25862F672B29F0089583E0089520
:100F300087E0089581E008958091550280FD16C0F4
:100F400081FD16C082FD18C080918002882391F037
:100F50008C3390F423E2829FC00111246CE370E093
:100F60000E94DD25862F672B49F0089588E00895BB
:100F700081E1089585E0089583E2089581E0089570
:100F8000803F31F40E949C078195809385020895EB
:100F9000813F19F40E949C07F8CF823F31F40E94F0
:100FA0009C078195809384020895833F19F40E94E1
:100FB0009C07F8CF893F29F40E947C078093860222
:100FC00008958A3F21F40E947C078195F7CF8B3FDB
:100FD00031F40E947C0781958093870208958C3FAD
:100FE00019F40E947C07F8CF843F31F4809183028A
:100FF0008160809383020895853F21F4809183026C
:101000008260F7CF863F21F4809183028460F1CF24
:10101000873F21F4809183028860EBCF883F21F4E1
:10102000809183028061E5CF8D3F31F4809155023C
:1010300081608093550208958E3F21F4809155027E
:101040008260F7CF8F3FB9F7809155028460F1CF6E
:101050009C014FB7F8948091510290915202A09157
:101060005302B09154024FBF821B930B08952091FD
:1010700055012223C9F020916A0227FF15C0E62FEF
:10108000E695E695E695EE31D8F4E80FF92FF11DD7
:10109000677021E030E001C0220F6A95EAF72095E1
:1010A0008281282322830895FC013296089621919B
:1010B000621303C0DF0111971C92E817F907B9F713
:1010C0000895209155012223C1F020916A0227FF43
:1010D00014C0E62FE695E695E695EE31F8F4E80FB4
:1010E000F92FF11D677021E030E001C0220F6A95F1
:1010F000EAF78281822B82830895FC0132962FEFDA
:1011000030E04191641751F02F3F19F4411101C0B3
:10111000232F3F5F3630A9F72F3F09F40895820F40
:10112000911D27FD9A95FC0162830895CF92DF926D
:10113000EF92FF926C01EE24FF2420E0C114D10451
:10114000E104F10419F0C701B60120E1C72ED82E41
:10115000E92EFF24C114D104E104F10419F0285F41
:10116000C701B6016B017C0154E0F694E794D79473
:10117000C7945A95D1F7C114D104E104F10419F0D0
:101180002C5FC701B6016B017C0142E0F694E79445
:10119000D794C7944A95D1F7C114D104E104F1045E
:1011A00019F02E5FC701B6019695879577956795DB
:1011B000672B682B692B09F02F5F822FFF90EF9030
:1011C000DF90CF90089580914C02811110924C02D3
:1011D0000895809590914B02982390934B02089527
:1011E00080914B0290914A02892B90914902892B60
:1011F0008093A20190914C029923A1F0892B8093B6
:10120000A20180915501882341F180916A0287FFF4
:1012100024C08EE1E4EAF1E090E0815000F5911104
:101220000E94E308E0916C02F0916D023097E1F0CA
:1012300080915501882359F080916A0287FF07C089
:101240008091A2018093A30185E08093A201028096
:10125000F381E02D82EA91E0099486E0DBCF2191D1
:101260002223D9F29F5FD9CF0895E92FEE0FE90F1E
:10127000EE0F8E0F982F977086958695869525E0B0
:10128000829FF0011124EF5EFD4F50E040E080E0CE
:10129000219130E0092E02C0369527950A94E2F795
:1012A00021703327042E01C0220F0A94EAF7822B03
:1012B0004F5F5F4F4530510559F70895E92FEE0F05
:1012C000E90FEE0F8E0F982F977041E001C0440F89
:1012D0009A95EAF786958695869595E0899FF0011F
:1012E0001124EF5EFD4F30E020E070E05191DF010E
:1012F0001197CB01022E02C0969587950A94E2F7CA
:10130000817081958527842385278C932F5F3F4F9C
:101310002530310559F70895809110029091DF0131
:10132000981301C008958F5F8770FACF882321F04A
:101330000E94E9080C94F0080895882339F09091F0
:101340004B02982B90934B020C94F0080895209137
:10135000D4013091D5012817390771F09093D50148
:101360008093D401E0916C02F0916D02309721F0EE
:101370000084F185E02D099408952091D2013091E7
:10138000D3012817390771F09093D3018093D201CC
:10139000E0916C02F0916D02309721F00680F781A8
:1013A000E02D09940895E0916C02F0916D02309760
:1013B00021F00190F081E02D099480E00895CF9311
:1013C000DF93EC0181E0898B80914B029F81892B17
:1013D00080934B0280914A029885892B80934A0220
:1013E0000E94F008EA81FB81309739F06C897D8991
:1013F000CE010696DF91CF910994DF91CF910895A8
:10140000EF92FF920F931F93CF93DF93EC018A85A6
:10141000811139C0EB80FC8087E5F81A26E12E9D0A
:10142000C0012F9D900D1124DC01AA5FBE4F1496C0
:10143000ED91FC911597309731F054966D917C9118
:10144000845F9E4F099586E18E9D80018F9D100DD2
:1014500011240A5F1E4FF80187810E94E908F801F4
:101460008085982F909580914A02892380934A0223
:101470000E94F008188219861B861E821D82109217
:10148000D7011092D601DF91CF911F910F91FF905C
:10149000EF90089590916A0292FF06C0282F28715C
:1014A0002830F9F4877F846093FF06C0282F2871C5
:1014B0002831F1F4877E846120916B0220FF06C001
:1014C000382F38713830D9F4877F816021FF06C00A
:1014D000282F28712831D1F4877E816194FD877E81
:1014E0000895282F24712430F9F68B7F8860DCCF93
:1014F000282F2471243101F78B7E8861DDCF382FAE
:101500003171313019F78E7F8860E0CF282F21713B
:10151000213121F78E7E8861E1CFCF93DF93972F22
:1015200070E026E0929F600D711D1124FB0134E5EF
:10153000839FE00DF11D1124EE0FFF1FE856FD4FB4
:10154000C591D491CE01C238D105B9F1E8F5C133C6
:10155000D10509F499C050F5C932D10509F48DC0FF
:10156000CA32D10509F497C0C11521E5D20708F0A8
:10157000BFC0C11530E5D30708F016C1C83ED1057C
:1015800008F09DC0C03ED10568F5C83AD10508F005
:1015900089C0C53AD10508F0FFC0C130D10511F1AD
:1015A000209709F443C02497E8F440C0C533D1051F
:1015B00009F45CC0C933D105B9F620916A022370E1
:1015C00089F080EE90E00EC0C33ED10591F168F441
:1015D000C03ED105F9F0C23ED10531F620916A0234
:1015E00022FD20C0DF91CF910895C63ED10561F163
:1015F000C73ED10581F1C43ED10509F0B5CF209198
:101600006B0221FFEFCF80916A0284FD0FC087EE4D
:1016100090E0E8CF20916A0220FD12C130916B0268
:1016200030FFE0CF83EE90E024FFDCCF90E080E05D
:10163000D9CF20916A0222FD06C130916B0230FDA4
:10164000C0CF24FFCFCFF2CF20916A0223FFCACFB1
:1016500024FDECCFDCCF20916A0223FDF7C030914E
:101660006B0231FFEECF84EE90E0BCCF20916A0296
:1016700025FFB8CF89E290E0B5CF20916A0225FF1F
:10168000B1CF85E390E0AECF20916A0226FFAACFCA
:101690008AE290E0A7CF20916A0226FFA3CF81E3E0
:1016A00090E0A0CFCF3BD10508F6C85AD0E0CC0FD0
:1016B000DD1FCB59DE4F88819981946493CFC1158A
:1016C00020E2D20760F4C11531E0D30708F08ACFD9
:1016D000CE019065C03FD10508F084CFA7CFC115DA
:1016E00080E4D80708F4A2CFCE019F70906A7ACF29
:1016F000C11595E5D90710F5C11524E5D20708F005
:1017000088C0C11533E5D30708F06FC0C11582E565
:10171000D80708F465C09E012370332781E090E06C
:1017200002C0880F991F2A95E2F7C695C69520E258
:10173000C29FE00111248C2B9D2B50C0C11599E54F
:10174000D907A0F4C11528E5D20708F067C0C11574
:1017500036E5D30708F06ACF8C2F0E944A0A90E042
:10176000982F882788279F7190623CCFC1158AE502
:10177000D80708F458C0CE0190568115904208F061
:1017800055CF8D2F8F710E944A0A90E0982F88279D
:1017900088279F718C2BE8CFC55AD0E0CE59DE4FF9
:1017A000888190E090641ECF9E01E4E036952795F5
:1017B000EA95E1F723708C2F86958695837030E249
:1017C000839FC0011124922BC37021E030E002C03E
:1017D000220F331FCA95E2F7822B932B9C6802CF0E
:1017E0009C2F8827816F906AFDCE9E01237033273E
:1017F00081E090E002C0880F991F2A95E2F7C69514
:10180000C69530E2C39FE00111248C2B9D2B9A6872
:10181000E9CE9C2F8827846F906AE4CE9C2F88277E
:10182000806F906ADFCE8C2F8F700E944A0A34E05E
:10183000D695C7953A95E1F7CF709C2F9069D2CE97
:1018400089E390E0CFCE82EE90E0CCCE86EE90E0C1
:10185000C9CEBF92CF92DF92EF92FF920F931F9368
:10186000CF93DF938C01C0909802D0909902E090C2
:101870009A02F0909B0280914D0290914E02A091AD
:101880004F02B0915002C82AD92AEA2AFB2ACFE196
:10189000D0E0BC2ED701C6010C2E04C0B695A7958A
:1018A000979587950A94D2F780FD0EC0219788F707
:1018B000B12C8B2DDF91CF911F910F91FF90EF9065
:1018C000DF90CF90BF900895B8018C2F0E948D0AB1
:1018D000019761F3EECFCF93DF93EC010E94290CC7
:1018E000BE01DF91CF910C948D0A0E946B0C292FC1
:1018F0002F7092959F7092509E3078F4E92FF0E00F
:10190000E459F84D0C94F125803F19F020F4883EFD
:1019100020F481E00895843FE1F380E00895883E5B
:10192000C0F3813FD1F7F5CF822F869586958695B6
:101930000895FC018081813041F49185911114C09A
:101940009285992389F082E00895823041F481855F
:10195000811107C08285811106C083E0089586E069
:10196000089585E0089584E0089527982F980895B4
:1019700026982E98089525982D98089556985E9843
:101980000895279A2F9A0895269A2E9A0895259AAF
:101990002D9A0895CF92DF92EF92FF92CF936B0131
:1019A0007C010E949608C82F0E94BE0C0E94BB0CAE
:1019B0000E94B80C0E94B50CC150C73040F4EC2F07
:1019C000F0E0E658F84D0C94F1250E94C70CC701D1
:1019D000B601CF91FF90EF90DF90CF9008950E94D5
:1019E000C70C0E94C40CF3CF0E94C70C0E94C10C0C
:1019F000EECF0E94C70C0E94C40CF8CF2098289804
:101A00002198299822982A9823982B9852985A9886
:101A100053985B983E98469808958098889A819844
:101A2000899A84988C9A85988D9A86988E9A8798A8
:101A30008F9A0895CF9384E090E00E94F725C82FF5
:101A400081E290E00E94F725982F8C2FCF91089586
:101A5000CF93DF9300D00F92CDB7DEB79091C40241
:101A6000943019F589837B836A8383E08093E9004E
:101A70008FEF9091E800815095FD06C095ED9A9505
:101A8000F1F700008111F5CF8091E80085FF0DC0CE
:101A900050E040E063E070E0CE0101960E94440512
:101AA0008091E8008E778093E8000F900F900F9060
:101AB000DF91CF910895BC0184E00C94280DBC0106
:101AC00083E00C94280D9C0182E08093E9009FEF55
:101AD0008091E800915085FD06C085ED8A95F1F76B
:101AE00000009111F5CF8091E80085FF0CC050E017
:101AF00040E065E070E0C9010E9444058091E80083
:101B00008E778093E8000895CF93DF93EC01809166
:101B100055018823B1F180916A0287FF32C060E2EB
:101B200083E08093E9008FEF9091E800815095FD6C
:101B300006C095ED9A95F1F700008111F5CF8091DF
:101B4000E80085FF1BC08091550170E050E040E047
:101B5000811104C050E040E068E070E0CE010E94D6
:101B600044058091E8008E778093E80080E2FE01D2
:101B7000A2EAB2E001900D928A95E1F7DF91CF9150
:101B8000089568E081E0CDCFEF92FF920F931F930D
:101B9000CF93DF930E94BE0C0E94BB0C0E94B80C36
:101BA0000E94B50C88E8E82EF12C8FEF90E0F70149
:101BB000918380830AE810E0F80191838083CCE868
:101BC000D0E0998388830E94C70CFFEF20E782E072
:101BD000F15020408040E1F700C000000E94C40C9A
:101BE0009FEFE0E7F2E09150E040F040E1F700C005
:101BF00000000E94C10C2FEF80E792E0215080404E
:101C00009040E1F700C000000E94BB0CEFEFF0E74E
:101C100022E0E150F0402040E1F700C000000E94C7
:101C2000B80C8FEF90E7E2E081509040E040E1F7A0
:101C300000C000000E94B50C809158028770FFEF31
:101C40008F9FC00111249595879595958795992724
:101C5000F70191838083F80191838083998388833E
:101C60000E94BE0C0E94BB0C0E94B80CDF91CF9169
:101C70001F910F91FF90EF900C94B50C6FEE7EEFDB
:101C800090E080E00E94292660E082E090E00E94DF
:101C90000B2660E083E090E00E940B2610924D023C
:101CA00010924E0210924F021092500260E084E0B7
:101CB00090E00E940B2660E081E290E00E940B26FB
:101CC00060E085E090E00E940B2660E086E090E016
:101CD0000E940B266FEF87E090E00E940B2640E009
:101CE00050E0BA0188E090E00E941D2660E08DE09F
:101CF00090E00E940B2640E050E0BA0188E190E0BD
:101D00000E941D2660E087E190E00E940B2640E0E3
:101D100050E0BA018CE190E00E941D2660E080E274
:101D200090E00E940B2640E050E0BA0188E190E08C
:101D30000E941D26109258021092590210925A02C7
:101D400010925B0284E080618093580240915802B7
:101D50005091590260915A0270915B028FE090E0BD
:101D60000E941D2640E050E0BA0183E190E00C940F
:101D70001D26CF93C82F873070F58091490190912F
:101D80004A01892B89F564E670E080E40E941625FB
:101D900090934A0180934901892BD1F464E670E065
:101DA00082E10E94722590934A0180934901892B18
:101DB00079F481E090E001C0880FCA95EAF764E603
:101DC00070E080950E94722590934A0180934901AA
:101DD000CF910C94C5258A30B9F040F4883071F069
:101DE000893079F0209A2898CF9108958C3091F01D
:101DF00070F08D30B9F73E9A4698F6CF219A29981F
:101E0000F3CF229A2A98F0CF239A2B98EDCF529AAB
:101E10005A98EACF539A5B98E7CF80E290E090938C
:101E20004A01809349018091C20181110EC00E9434
:101E3000102581E08093C2012FEF83ED90E32150C4
:101E400080409040E1F700C0000064E670E080E46C
:101E50000E94162590934A0180934901892B09F02D
:101E60004EC064E670E080E00E94722590934A01C3
:101E700080934901892B09F042C064E670E080E05C
:101E80000E94722590934A0180934901892BB9F5EC
:101E900064E670E08FE30E94722590934A0180937C
:101EA0004901892B61F50E94C52564E670E080E454
:101EB0000E94162590934A0180934901892BF9F4D9
:101EC00064E670E08CE00E94722590934A01809352
:101ED0004901892BA1F464E670E080E00E9472253C
:101EE00090934A0180934901892B49F464E670E09C
:101EF0008FE30E94722590934A01809349010E94CA
:101F0000C525809149010895CF93873050F5809180
:101F1000490190914A01C0E0892B71F464E670E0B8
:101F200081E40E94162590934A0180934901892BF0
:101F300031F0C0E00E94C5258C2FCF91089584E632
:101F400090E00E94A12597FF05C090934A018093DD
:101F50004901EFCFC82FC09510924A011092490154
:101F6000E9CFCFB18FB1869586958C73C3708C2BDA
:101F7000C82FC095E1CF1F920F920FB60F92112478
:101F80002F933F934F935F936F937F938F939F9381
:101F9000AF93BF93EF93FF938091E10082FF09C05D
:101FA0008091E20082FF05C08091E1008B7F8093E9
:101FB000E1008091DA0080FF24C08091D80080FF8A
:101FC00020C08091DA008E7F8093DA008091D90062
:101FD00080FF9BC080E189BD82E189BD09B400FE1C
:101FE000FDCF81E08093C40280919F02811109C0DE
:101FF0000E94F4040E94C1058091E20084608093F5
:10200000E2008091E10080FF17C08091E20080FF34
:1020100013C08091E2008E7F8093E2008091E20005
:1020200080618093E2008091D80080628093D80024
:1020300019BC85E08093C4028091E10084FF29C02F
:102040008091E20084FF25C080E189BD82E189BDE5
:1020500089B5982F917080FFFBCF8091D8008F7D3C
:102060008093D8008091E1008F7E8093E100809181
:10207000E2008F7E8093E2008091E2008160809395
:10208000E2008091C502882309F445C084E0809372
:10209000C4028091E10083FF27C08091E20083FFAA
:1020A00023C08091E100877F8093E10082E08093EC
:1020B000C4021092C5028091E1008E7F8093E100FE
:1020C0008091E2008E7F8093E2008091E200806147
:1020D0008093E20042E060E080E00E948F05809102
:1020E000F00088608093F000FF91EF91BF91AF9175
:1020F0009F918F917F916F915F914F913F912F9120
:102100000F900FBE0F901F90189519BC1092C4022B
:1021100010929F0276CF8091E30087FD93E0909329
:10212000C402B7CF78941F921FB61F9211248F93C9
:102130009F93AF93BF938091510290915202A091CF
:102140005302B09154020196A11DB11D809351021A
:1021500090935202A0935302B0935402BF91AF9157
:102160009F918F911F901FBE1F9018952FB7F894C5
:102170008091510290915202A0915302B091540269
:102180002FBF08950E94B6109C0190918402809107
:102190008502982B21F03093820220938102909146
:1021A000860280918702982B21F030937F02209342
:1021B0007E02E0916C02F0916D02309731F0048064
:1021C000F581E02D83E892E00994089510924A0287
:1021D000109249020E94F00885E0E3E8F2E0DF0196
:1021E0001D928A95E9F71092800210927D0210925A
:1021F00055020E94C21090E080E00E94BD0990E06C
:1022000080E00C94A709CF92DF92EF92FF92CF93D8
:10221000DF9300D000D0CDB7DEB70E94CA0C6B01AF
:102220007C0180919C02882321F080919D02811184
:1022300015C0C0929802D0929902E0929A02F09250
:102240009B020E94E6100F900F900F900F90DF916D
:10225000CF91FF90EF90DF90CF900895198282E0A8
:102260008A83C701B6010E9496088B838EEF8C8308
:1022700064E0CE0101960E94E206DBCF0F931F932C
:1022800041E050E060E070E004C0440F551F661F5D
:10229000771F8A95D2F7CB01BA016095709580952A
:1022A0009095009198021091990220919A02309194
:1022B0009B0260237123822393231F910F910C941F
:1022C0000311909148028095892380934802282F1A
:1022D000277071F4282F082E000C330B9217130669
:1022E00039F08595859585950E943E11109248029A
:1022F00008950F931F9341E050E060E070E004C048
:10230000440F551F661F771F8A95D2F78091980258
:1023100090919902A0919A02B0919B028A019B012F
:10232000082B192B2A2B3B2BC901B8011F910F91A8
:102330000C94031160934D0270934E0280934F02F0
:10234000909350020C94E61010924B02809155012C
:10235000E4EAF1E0882359F080916A0287FF07C020
:102360008EE1DF011D928A95E9F70C94E61086E074
:10237000F8CF1F93CF93DF93CDB7DEB7AA970FB6F1
:10238000F894DEBF0FBECDBF86EC92E02091F10045
:10239000FC012193CF01F2E08E3C9F07B9F78091B9
:1023A000C702893009F444C018F5823009F4B9C075
:1023B000833009F46EC0813031F58091C602813AD4
:1023C00011F58091E800877F8093E8008091CA0230
:1023D0009091CB02892B41F560E282EA92E070E0B5
:1023E0000E9481068091E8008B778093E8000BC003
:1023F0008B3009F46BC008F483C0823409F4A2C0A6
:10240000853409F4BCC08091E80083FF50C28091FC
:10241000C6029091C7029A3008F049C2E92FF0E055
:10242000EF57F84D0C94F12560E090E080E0D7CFB5
:102430008091C602813239F78091CA029091CB0215
:10244000009711F00297F9F68091E800877F80935A
:10245000E8008091E80082FF17C09091F30080911E
:10246000F200029729F48091F1008B7F813021F4F2
:102470008091F1008093A1028091E8008B77809396
:10248000E8000E947005BFCF8091C4028111E1CFA6
:10249000BACF8091C602813A09F0B5CF8091CA02C5
:1024A0009091CB02892B09F0AECF8091E800877F15
:1024B0008093E8008091E80080FFFCCF8091550177
:1024C0008093F1008091E8008E77D9CF8091C60289
:1024D000813209F098CF8091CA029091CB02892B6A
:1024E00009F091CF8091E800877F8093E8000E94F7
:1024F00070058091C802809355010E94A41183CF7A
:102500008091C602813209F07ECF8091E800877FFA
:102510008093E8000E9470058091C9028093A00218
:1025200072CF8091C602813A09F06DCF8091E800A8
:10253000877F8093E8008091E80080FFFCCF809146
:10254000A002BECF8091C602803C09F05CCF809192
:10255000CA029091CB02029739F58091C8029091FE
:10256000C902892B09F58091E800877F8093E800F4
:102570006BE170E08AE898E00E94220682CF8091A9
:10258000C602803C09F03FCF8091CA029091CB02F5
:10259000079751F48091E800877F8093E80062EB11
:1025A00070E088ED97E0E8CF8091EB008062809347
:1025B000EB0029CF803899F0823809F078C18091FA
:1025C000CA028F70873008F072C18093E900809151
:1025D000EB0085FB882780F91092E90006C0809106
:1025E000C2029091C302911182609091E800977F9E
:1025F0009093E8008093F1001092F1008091E80040
:102600008E7751C1882309F43FC1823009F04FC150
:102610008091C802811142C18091CA028F702FEF50
:10262000280F263008F043C18093E9002091EB0089
:1026300020FF34C1933031F48091EB0080628093AD
:10264000EB002CC19091EB0090619093EB0021E0A6
:1026500030E001C0220F8A95EAF72093EA00109239
:10266000EA008091EB008860EACF811120C11091CF
:10267000C8021F778091E3008078812B8093E3006C
:102680008091E800877F8093E8000E947005809128
:10269000E80080FFFCCF8091E30080688093E30036
:1026A00082E0111183E08093C40201C1805882301E
:1026B00008F0FDC08091C8029091C9028C3D23E0D2
:1026C0009207A1F583E08A838AE289834FB7F89461
:1026D000DE01139620E03EE051E2E32FF0E050935C
:1026E0005700E49120FF03C0E295EF703F5FEF7069
:1026F0008E2F90E0EA30C0F0C7968D939D932F5FA8
:10270000243159F74FBF8091E800877F8093E8001C
:102710006AE270E0CE0101960E9481068091E80095
:102720008B778093E800C3C0C096E7CF2091CA02A0
:102730003091CB02492F55274330510551F1A0F478
:102740004130510509F459C06BE670E086EA98E023
:102750004230510509F0ABC02091E800277F20935B
:10276000E8000E942206DACF4132510539F14232A7
:10277000510591F14F30510509F099C0E3E7F9E0B7
:10278000649170E081E799E06115710509F48FC0EB
:10279000E3CF99278130910571F0009731F00297CE
:1027A00009F085C0E3E2F9E002C0EDE6F9E06491EA
:1027B00070E0CF01E9CFEBE3F9E0F9CF2330310549
:1027C00008F075C0220F331FF901E456FE4F8081D7
:1027D000918169E070E0C0CF2330310508F067C017
:1027E000F901EE0FFF1FEA56FE4F808191812D56B1
:1027F0003E4FF901608170E0C7CF62E170E081E196
:1028000099E0AACF803809F052C08091E800877F14
:102810008093E8008091C5028093F100EFCE811192
:1028200046C01091C802123008F041C08091E80003
:10283000877F8093E8001093C5020E9470051123E2
:1028400011F084E005C08091E30087FDFACF81E0BC
:102850008093C40242E061EC81E00E948F0542E077
:1028600061EC82E00E948F0542E261EC83E00E940D
:102870008F0542E361EC84E00E948F0542E360EC47
:1028800085E00E948F0513C08091C802813079F4E1
:1028900081E0933009F080E08093C3021092E90058
:1028A0008091E800877F8093E8000E947005809106
:1028B000E80083FF0AC08091E800877F8093E800EA
:1028C0008091EB0080628093EB00AA960FB6F8949B
:1028D000DEBF0FBECDBFDF91CF911F9108951F9234
:1028E0000F920FB60F9211242F933F934F935F9344
:1028F0006F937F938F939F93AF93BF93CF93DF9308
:10290000EF93FF93D091E900DF708091EC00C82F26
:10291000C17080FDC0E81092E9008091F000877FCF
:102920008093F00078940E94B9111092E900809190
:10293000F00088608093F000CD2BCF70C093E90049
:10294000FF91EF91DF91CF91BF91AF919F918F91C7
:102950007F916F915F914F913F912F910F900FBE9B
:102960000F901F901895882379F19CEF980F913A5A
:1029700038F4682F82EA91E00E9437080C94F0083E
:1029800090E2980F983050F4877091E001C0990F51
:102990008A95EAF7892F0E94E908F0CF9BE5980F06
:1029A000933020F490E080E00C94BD0998E5980FF6
:1029B000973120F490E080E00C94A709803F20F04C
:1029C0000E94F9060C94C21008950C94B3148FE37E
:1029D0009CE90197F1F700C000008091C8018330A5
:1029E00059F0853011F0813021F48CE290E00E94A2
:1029F000E5141092C80108958AE290E0F8CF8FE3C1
:102A00009CE90197F1F700C000008091C601833076
:102A100059F0853011F0813021F488E290E00E9475
:102A2000E5141092C60108958BE290E0F8CF8FE391
:102A30009CE90197F1F700C000008091C401823049
:102A400079F028F4813039F01092C4010895833070
:102A500051F08530C9F784E090E00E94E514F4CF8E
:102A600080EE90E0FACF89E290E0F7CFCF93C82FC5
:102A7000882309F46EC08CEF8C0F813AB8F58091F1
:102A80005501882311F180916A0287FF1EC0EC2F47
:102A9000E695E695E695F0E0EE55FE4F828190E0F2
:102AA0004C2F477021E030E002C0220F331F4A95BF
:102AB000E2F782239323892B89F06C2F82EA91E03D
:102AC0000E9437080E94F00809C0E4EAF1E0819111
:102AD000C81799F381E0EA3AF807C9F76C2F82EA40
:102AE00091E00E946108CF910C94F00880E28C0F75
:102AF000883068F4C77021E030E001C0220FCA9529
:102B0000EAF780914B02822B80934B02ECCFEBE5EE
:102B1000EC0FE33040F4F0E0EE59FE4F808190E09E
:102B2000CF910C94BD09E8E5EC0FE73150F4F0E0EB
:102B3000EE0FFF1FEB59FE4F80819181CF910C94D6
:102B4000A709C03F30F08C2F0E94C007CF910C9492
:102B5000C210CF910895CF93C82F0E943615C93364
:102B600049F42FEF87EE93E0215080409040E1F749
:102B700000C000008C2FCF910C94B3140F931F93BF
:102B8000CF93DF93C62FD42F022FFC01828188239D
:102B9000A1F06093D0020E94B6109093CF02809370
:102BA000CE02C77081E001C0880FCA95EAF7DF91B5
:102BB000CF911F910F910C949D098091D0026813C1
:102BC00035C08091CE029091CF020E942808883CA7
:102BD000910560F510E21D0FCD17B9F080E28C0F62
:102BE000883040F4C77081E001C0880FCA95EAF7C9
:102BF0000E949609183048F481E09D2F977001C01B
:102C0000880F9A95EAF70E949D09802F0E94AB15C4
:102C1000183098F4D77081E001C0880FDA95EAF790
:102C2000DF91CF911F910F910C949609C77081E0AD
:102C300001C0880FCA95EAF7F3CFDF91CF911F91BA
:102C40000F910895CF92DF92EF92FF920F931F930F
:102C5000CF93DF93EC018AE0C82EFE018491882394
:102C600009F481C0813009F03EC0319684918130F1
:102C700039F42296FE0184910E94AB152196EDCF86
:102C8000823031F42296FE0184910E943615F6CFEF
:102C9000833031F42296FE0184910E94B314EECF6A
:102CA000843009F05EC02296FE01249190E080E01D
:102CB000FE0131962053330B2A30310548F001973D
:102CC000E8F2EFE9FFE03197F1F700C00000F7CF3D
:102CD000C89EA001C99E500D1124C901840F951FE3
:102CE0002491EF01E5CFE82FF0E0EA53FE4FD490B6
:102CF000082F06950695069510E0F801EA54FE4F58
:102D0000E4908770F12C082E02C0F594E7940A94A1
:102D1000E2F721E0E222FF240A551E4FF801049158
:102D200010E002C0159507958A95E2F7017011270A
:102D3000E114F10419F081EE0E9436150115110518
:102D400019F086EE0E9436158D2D0E94AB15012BD1
:102D500019F086EE0E94B314EF2809F48FCF81EEAC
:102D60009CCFEF018BCFDF91CF911F910F91FF90FF
:102D7000EF90DF90CF9008950C943615CF93DF93AA
:102D8000EC010E94BC16CE01DF91CF910C94E514AA
:102D9000CF93DF93EC018881833061F48CE290E083
:102DA0000E94BE168CE290E00E94BE168CE290E07B
:102DB0000E94BE168881843030F08CE290E0DF9172
:102DC000CF910C94BE16DF91CF910895CF93DF93EE
:102DD000EC018881833061F488E290E00E94BE16A5
:102DE00088E290E00E94BE1688E290E00E94BE1643
:102DF0008881843030F088E290E0DF91CF910C94AC
:102E0000BE16DF91CF910895CF93DF93EC018881B7
:102E1000833061F484E090E00E94BE1684E090E08C
:102E20000E94BE1684E090E00E94BE168881843025
:102E300030F084E090E0DF91CF910C94BE16DF91EA
:102E4000CF9108950E94990C8093C801833039F086
:102E5000853049F0813061F48CE290E002C08AE272
:102E600090E00C94BC168CE290E00E94BE16F4CF69
:102E700008950E94990C8093C601833039F0853003
:102E800049F0813061F488E290E002C08BE290E08A
:102E90000C94BC1688E290E00E94BE16F4CF089510
:102EA0000E94990C8093C401823049F018F481305B
:102EB00089F00895833039F0853041F0089580EE2F
:102EC00090E00C94BC1689E290E0FBCF84E090E0A7
:102ED0000E94BE1684E090E0F4CF4F925F926F9212
:102EE0007F928F929F92AF92BF92CF92DF92EF929A
:102EF000FF920F931F93CF93DF9300D000D00F92D8
:102F0000CDB7DEB77C01DC0113968D919C911497AF
:102F1000892B41F01C911196DC90812F8D218F3FE0
:102F200009F099C50F900F900F900F900F90DF91BF
:102F3000CF911F910F91FF90EF90DF90CF90BF90B6
:102F4000AF909F908F907F906F905F904F9008957B
:102F50000E94290C082F682F89819A810E945E099E
:102F6000E12FF0E0B6E0DB9EE00DF11D112424E539
:102F7000029FE00DF11D1124EE0FFF1FE856FD4FDB
:102F800005911491D70112968C918111E3C0809123
:102F90009C0281111FC10A32BDE51B0709F037C130
:102FA000F70182818823C9F18091580291E0980F3E
:102FB0009770887F953008F4892B80935802809110
:102FC00058028770FFEF8F9FC00111249595879558
:102FD0009595879599279093890080938800909381
:102FE0008B0080938A0090938D0080938C00409199
:102FF00058025091590260915A0270915B028FE021
:1030000090E00E941D266091980270919902809133
:103010009A0290919B020E94CA0CC80197558F3F5B
:10302000910511F008F03BC120914801022E000CDF
:10303000330B2817390714F480934801F7012281D4
:1030400036E1389F5001399FB00C1124C5018A5FC9
:103050009E4F6C01DC0150962C93509792811696EE
:103060008C911697992309F40CC11A961C930E9310
:1030700019978F5F16968C930E94B610F60196876B
:10308000858780914C02878380914A0290914B0200
:10309000892B80870190F081E02D309741F0D60197
:1030A00054966D917C91C501845F9E4F0995109354
:1030B000D7010093D601D70112968C91882309F489
:1030C000DCC41092D0020230BCE51B0708F401C238
:1030D0000631ECE51E0738F098012B5F3C452730A0
:1030E000310508F0F6C10E941A0D90936B0280938F
:1030F0006A020F30FCE51F0709F4CCC108F04DC18E
:1031000008303CE5130709F4AFC108F020C10430D2
:103110009CE5190709F49CC108F008C10230BCE520
:103120001B0709F491C180916A02826003301C453B
:1031300009F41FC160916A0210916B0284E090E073
:103140000E940B26612F81E290E00E940B260E94D4
:10315000A411CBC0809148018F3F09F418CF66E0DD
:10316000C62E61E0D62EB12CA12C99249394809187
:103170004801082E000C990B8A159B050CF407CF0B
:10318000F60186818823F9F0818592858017910761
:1031900039F48091D6019091D7018017910799F069
:1031A000D6011F969C921F971C961C930E931B97FB
:1031B00051968C91811103C0C6010E94DF09C6019E
:1031C00006960E94000ABFEFAB1ABB0AE6E1CE0EDC
:1031D000D11CCDCF80919D02882309F4DCCE1982C9
:1031E000D70112968C91811110C082E18A83D70198
:1031F0008C918B8311968C918C838EEF8D8365E0FF
:10320000CE0101960E94E206C6CE81E1EFCFF80121
:10321000ED52FD45E730F10508F0FFCEE557F84DDA
:10322000D70112968C910C94F125882309F4F5CEE0
:103230008EE892E00E942216F0CE882309F4EDCEAB
:103240008EE792E0F7CF882309F4E7CE84E792E097
:10325000F1CF882309F4E1CE8AE692E0EBCF882310
:1032600009F4DBCE80E692E0E5CF882309F4D5CEE1
:1032700080E592E0DFCF882309F4CFCE86E492E0A8
:10328000D9CF882309F417CFF6018189882309F45F
:1032900012CFC501845F9E4F0E94000A0CCF043FED
:1032A000FCE51F07A1F188F4093D3CE5130759F13E
:1032B0000A3D8CE51807B9F1083D9CE5190709F0AE
:1032C000FACE26E241EE61EE0DC0063FACE51A07EC
:1032D00031F108F127E245EE66EE073FECE51E0707
:1032E00009F0E9CEC7010E94BE158091480287709F
:1032F00009F418CEF7018281882309F413CE82E005
:103300000E9461110FCE27E245EE65EEEBCF26E27B
:1033100041EE60EEE7CF27E245EE64EEE3CF26E232
:1033200041EE62EEDFCF28E241E0EFCF80916A020A
:1033300080610630FCE51F07E1F080916A02886039
:1033400007301C45B0F080916A02806212C00B30D9
:103350003CE5130709F496C078F409309CE5190799
:1033600009F486C080916A028C600A301C4509F01D
:10337000E1CE80936A02DECE80916A028B7F0D30AF
:10338000BCE51B07B1F380916A028D7F0E301C45AE
:1033900080F380916A02877FECCF0B3FFCE51F072B
:1033A00009F45AC048F502313CE5130709F47AC024
:1033B00060F400319CE5190709F470C080916A023D
:1033C0008F7B01311C45A9F2B5CE0431BCE51B074A
:1033D00009F476C008F46CC005311C4509F0AACE8A
:1033E00080916A0282FB992790F921E0922790FB55
:1033F00082F990FB83F9BDCF0E3F2CE5120709F44B
:1034000045C070F40C3F8CE5180751F180916B02B8
:103410008E7F0D3F1C4509F08DCE80936B028ACEC6
:103420000115ADE51A0709F447C040F101301D450B
:1034300009F080CE80916B02982F909591708E7FCD
:10344000892B90FB81F9E9CF80916A02816091CF4D
:1034500080916A0284608DCF80916B028160DDCFA4
:1034600080916B028260D9CF80916A02806481CFA3
:103470000E94A41180916A0280687BCF80916B02C8
:103480008360CBCF80916A028E7F73CF80916B0275
:103490008D7FC3CF80916A028F7E6BCF80916A024D
:1034A0008F7D67CF0E94A41180916A028F7761CFD0
:1034B00080916A02837F5DCF80916B028C7FADCF5C
:1034C0000E94A41190916A02892F97FB87F9805876
:1034D00050CF0631FCE51F0709F0DDC280914B0299
:1034E0008A7A91E009F490E09093D80169E2811121
:1034F00065E382EA91E00E9461080E94F008F5CE3F
:103500000E943E0EF2CE80919E0291E08927809328
:103510009E02EBCED7010D911C91882309F43DC08A
:10352000C8010E94290CD82E682FC8010E945E098C
:10353000B8018D2D0E948D0A8C01882EF701A5807F
:10354000A2944FE0A422D280D11010924A0280911E
:103550004802877099F0DD2089F0812F807F8034C8
:1035600021F080E2800F883048F082E00E946111F3
:10357000809148028770CC24C3948111C12CB12E54
:10358000B2943FE0B322FBE0FB1508F43DC0EB2D05
:10359000F0E0EE56F84D0C94F125C8010E94350973
:1035A000D82EC6CF212F2F70A22E107F19F0A294F3
:1035B00020EFA222DD20C9F0AA2069F080E2800F6E
:1035C000883010F081100BC080914B02A82AA09285
:1035D0004B020E94F008802F0E94361515C0809182
:1035E0004A02A82AA0924A02F4CF802F0E94B31464
:1035F000AA2051F0005E083010F0811044C08A2DDE
:103600000E94E9080E94F008EB2DE850FF0B349768
:1036100010F40E94D309CC20B1F08091480280FDC3
:1036200012C0D70112961C928595859585950E94AA
:103630007911C7010E946D17809148028595859583
:1036400085950E943E1185E0F701DE0111960190FB
:103650000D928A95E1F789819A810E9435099A81B4
:10366000E981F0E0B6E09B9FE00DF11D112424E517
:10367000829FE00DF11D1124EE0FFF1FE856FD4F54
:10368000859194914FCCA09480914A02A822A09257
:103690004A02B8CF312F3F70932E107F103219F0AD
:1036A000929490EF9922882041F081E0881631F1C0
:1036B000DD2079F1AA2041F18ECFDD2091F09091AB
:1036C0004C02892F8929A11003C00E949D099CCF1B
:1036D000A1E0AA12FACF981709F496CF80934C0272
:1036E00093CFA11006C00E94E308892D0E9496097D
:1036F0008BCFB1E0AB1609F487CFF5CFDD2031F0E9
:10370000E1E0EA1508F480CF892DDFCFA1107CCF4E
:10371000ECCFAA2051F3F9E38F1209C02FEF37EE57
:1037200083E0215030408040E1F700C00000802F4E
:103730000E94B31469CF812F86958695837061F0BE
:10374000813009F061CFC8019370D11002C090E0C0
:1037500080E00E94A70958CFC8019370D11002C021
:1037600090E080E00E94BD094FCF802FDD2029F03E
:103770000E94C0070E94C21047CF0E94F906FACFEC
:10378000812F837009F066C0D1103ECF802F8295C3
:1037900086958770880F880F602F6F70462E512C8A
:1037A000712C612C082E04C0440C551C661C771C1F
:1037B0000A94D2F740E050E0BA0104FF0FC04FE096
:1037C00050E060E070E004C0440F551F661F771F93
:1037D0008A95D2F74095509560957095812F869582
:1037E00086958370823019F1D8F400914D021091C2
:1037F0004E0220914F0230915002813069F04429ED
:10380000552966297729CB01BA01602371238223C8
:1038100093230E949A11F8CE402A512A622A732AD1
:10382000CB01BA016429752986299729F2CF442949
:1038300055296629772900914D0210914E02209159
:103840004F0230915002CB01BA01602771278227C5
:103850009327DFCF8695DD2011F0812F817088239B
:1038600009F4D2CE802F829586958770880F880FB5
:10387000602F6F70462E512C712C612C082E04C0C5
:10388000440C551C661C771C0A94D2F740E050E0AB
:10389000BA0104FF0FC04FE050E060E070E004C0E8
:1038A000440F551F661F771F8A95D2F74095509594
:1038B00060957095812F869586958370823019F179
:1038C000D8F4009198021091990220919A023091B7
:1038D0009B02813069F04429552966297729CB015B
:1038E000BA0160237123822393230E9403118CCE9B
:1038F000402A512A622A732ACB01BA016429752908
:1039000086299729F2CF44295529662977290091DC
:1039100098021091990220919A0230919B02CB015A
:10392000BA016027712782279327DFCF1F70DD2020
:1039300029F0812F0E947911802FC7CE802F0E94FD
:103940009609812F0E943E115FCE802F92EF89163B
:1039500009F44EC0981578F0A0EF8A1619F1B1EF6E
:103960008B1609F43DC0DD2009F465C0A11033CEEB
:10397000812F8F713AC0E3EF8E1609F43EC0F4EF49
:103980008F12F1CFDD2009F44BC01F71812F0E94EF
:10399000791138E0139FC00111248360809348029D
:1039A000812F23C0DD20B9F0A1102ECE1F7161E060
:1039B00070E080E090E004C0660F771F881F991FB9
:1039C0001A95D2F7009198021091990220919A02CB
:1039D00030919B02A6CF21E02A1508F415CEE6CF40
:1039E000812F8F71DD2009F4ADCF0E9479110CCEAB
:1039F000812F8F71DD20C9F3A5CF60E070E0CB018E
:103A0000DD2009F472CF1F7161E070E080E090E08A
:103A100004C0660F771F881F991F1A95D2F765CFCC
:103A200081E00E94611181E08A1508F0EDCD82E00D
:103A30000E946111E9CDAA2059F0893309F077CEAF
:103A40009FEFA7EEB3E09150A040B040E1F76DCEFC
:103A5000812F8F7177CF85E0F701DE0111960190FC
:103A60000D928A95E1F7F701228189819A812111CE
:103A70006FCA0E943509082F73CA06311C4509F028
:103A800049CD8091D80169E2811165E382EA91E034
:103A90000E94370832CD0F3D2CE5120709F430CDD6
:103AA00009303DE5130709F42ECD01151C4509F039
:103AB00031CD0E94A4112FEF34E38CE0215030402F
:103AC0008040E1F700C00000F89481E08093E000BE
:103AD00080E28093D8001092C900AFE1BEE4119754
:103AE000F1F700C000001DBA109268001CBC10BEA7
:103AF0001FBA10927A0010926E0010926F0010920E
:103B00007100109272001092C9001092BC0014B89B
:103B100017B81AB81DB810BA1092BC0015B818B86A
:103B20001BB81EB811BA0C94003FDFCB1F93CF9384
:103B3000DF938091DE01807FA9F48091DB018823EF
:103B400089F080911002D091DF016091D9017091CC
:103B5000DA01A091DC01B091DD01C62FC72316E088
:103B6000D81304C0DF91CF911F91089590E0109772
:103B700011F0CF3F19F401968770F2CF189F900192
:103B8000199F300D1124F901E052FE4F4181471376
:103B9000F2CF40814613EFCF42814111ECCF4381F8
:103BA00054814A1B5B0B483C510528F78091DE018C
:103BB0008F7080618093DE01F901EB51FE4F8081AF
:103BC0008F708061808389ED91E00E946D17DF9195
:103BD000CF911F910C948C09AF92BF92CF92DF923C
:103BE000EF92FF920F931F93CF93DF93CDB7DEB782
:103BF00061970FB6F894DEBF0FBECDBF8C0185E094
:103C0000F801DE011D9601900D928A95E1F7F80109
:103C100080819181E28029EDA22E21E0B22E609177
:103C2000DC017091DD016115710509F43EC130912F
:103C3000D9014091DA01232F24232F3F09F435C104
:103C4000C380D480F090DB01F601E61BF70BFF2068
:103C500009F4FBC02091DE01522F507FE83CF105B2
:103C600008F0BBC0511178C0FE2C491321C0381395
:103C70001FC0E1101DC02F7020612093DE01C5011F
:103C80000E946D178091DE01F80185838F2D61966A
:103C90000FB6F894DEBF0FBECDBFDF91CF911F915D
:103CA0000F91FF90EF90DF90CF90BF90AF9008956D
:103CB000CD2829F0282F29232F3F09F014C120E017
:103CC000F22FF170DF2E20FF3DC0209110024091B5
:103CD000DF0156E0241315C08D879E878D859E8554
:103CE0000E946B0C292F22952F702230F8F024307F
:103CF00020F59F70F9F0F8019581907FD9F4D12CCF
:103D00001FC030E0529FF001539FF00D1124E0528C
:103D1000FE4F6181961306C06081861303C06281E5
:103D2000E61210C02F5F3F4F2770D4CF9F7011F065
:103D3000882329F3805E883010F3C8010E946D1734
:103D4000FD2CA4CFEE2009F4A1CF8091DE0181608B
:103D50008093DE01F12C9ACF491312C0381310C0A2
:103D6000E1100EC0F8012583C8010E946D1786E09E
:103D7000F801A9EDB1E001900D928A95E1F786CFA7
:103D80008D879E878D859E850E94750C882309F1FD
:103D9000EE20F9F08091DE01803270F02091D9019F
:103DA0003091DA0138872F831986DB86CA868C87A3
:103DB000CE0107960E946D1786E0F801A9EDB1E0EB
:103DC00001900D928A95E1F70E94961DFF24F394CD
:103DD0005DCFC8010E946D17F9CF51110AC089ED5E
:103DE00091E00E946D1786E0F50111928A95E9F73E
:103DF000B1CF49130FC038130DC0E1100BC0F8014B
:103E00002583C8010E946D1786E0F50111928A95FD
:103E1000E9F73CCF8D879E878D859E850E94750C26
:103E20008823B9F2EE20A9F28091DE01803220F2DF
:103E30002091D9013091DA013A8329831B82DD82F6
:103E4000CC828E83CE010196B5CFE83CF105E0F639
:103E5000FE2CEE2009F4BDCF491316C0381314C050
:103E60008091DE0180FD83CF982F907F09F47FCF72
:103E7000F8018583903F09F477CF982F907F905F6A
:103E80008F70892B858370CF8D879E878D859E85CA
:103E90000E94750C811190CF8091DE01816080932A
:103EA000DE01C8010E946D17F1CEEE2009F491CF1A
:103EB0008D879E878D859E850E94750CF82E8823A0
:103EC00009F487CF86E0F801A9EDB1E001900D92E9
:103ED0008A95E1F78091D9019091DA010E946B0CEB
:103EE0000E94961DD3CE21E02E25EACE1F93CF93BC
:103EF000DF93CDB7DEB767970FB6F894DEBF0FBE7E
:103F0000CDBF4B8B5C8B6D8B7E8B8F8B1A8A198A06
:103F100085E0FE017396DE011D9601900D928A9553
:103F2000E1F786E0FE013D96DE01179601900D92C5
:103F30008A95E1F7CE0107960E94EC1D811112C00F
:103F400086E0FE013796DE01119601900D928A956A
:103F5000E1F78A859B85892B29F08F8198858923B4
:103F60008F3FB1F516E0809110029091DF01891327
:103F70001DC067960FB6F894DEBF0FBECDBFDF91B0
:103F8000CF911F91089596E0929FD001939FB00D1D
:103F90001124A052BE4FFE01319601900D929A95C8
:103FA000E1F78093DF010E948C09DCCF819FC00183
:103FB000112480529E4F0E94EC1D8823D1F28091E3
:103FC000100290E001968770992780931002CBCF62
:103FD0002091DF0130E0C901019687709927409157
:103FE00010024817190679F60E94A4111092DF01F9
:103FF0001092100286E0E9EDF1E0DF011D928A9552
:10400000E9F7B0CF8F929F92BF92CF92DF92EF925B
:10401000FF920F931F93CF93DF938091490190916B
:104020004A01892B91F08091C9018F5F8093C9016A
:1040300081110BC00E940D0F90E090934A01809374
:104040004901892B11F40E94C40DECE58E2EE2E0AB
:104050009E2E740110E000E077E0C72EC00E802F86
:104060000E94B90E8C2D0E94B90E802F0E94840FE1
:10407000E70199917E01D12C891729F0FE01319732
:104080008083DD24D3948C2D0E94840FF7019681C8
:10409000891709F47AC0868381E08D29182B0E9444
:1040A000FE0C0F5F0730C1F60E94B6106091CB0185
:1040B0007091CC019093CC018093CB012091CA01E7
:1040C00030E0261B370B820F931F6BEF70E00E94CE
:1040D000C925E82E392F082F8093CA01F090CE0110
:1040E000FF2009F4E4C01092CE01E0915602F09155
:1040F0005702AF01425F5F4F20E06BEFB62E6BEFD0
:1041000070E0A191AB3F99F0CA2ED12C8E2D932F48
:104110000A17E8F18C199D09092E000CAA0BBB0B9C
:104120004E97A105B105C8F1DF011197BC924E175A
:104130005F0739F72093CE01111102C02111B9C0D8
:104140001092CD01A0915602B09157029091CE01EC
:10415000EFE6F2E080E03191E40129914E0132175F
:1041600051F03C913B3FD9F40C93AF0141505109C0
:10417000EA01288391E01196D2E0ED37FD0759F767
:104180009093CE018093CD0198C080E086CFDB0173
:10419000AC19BD098A0F9B1FBFCF2F2DC8CF81E05F
:1041A000EACFF29EF001F39EF00D1124EA5FFE4F7C
:1041B000C288D388C114D10419F498ECC92ED12C2B
:1041C000F29EE001F39ED00D1124CA5FDE4F8E8176
:1041D0008823B9F08D859E850E942808C816D906C7
:1041E00080F40F9D600111248989811105C0C601E9
:1041F0008A5F9E4F0E94DF09C601845F9E4F0E9426
:10420000000A0F5F202F30E080914801082E000C3B
:10421000990B821793072CF655C000E086E1F82E23
:10422000F1CF009789F40E94BB0C0E94B80C0E9449
:10423000B50CC091CF01CC23B9F10E94B80C81E03C
:10424000C827C093CF0103C09170892B91F380914F
:10425000D0019091D1018130984780F010929E0258
:10426000609198027091990280919A0290919B02BC
:104270000E94CA0C1092D1011092D0018091D001FD
:104280009091D10101969093D1018093D001812F1B
:10429000DF91CF911F910F91FF90EF90DF90CF9022
:1042A000BF909F908F9008950E94C40CC8CF1111A9
:1042B00047CF8091CD01811143CF809148018F3F3D
:1042C00009F0ABCF8091D0019091D10120919E0255
:1042D0002111A7CF892BD9F21092D1011092D001D0
:1042E000609198027091990280919A0290919B023C
:1042F0000E94CA0CCCCFCDB7DEB7C955D1090FB6D5
:10430000F894DEBF0FBECDBF84B7877F84BF0FB6E2
:10431000F894A89580916000886180936000109265
:1043200060000FBE80E890E00FB6F89480936100C3
:10433000909361000FBE85B7806885BF85B78068A0
:1043400085BF0E94F4040E94C1058091E200846050
:104350008093E20078948091C4028823A1F01091A8
:10436000E9001F709091EC00892F817090FD80E82A
:10437000182B1092E9008091E80083FD0E94B9118A
:104380001F701093E90082E084BD93E095BD9AEF21
:1043900097BD80936E000E940D0F90E090934A01AC
:1043A000809349010E94FE0C0E940D0DECE5F2E0A5
:1043B0006FE6662E62E0762E8AE692E0D3011192D5
:1043C0001D928E179F07D9F78EE090E00E943F263E
:1043D0008093560290935702FC010E962BEF219387
:1043E0008E179F07E1F790E080E00E9405268F3E40
:1043F0009E4F11F00E943E0E89EA8093800089E072
:104400008093810024982C983F988AB18F7C8AB938
:104410006E98479A8BB180638BB9769A8FE090E063
:104420000E94FF25609358027093590280935A02AC
:1044300090935B0267704FEF649FB00111247595F4
:1044400067957595679577277093890060938800C5
:1044500070938B0060938A0070938D0060938C0042
:104460000E94C40D90E080E00E9405268F3E9E4F82
:1044700011F00E943E0E82E090E00E94F7258093AA
:1044800089020E941A0D90936B0280936A0283E066
:1044900090E00E94F725682F70E090E080E00E9495
:1044A0009A11609198027091990280919A0290916C
:1044B0009B020E94CA0C8BE491E090936D02809362
:1044C0006C0228E1C22ED12C3DE7A32E32E0B32EA0
:1044D00041E4842E912C8C0E9D1EF2E08F0E911CD7
:1044E0008091C402853081F480E4F82E9EE0E92EAC
:1044F000E60C00E112E18091C402853009F452C15A
:104500000E94A4110E94D3090E940220EAE8F2E06E
:10451000AFE6B2E010E000E0302F8D912191281736
:1045200009F48AC190E0FF24F3942827422F4F21F9
:1045300009F47DC161969FAF619762963FAF629724
:104540008F2191E009F490E063969FAF63970E94FA
:10455000B6108160782F65969FAF8EAF6597619694
:104560004FAD619762965FAD629763966FAD63974B
:1045700065968FAD65970E94761FF801E657FD4F4F
:104580008081F826F08285E0E3E8F2E0DE01119612
:1045900001900D928A95E1F7F0908402E0908502F7
:1045A0001091860200918702109284021092850277
:1045B00010928602109287028F2D8E2909F448C02E
:1045C00080918102909182020E9428089C01909122
:1045D0008002992309F4F9C125313105C8F19F3FC3
:1045E00019F09F5F90938002FF2059F00E949C0772
:1045F0009FEF1F140CF491E0899F802D112480936C
:104600008402EE2059F00E949C079FEF1E140CF4C8
:1046100091E0899F802D112480938502309184023E
:104620003323B1F020918502222391F045EB34032E
:10463000C0011124992309F426C19093840245EB0B
:10464000240390011124332309F421C130938502FE
:10465000812F802B09F448C080917E0290917F02C7
:104660000E9428089C0190917D02992309F4A8C119
:1046700025313105C8F19F3F19F09F5F90937D026E
:10468000112359F00E947C079FEF11160CF491E062
:10469000899F802D112480938602002359F00E9467
:1046A0007C079FEF10160CF491E0899F802D112458
:1046B00080938702309186023323B1F020918702E4
:1046C000222391F045EB3403C0011124992309F40E
:1046D000E2C09093860245EB24039001112433231A
:1046E00009F4DDC0309387028091840290918502A5
:1046F000892B90918602892B90918702892B11F04A
:104700000E94C21085E0FE013196A3E8B2E001905C
:104710000D928A95E1F70E94D3099091880289173A
:1047200021F00E94D309809388028091C4028430D2
:1047300009F0D6CE85E08093E9008091E80082FF01
:10474000CFCE8091E80090E085FF06C00E9413055F
:10475000882309F4A8C091E08091E8008B778093CA
:10476000E800992309F4BCCE19811111B8C08091D9
:104770009E02882309F4CEC010929E0281E08093AD
:104780009D0222961FAE229723961FAE23978EEF8F
:1047900024968FAF249763E0CE018F5B9F4F0E94DA
:1047A000E2069ECE8091C402843009F110926E021E
:1047B0000FB6F894A895C09260000FBEF09260000A
:1047C00083B7817F846083BF83B7816083BF789420
:1047D000889583B78E7F83BF0FB6F894A895809194
:1047E0006000886180936000109260000FBE80912D
:1047F000C302882309F47FCE0E940D0F90E09093AE
:104800004A01809349010E94FE0C0E940D0DEFE6C3
:10481000F2E01192AE16BF06E1F70E940220EFE629
:10482000F2E081918111B6C0EE12FBCF64CE9F5FA2
:10483000FF0C963009F07ACE0F5F1F4F0E30110536
:1048400009F06ACE8FEF66968FAF669767968FAF47
:10485000679768961FAE68970E94B6108160782FA0
:104860006A969FAF8EAF6A9766964FAD66976796CA
:104870005FAD679768966FAD68976A968FAD6A97D8
:104880000E94761F80CE81E080938402D8CE81E0A2
:1048900080938502DDCE81E0809386021CCF81E08B
:1048A0008093870221CF00E410E0CE0101967C01C5
:1048B0008091E80085FD0AC08091E8008B778093A5
:1048C000E8000E941305882399F345CF8091F100F9
:1048D000F70181937F010150110951F73CCF11304D
:1048E000C9F422961FAE229723961FAF23978CE020
:1048F000E6E5F1E0D40101900D928A95E1F78EEFA3
:1049000060968FAF60976FE0CE018F5B9F4F0E94E4
:10491000E206E6CD80919D028823D1F1123041F06C
:104920001330F9F081E022968FAF229761E034CF07
:10493000609198027091990280919A0290919B02E5
:104940000E94960822961FAE229723961FAF2397A8
:1049500024968FAF24978EEF25968FAF259764E02E
:104960001BCF8A81813041F0882341F08230D1F61B
:1049700081E080939C0202C010929C0222961FAE9E
:10498000229783E023968FAF239780919C02E0CFFC
:104990008FEFC9CF09BD19BD09B400FEFDCF8091CD
:1049A000D8008F7D8093D8008091E0008260809352
:1049B000E0008091E00081FDFCCF0E94A4119BCD1E
:1049C0002139314008F059CE8FCE232B09F009CE82
:1049D0003FCE1F921FB61F9211248F939F93AF93C8
:1049E000BF9380916E02811113C08091510290910A
:1049F0005202A0915302B09154024196A11DB11DE3
:104A00008093510290935202A0935302B0935402A8
:104A1000BF91AF919F918F911F901FBE1F901895CE
:104A20001092B9008CE08093B8000895EF92FF9245
:104A30000F931F93CF93DF93182FEB011092BC00BD
:104A400084EA8093BC000E94B6107C018091BC0077
:104A500087FF27C08091B900887F883029F0809136
:104A6000B900887F8031D9F51093BB0084E880932A
:104A7000BC000E94B6108C018091BC0087FF24C04E
:104A80002091B900287F90E080E02831B1F081E0EA
:104A900090E0203411F490E080E0919581959109A7
:104AA0000CC0CF3FDC0791F20E94B6108E199F090F
:104AB0008C179D0758F28EEF9FEFDF91CF911F91DA
:104AC0000F91FF90EF900895CF3FDC07A9F20E946D
:104AD000B610801B910B8C179D0770F2ECCF8FEFF7
:104AE0009FEFEBCF0F931F93CF93DF93EB01809357
:104AF000BB0084E88093BC000E94B6108C018091BA
:104B0000BC0087FF11C02091B900287F81E090E0B0
:104B1000283211F490E080E0919581959109DF9120
:104B2000CF911F910F910895CF3FDC0741F30E9471
:104B3000B610801B910B8C179D0708F38EEF9FEF2B
:104B4000EECF0F931F93CF93DF93EC0184E8809314
:104B5000BC000E94B6108C018091BC0087FF08C089
:104B60008091BB0090E0DF91CF911F910F9108954C
:104B7000CF3FDC0789F30E94B610801B910B8C1786
:104B80009D0750F38EEF9FEFEECF84E98093BC003A
:104B90000895AA1BBB1B51E107C0AA1FBB1FA61784
:104BA000B70710F0A61BB70B881F991F5A95A9F7D6
:104BB00080959095BC01CD01089597FB072E16F4C2
:104BC000009407D077FD09D00E94C92507FC05D0C5
:104BD0003EF4909581959F4F0895709561957F4F14
:104BE0000895EE0FFF1F0590F491E02D0994F999B7
:104BF000FECF92BD81BDF89A992780B50895A6E1B0
:104C0000B0E044E050E00C943126A8E1B0E042E08E
:104C100050E00C943126262FF999FECF92BD81BD2C
:104C2000F89A019700B4021639F01FBA20BD0FB6EA
:104C3000F894FA9AF99A0FBE08950396272F0E94C6
:104C40000C260E940B26252F0E940C26242F0C9444
:104C50000C260196272F0E940C260C940B26DC01B3
:104C6000CB01FC01F999FECF06C0F2BDE1BDF89A77
:104C7000319600B40D9241505040B8F708950F930B
:104C80001F93CF93DF938230910510F482E090E080
:104C9000E091D302F091D40230E020E0B0E0A0E057
:104CA000309799F42115310509F447C0281B390BB9
:104CB00024303105C0F58A819B816115710571F140
:104CC000FB0193838283FE0111C0408151810281E7
:104CD000138148175907F8F04817590799F41097A6
:104CE00061F012960C93129713961C933296CF0193
:104CF000DF91CF911F910F9108950093D3021093EC
:104D0000D402F4CF2115310519F04217530718F4D6
:104D10009A01BD01EF01DF01F801C2CF9093D402E7
:104D20008093D302D0CFFE01E20FF31F81939193C2
:104D30002250310939832883DACF2091D102309172
:104D4000D202232B41F420910201309103013093D0
:104D5000D2022093D102209100013091010121154E
:104D6000310541F42DB73EB7409104015091050142
:104D7000241B350B4091D1025091D20242175307A8
:104D800008F0B5CF241B350B2817390708F4AFCF2F
:104D9000BC016E5F7F4F2617370708F4A8CF640F5A
:104DA000751F7093D2026093D102FA01819391939F
:104DB0009ECFCF93DF930097E9F0FC0132971382E7
:104DC0001282C091D302D091D402DE0130E020E003
:104DD0002097A1F420813181820F931F2091D1026D
:104DE0003091D2022817390709F067C0F093D20238
:104DF000E093D102DF91CF910895DA01AE17BF079A
:104E000008F040C012964D915C9113979D01411599
:104E1000510599F7D9011396FC93EE9312974D9192
:104E20005D91A40FB51FEA17FB0779F4808191818A
:104E30000296840F951FD90111969C938E938281BF
:104E4000938113969C938E931297B0E0A0E08A8191
:104E50009B810097B9F5FE0181919191E80FF91FAF
:104E60008091D1029091D2028E179F0719F6109768
:104E700061F51092D4021092D302D093D202C09363
:104E8000D102B8CFB383A28340815181840F951F93
:104E9000A817B90771F44E5F5F4F8D919C911197E0
:104EA000480F591F5183408312968D919C91938393
:104EB00082832115310509F0ADCFF093D402E09340
:104EC000D30298CFDE01EC01C2CF13961C921E9242
:104ED0001297D3CFF894FFCF840C840C8D0C8D0CDB
:104EE0008F0C8D0C8D0C8D0C840C840C940C8D0C03
:104EF0008D0C940CE50CF10CF60CEF0CF40CFB0C87
:104F0000F90CDA12021357140213571435135613FF
:104F1000571402140F1415191D19231929192F19C3
:104F200035193B19D21AD21A4A1B4A1B9B1BB51BB7
:0C4F3000041B041BC01B961CA51CA51C28
:104F3C000000D502200004175017171500000000C0
:104F4C00000000000000000000000000E616391709
:104F5C00FF14000000000000000000000000000032
:104F6C000000C8162217E714000000000000000023
:104F7C000000000000000000FF2000DF06840D632D
:104F8C000D5F0D5B0D01763434596E2F704D724BE5
:104F9C004700818283E200E900EA00B500B600B761
:104FAC0000CD008301CC008A0192019401210223DF
:104FBC000224022502260227022A02B300B4006F43
:104FCC00007000404D6D66011901AC00B808D108A5
:024FDC00EA08E1
:00000001FF
