:100000000C94CB030C94E8030C94E8030C94E803E1
:100010000C94E8030C94E8030C94E8030C94E803B4
:100020000C94E8030C94E8030C9428130C94DC174C
:100030000C94F2270C94E8030C94E8030C94E80366
:100040000C94E8030C94E8030C94E8030C94E80384
:100050000C94E8030C94FF130C94E8030C94E8034D
:100060000C94E8030C94E8030C94E8030C94E80364
:100070000C94E8030C94E8030C94E8030C94E80354
:100080000C94E8030C94E8030C94E8030C94E80344
:100090000C94E8030C94E8030C94E8030C94E80334
:1000A0000C94E8030C94E8030C94E8030501098020
:1000B000A101850319012AB700150126B700950192
:1000C00075108100C0050C0901A101850419012AE0
:1000D000A002150126A002950175108100C005013E
:1000E0000906A1018505050719E029E71500250185
:1000F0009508750181020507190029EF15002501F2
:1001000095F075018102050819012905950575010C
:100110009102950175039101C005010902A1010930
:1001200001A100050919012905150025019505758D
:10013000018102950175038101050109300931151D
:1001400081257F95027508810609381581257F95DF
:100150000175088106050C0A38021581257F950175
:1001600075088106C0C005010906A101050719E04F
:1001700029E715002501950875018102950175088B
:1001800081010507190029FF150026FF0095067556
:100190000881000508190129059505750191029549
:1001A0000175039101C0000101010101010101017B
:1001B0000202020202020202020303030303030318
:1001C00003040404040404040505050505060606E5
:1001D0000606070707070708080808090909090AA2
:1001E0000A0A0B0B0B0C0C0C0D0D0D0E0E0E0F0F47
:1001F0000F101011111112121313141415151616D5
:100200001717181819191A1A1B1B1C1D1D1E1E1F43
:100210002020212222232424252626272829292A92
:100220002B2C2D2D2E2F30313232333435363738BA
:10023000393A3B3C3D3E3F404142434445464748B6
:10024000494A4C4D4E4F50515354555658595A5B8C
:100250005D5E5F616264656668696B6C6D6F70722C
:10026000737577787A7B7D7E8082838587888A8C98
:100270008E8F91939596989A9C9EA0A2A3A5A7A9CC
:10028000ABADAFB1B3B5B7BABCBEC0C2C4C6C9CBC3
:10029000CDCFD1D4D6D8DBDDDFE2E4E7E9EBEEF079
:1002A000F3F5F8FAFDFFFFAA7F5540222325262803
:1002B000292A2C2D2F3032333536383A3B3D3E40FB
:1002C00042434547494A4C4E5051535557595A5C41
:1002D0005E6062646668696B6D6F71737577797B58
:1002E0007D7F81838587898A8C8E90929496989A57
:1002F0009C9E9FA1A3A5A7A8AAACAEAFB1B3B4B66C
:10030000B8B9BBBCBEBFC1C2C3C5C6C7C9CACBCCC6
:10031000CDCED0D1D2D2D3D4D5D6D7D7D8D9D9DA99
:10032000DADBDBDBDCDCDCDCDCDDDDDDDDDCDCDC0E
:10033000DCDCDBDBDBDADAD9D9D8D7D7D6D5D4D336
:10034000D2D2D1D0CECDCCCBCAC9C7C6C5C3C2C10B
:10035000BFBEBCBBB9B8B6B4B3B1AFAEACAAA8A768
:10036000A5A3A19F9E9C9A98969492908E8C8A8920
:10037000878583817F7D7B79777573716F6D6B69FD
:1003800068666462605E5C5A5957555351504E4CD2
:100390004A4947454342403E3D3B3A383635333281
:1003A000302F2D2C2A2928262523222E004C002AE6
:1003B00000E100354100001E00140004001D610929
:1003C0005D4D001F001A0016001B00E1042A0020EA
:1003D0000008000700060050002C0021001500094D
:1003E0000019004F004A00220017000A0005000013
:1003F000006564500001530000000F0000E3004F4F
:10040000000153000000070000E20023001C000B65
:1004100000110000002961240018000D0010005296
:10042000004B0025000C000E00360051002800266D
:100430000012000F0037002F002B0027001300339D
:1004400042387130004E002D0031003468E5000163
:100450005100002900010001000100010000003AE4
:10046000001E02200222022E002F5D3B001F0221EF
:100470000223020100CA5C3C002F0226022F000169
:1004800000CB5C3D0030022702300001002E5D3EB3
:10049000003102350035020000C45C01000100009B
:1004A00000010000002D5D010001000000010000BE
:1004B00000C35C3F0052005100240200002C5D404C
:1004C00000240021001E000100010041002500223F
:1004D000001F003700C65C420026002300200027D2
:1004E00000C75C430025022E0231002E00010044AB
:1004F00000450001000100010000000100010001B1
:1005000000010001000000010001000100010009DC
:100510005D010001000100F2000100010001000185
:1005200000F000F1000100F400010001000100F3FF
:10053000000100F5000100010001000100010000C0
:1005400000010001000100000001000000010001A5
:100550000001000000010000000100010001000195
:10056000000100000001000100010001000100A9DC
:10057000000100010001000100AC00AA00B600016A
:100580000001000100AB00A8000100010001000112
:1005900000010001000100005C0100AE000100014B
:1005A00000000032190A00047F3F1F6432146432D5
:1005B00014783C1E1E140A050A0000000000030601
:1005C000B200080001000000A800080002000300BB
:1005D000A0001400030057494E555342000000008C
:1005E0000000000000008400040007002A0044000E
:1005F0006500760069006300650049006E007400C4
:1006000065007200660061006300650047005500E8
:10061000490044007300000050007B003900440092
:100620004200370046003100460044002D003700EC
:100630004500370041002D00340030003000380004
:100640002D0039003300360042002D0036004200F4
:1006500041003600430031003900410033003000D2
:10066000380063007D00000000001B0301636F6E13
:100670006669677572652E6572676F646F782D6540
:100680007A2E636F6D0009026B00040100A0FA0965
:1006900004000001030101000921110100012240B1
:1006A000000705810308000A090401000103010293
:1006B00000092111010001224D00070582030800F5
:1006C0000A090402000103000000092111010001D0
:1006D000226D000705830320000A0904030002FFBE
:1006E00000000007058403400005070505034000DE
:1006F000051201100200000008973275490100013F
:1007000002000122034500720067006F0044006F81
:10071000007800200045005A00200053006800695E
:10072000006E006500000030035A005300410020B5
:100730000054006500630068006E006F006C006F7D
:10074000006700790020004C006100620073002007
:100750000049006E006300000004030904050F391E
:1007600000021C100500DF60DDD88945C74C9CD213
:10077000659D9E648A9F00000306B2004500181024
:10078000050038B60834A909A0478BFDA076881566
:10079000B6650001420011241FBECFEFDAE0DEBFD4
:1007A000CDBF23E0ACE9B1E001C01D92A136B20794
:1007B000E1F711E0A0E0B1E0E2E5F7E502C0059065
:1007C0000D92AC39B107D9F70E945F230C94682BC6
:1007D0000C940000E8EDF0E080818E7F8083109221
:1007E000E2001092DA001092E100A0EEB0E08C91ED
:1007F00081608C9380818F77808319BCA7EDB0E0F6
:100800008C918E7F8C9380818F7E808310922B03BE
:1008100008952091E4003091E50095E6A90120912A
:10082000EC00822F817020FF06C08091E80080FFDD
:1008300006C080E008952091E80022FD1AC0809152
:100840005003882389F0853089F08091EB0085FD85
:100850000FC02091E4003091E50042175307F9F2F0
:100860009150E1F684E0089582E0089583E00895D0
:1008700081E00895EF92FF920F931F93CF937C0135
:100880008B010E940904C82F882371F08C2FCF910F
:100890001F910F91FF90EF900895F70181917F01D3
:1008A0008093F100015011090115110579F3809130
:1008B000E80085FDF2CF8091E8008E778093E80014
:1008C0000E940904882381F3C82FE0CF809152034E
:1008D00087FF13C08091E80082FF06C08091E80086
:1008E0008B778093E80004C0809150038111F2CF90
:1008F0000895809150038823D9F38091E80080FF08
:10090000F8CF8091E8008E77ECCF982F9093E90094
:10091000242F762F50E0891731F07091EC00209150
:10092000ED005091F00021FD07C09F5F973071F7F7
:100930008093E90081E008953091EB003E7F309391
:10094000EB003091ED003D7F3093ED003091EB00F6
:1009500031603093EB007093EC002093ED005093E6
:10096000F0002091EE0027FDE0CF80E00895CF92C7
:10097000DF92EF92FF920F931F93CF93DF93C8ED17
:10098000D0E088818F7E8883E7EDF0E08081816010
:10099000808384E082BF81E080932B0388818E7FF7
:1009A000888302EE10E0F80110821092DA0081EEE6
:1009B000C82ED12CF601108288818F778883888198
:1009C0008068888388818F7D888319BC109250034A
:1009D0001092510310924F0310924E0390EEE92EA5
:1009E000F12CF70180818B7F8083888181608883EF
:1009F00042E060E080E00E948504F60180818E7F05
:100A00008083F80180818160808380818860808319
:100A1000F70180818E7F8083888180618883DF9168
:100A2000CF911F910F91FF90EF90DF90CF9008959D
:100A3000FC01809158039091590386179707A0F005
:100A40006115710529F48091E8008E778093E800A4
:100A500090E06115710551F4911108C08091E80092
:100A600082FF35C080E00895BC01F2CF8091500331
:100A70008823C9F18530C9F18091E80083FD31C038
:100A80008091E80082FDEACF8091E80080FFE1CF0D
:100A90008091F3002091F200382F6115710519F053
:100AA0002830310558F091E02830310509F090E008
:100AB0008091E8008E778093E800CBCF849180937B
:100AC000F1003196615071092F5F3F4FE6CF809161
:100AD0005003882341F0853041F08091E80083FF86
:100AE000BDCF81E0089582E0089583E00895FC0180
:100AF000809158039091590386179707A0F06115CC
:100B0000710529F49091E8009E779093E80090E0B9
:100B10006115710551F4911108C08091E80082FFC0
:100B200034C080E00895BC01F2CF80915003882347
:100B3000C1F18530C1F18091E80083FD30C0809122
:100B4000E80082FDEACF8091E80080FFE1CF80914C
:100B5000F3002091F200382F6115710519F028304B
:100B6000310558F091E02830310509F090E02091EE
:100B7000E8002E772093E800CBCF81918093F1009D
:100B8000615071092F5F3F4FE7CF80915003882359
:100B900041F0853041F08091E80083FFBECF81E0D5
:100BA000089582E0089583E00895089580912D03CB
:100BB000089520915003243091F42093E90070E0CF
:100BC00050E040E00E943A04882321F0109229036B
:100BD00010922A038091E8008E778093E8000895B0
:100BE00090911003803F59F48091110387FF0DC04D
:100BF0001092110391110BC010920C0308C0813F99
:100C000081F48091110318169CF3992381F080914F
:100C1000120390911303892B09F064C01092090309
:100C20000895823F49F497FFF0CF1092100380910E
:100C300011038111ECCFE0CF833F19F41916ACF307
:100C4000E4CF20911203893F29F41216F4F6109292
:100C50001203DBCF8A3F19F427FFD7CFF8CF2091BB
:100C600013038B3F29F427FFD0CF10921303CDCF6E
:100C70008C3F19F41216CCF3C8CF843F31F4809125
:100C80000F038E7F80930F03C0CF853F21F48091A7
:100C90000F038D7FF7CF863F21F480910F038B7F69
:100CA000F1CF873F21F480910F03877FEBCF883FFF
:100CB00021F480910F038F7EE5CF8D3F31F4809139
:100CC000D1028E7F8093D102A0CF8E3F21F48091FC
:100CD000D1028D7FF7CF8F3F09F097CF8091D1025E
:100CE0008B7FF0CF08958091D10280FD1AC081FDE5
:100CF00014C082FD14C080910903882391F08C33C5
:100D000070F427E0829FC00111246CE370E00E9420
:100D10000029862F672B29F0089583E0089587E046
:100D2000089581E008958091D10280FD16C081FD73
:100D300016C082FD18C080910C03882391F08C337B
:100D400090F423E2829FC00111246CE370E00E94C2
:100D50000029862F672B49F0089588E0089581E1E6
:100D6000089585E0089583E2089581E00895803F25
:100D700031F40E9493068195809311030895813F79
:100D800019F40E949306F8CF823F31F40E94930633
:100D90008195809310030895833F19F40E94930670
:100DA000F8CF893F29F40E947306809312030895B7
:100DB0008A3F21F40E9473068195F7CF8B3F31F46F
:100DC0000E94730681958093130308958C3F19F454
:100DD0000E947306F8CF843F31F480910F03816045
:100DE00080930F030895853F21F480910F03826063
:100DF000F7CF863F21F480910F038460F1CF873FC6
:100E000021F480910F038860EBCF883F21F480911B
:100E10000F038061E5CF8D3F31F48091D102816075
:100E20008093D10208958E3F21F48091D102826097
:100E3000F7CF8F3FB9F78091D1028460F1CF9C0149
:100E40004FB7F8948091CD029091CE02A091CF023D
:100E5000B091D0024FBF821B930B089520912401C3
:100E60002223C9F02091E60227FF15C0E62FE69560
:100E7000E695E695EE31D8F4E80FF92FF11D67708D
:100E800021E030E001C0220F6A95EAF720958281C7
:100E9000282322830895FC0132960896219162133B
:100EA00003C0DF0111971C92E817F907B9F70895FD
:100EB000209124012223C1F02091E60227FF14C0D3
:100EC000E62FE695E695E695EE31F8F4E80FF92F72
:100ED000F11D677021E030E001C0220F6A95EAF74A
:100EE0008281822B82830895FC0132962FEF30E0BD
:100EF0004191641751F02F3F19F4411101C0232F84
:100F00003F5F3630A9F72F3F09F40895820F911DF6
:100F100027FD9A95FC0162830895CF92DF92EF92AC
:100F2000FF926C01EE24FF2420E0C114D104E104FF
:100F3000F10419F0C701B60120E1C72ED82EE92E21
:100F4000FF24C114D104E104F10419F0285FC701A2
:100F5000B6016B017C0154E0F694E794D794C794F2
:100F60005A95D1F7C114D104E104F10419F02C5FB2
:100F7000C701B6016B017C0142E0F694E794D79477
:100F8000C7944A95D1F7C114D104E104F10419F0D2
:100F90002E5FC701B6019695879577956795672B64
:100FA000682B692B09F02F5F822FFF90EF90DF9065
:100FB000CF9008958091C80281111092C8020895BF
:100FC0008091C7029091C602892B9091C502892B0E
:100FD00080939C019091C8029923A1F0892B809362
:100FE0009C0180912401882341F18091E60287FFD2
:100FF00024C08EE1EEE9F1E090E0815000F591111E
:101000000E94DA07E091E902F091EA023097E1F0FC
:1010100080912401882359F08091E60287FF07C060
:1010200080919C0180939D0185E080939C010280CA
:10103000F381E02D8CE991E0099486E0DBCF2191EA
:101040002223D9F29F5FD9CF0895E92FEE0FE90F40
:10105000EE0F8E0F982F977086958695869525E0D2
:10106000829FF0011124E357FD4F50E040E080E003
:10107000219130E0092E02C0369527950A94E2F7B7
:1010800021703327042E01C0220F0A94EAF7822B25
:101090004F5F5F4F4530510559F70895E92FEE0F27
:1010A000E90FEE0F8E0F982F977041E001C0440FAB
:1010B0009A95EAF786958695869595E0899FF00141
:1010C0001124E357FD4F30E020E070E05191DF0143
:1010D0001197CB01022E02C0969587950A94E2F7EC
:1010E000817081958527842385278C932F5F3F4FBF
:1010F0002530310559F7089580918C0290915B025B
:10110000981301C008958F5F8770FACF882341F04C
:1011100080959091C70289238093C7020C94E007C1
:101120000895882339F09091C702982B9093C702B5
:101130000C94E00708952091520230915302281731
:10114000390771F09093530280935202E091E902C3
:10115000F091EA02309721F00084F185E02D0994A6
:10116000089520915002309151022817390771F0EB
:101170009093510280935002E091E902F091EA02CB
:10118000309721F00680F781E02D09940895E091D1
:10119000E902F091EA02309721F00190F081E02D10
:1011A000099480E00895FA01811101C0FB010994BE
:1011B00080910203982F9E7F29F481708260809332
:1011C000020308958635E8F381708465F8CFAF9205
:1011D000BF92DF92EF92FF920F931F93CF93DF9313
:1011E000082F162FE901E42FF0E0EA55FE4F6111B8
:1011F00011C0E4915E2F4E2F4983E8835A831B82EE
:10120000DF91CF911F910F91FF90EF90DF90BF90F2
:10121000AF900895E62EF12C4491D42EE42FF0E007
:1012200026E0829FC00111242FEF30E0B9010E9417
:10123000EC28802F90E0880F991F55E5569FD0012C
:10124000579FB00D11248A1B9B0B982F990F890F64
:101250005901AE18BF08AE9ED001AF9EB00DBE9E24
:10126000B00D11245B2F189F80011124012F11272D
:101270005901A01AB10AAE9E8001AF9E100DBE9E0C
:10128000100D11245901A81AB108AE9CC001AF9CE1
:10129000900DBE9C900D1124892F9927281B390B86
:1012A0002E9FC0012F9F900D3E9F900D1124E92F7E
:1012B00062307105A1F050F46115710509F49CCFFD
:1012C0006130710581F0EB2F512F96CF643071059D
:1012D00069F080F06630710509F48ECFF4CFE42F09
:1012E0004B2F592F89CFE42F412F86CFEB2F542F2F
:1012F000492F82CF4B2F5D2DE12F7ECF9091E602BB
:1013000092FF06C0282F28712830F9F4877F846067
:1013100093FF06C0282F28712831F1F4877E84615D
:101320002091E70220FF06C0382F38713830D9F4F9
:10133000877F816021FF06C0282F28712831D1F4D2
:10134000877E816194FD877E0895282F2471243043
:10135000F9F68B7F8860DCCF282F2471243101F7C8
:101360008B7E8861DDCF382F3171313019F78E7F58
:101370008860E0CF282F2171213121F78E7E88618E
:10138000E1CFCF93DF93972F70E026E0929F600D1F
:10139000711D1124FB0134E5839FE00DF11D112423
:1013A000EE0FFF1FE555FC4FC591D491CE01C23819
:1013B000D105B9F1E8F5C133D10509F499C050F56B
:1013C000C932D10509F48DC0CA32D10509F497C0DC
:1013D000C11521E5D20708F0BFC0C11530E5D3071C
:1013E00008F016C1C83ED10508F09DC0C03ED10529
:1013F00068F5C83AD10508F089C0C53AD10508F0AA
:10140000FFC0C130D10511F1209709F443C02497E2
:10141000E8F440C0C533D10509F45CC0C933D10537
:10142000B9F62091E602237089F080EE90E00EC0BC
:10143000C33ED10591F168F4C03ED105F9F0C23E3A
:10144000D10531F62091E60222FD20C0DF91CF9137
:101450000895C63ED10561F1C73ED10581F1C43E74
:10146000D10509F0B5CF2091E70221FFEFCF8091A0
:10147000E60284FD0FC087EE90E0E8CF2091E602FF
:1014800020FD12C13091E70230FFE0CF83EE90E003
:1014900024FFDCCF90E080E0D9CF2091E60222FD4E
:1014A00006C13091E70230FDC0CF24FFCFCFF2CF8D
:1014B0002091E60223FFCACF24FDECCFDCCF2091A0
:1014C000E60223FDF7C03091E70231FFEECF84EE54
:1014D00090E0BCCF2091E60225FFB8CF89E290E0F2
:1014E000B5CF2091E60225FFB1CF85E390E0AECFE6
:1014F0002091E60226FFAACF8AE290E0A7CF2091B2
:10150000E60226FFA3CF81E390E0A0CFCF3BD10539
:1015100008F6C85AD0E0CC0FDD1FC15ADE4F8881D3
:101520009981946493CFC11520E2D20760F4C1156C
:1015300031E0D30708F08ACFCE019065C03FD105D6
:1015400008F084CFA7CFC11580E4D80708F4A2CF54
:10155000CE019F70906A7ACFC11595E5D90710F535
:10156000C11524E5D20708F088C0C11533E5D307BB
:1015700008F06FC0C11582E5D80708F465C09E0168
:101580002370332781E090E002C0880F991F2A95CD
:10159000E2F7C695C69520E2C29FE00111248C2B8C
:1015A0009D2B50C0C11599E5D907A0F4C11528E5B8
:1015B000D20708F067C0C11536E5D30708F06ACF37
:1015C0008C2F0E947E0990E0982F882788279F7192
:1015D00090623CCFC1158AE5D80708F458C0CE0107
:1015E00090568115904208F055CF8D2F8F710E9433
:1015F0007E0990E0982F882788279F718C2BE8CF51
:10160000C55AD0E0C45ADE4F888190E090641ECF66
:101610009E01E4E036952795EA95E1F723708C2F3B
:1016200086958695837030E2839FC0011124922BAA
:10163000C37021E030E002C0220F331FCA95E2F7E9
:10164000822B932B9C6802CF9C2F8827816F906AF6
:10165000FDCE9E012370332781E090E002C0880F09
:10166000991F2A95E2F7C695C69530E2C39FE0011F
:1016700011248C2B9D2B9A68E9CE9C2F8827846F90
:10168000906AE4CE9C2F8827806F906ADFCE8C2FE3
:101690008F700E947E0934E0D695C7953A95E1F7A0
:1016A000CF709C2F9069D2CE89E390E0CFCE82EEAE
:1016B00090E0CCCE86EE90E0C9CEBF92CF92DF9282
:1016C000EF92FF920F931F93CF93DF938C01C09003
:1016D0002403D0902503E0902603F0902703809107
:1016E000C9029091CA02A091CB02B091CC02C82A43
:1016F000D92AEA2AFB2ACFE1D0E0BC2ED701C601C5
:101700000C2E04C0B695A795979587950A94D2F7A5
:1017100080FD0EC0219788F7B12C8B2DDF91CF91E2
:101720001F910F91FF90EF90DF90CF90BF900895A1
:10173000B8018C2F0E94C109019761F3EECFCF93BE
:10174000DF93EC010E945D0BBE01DF91CF910C9401
:10175000C1090E949F0B292F2F7092959F70925064
:101760009E3078F4E92FF0E0E659F44D0C941429FA
:10177000803F19F020F4883E20F481E00895843FF2
:10178000E1F380E00895883EC0F3813FD1F7F5CFC3
:10179000822F869586958695089527982F98089587
:1017A00026982E98089525982D98089556985E9815
:1017B0000895279A2F9A0895269A2E9A0895259A81
:1017C0002D9A0895CF92DF92EF92FF92CF936B0103
:1017D0007C010E948D07C82F0E94D60B0E94D30B5C
:1017E0000E94D00B0E94CD0BC150C73040F4EC2FAB
:1017F000F0E0E858F44D0C9414290E94DF0BC70167
:10180000B601CF91FF90EF90DF90CF9008950E94A6
:10181000DF0B0E94DC0BF3CF0E94DF0B0E94D90B81
:10182000EECF0E94DF0B0E94DC0BF8CF20982898A7
:101830002198299822982A9823982B9852985A9858
:1018400053985B983E98469808958098889A819816
:10185000899A84988C9A85988D9A86988E9A87987A
:101860008F9A0895CF93DF9300D00F92CDB7DEB754
:1018700090915003943019F589837B836A8383E0C8
:101880008093E9008FEF9091E800815095FD06C0AC
:1018900095ED9A95F1F700008111F5CF8091E80060
:1018A00085FF0DC050E040E063E070E0CE0101969E
:1018B0000E943A048091E8008E778093E8000F90B0
:1018C0000F900F90DF91CF910895BC0184E00C94AC
:1018D000320CBC0183E00C94320C9C0182E08093BA
:1018E000E9009FEF8091E800915085FD06C085EDED
:1018F0008A95F1F700009111F5CF8091E80085FFFE
:101900000CC050E040E065E070E0C9010E943A047C
:101910008091E8008E778093E8000895CF93DF935D
:10192000EC01809124018823B1F18091E60287FFC8
:1019300032C060E283E08093E9008FEF9091E8008D
:10194000815095FD06C095ED9A95F1F70000811143
:10195000F5CF8091E80085FF1BC08091240170E0E5
:1019600050E040E0811104C050E040E068E070E0E9
:10197000CE010E943A048091E8008E778093E800BF
:1019800080E2FE01AEE2B3E001900D928A95E1F7AC
:10199000DF91CF91089568E081E0CDCFEF92FF9283
:1019A0000F931F93CF93DF930E94D60B0E94D30B0C
:1019B0000E94D00B0E94CD0B88E8E82EF12C8FEF0F
:1019C00090E0F701918380830AE810E0F8019183A9
:1019D0008083CCE8D0E0998388830E94DF0BFFEFFF
:1019E00020E782E0F15020408040E1F700C0000095
:1019F0000E94DC0B9FEFE0E7F2E09150E040F04006
:101A0000E1F700C000000E94D90B2FEF80E792E0C1
:101A1000215080409040E1F700C000000E94D30BAD
:101A2000EFEFF0E722E0E150F0402040E1F700C0A6
:101A300000000E94D00B8FEF90E7E2E081509040D1
:101A4000E040E1F700C000000E94CD0B8091D4027D
:101A50008770FFEF8F9FC00111249595879595950D
:101A600087959927F70191838083F801918380837B
:101A7000998388830E94D60B0E94D30B0E94D00BBF
:101A8000DF91CF911F910F91FF90EF900C94CD0BB0
:101A9000CF9384E090E00E94BD2AC82F81E290E0BD
:101AA0000E94BD2A982F8C2FCF910895CF92DF925C
:101AB000EF92FF926B017C010E94D808B701A6014A
:101AC00088E090E0FF90EF90DF90CF900C94E32AB5
:101AD00080910603882319F081508093060360915A
:101AE00002037091030380910403909105030C9409
:101AF000560D80910603833018F48F5F80930603A0
:101B00006091020370910303809104039091050397
:101B10000C94560DE2E0F3E083E0808311828FEFB6
:101B200082838383148260817181828193810C948A
:101B3000560D6FEE7EEF90E080E00E94EF2A60E0AD
:101B400082E090E00E94D12A60E083E090E00E9471
:101B5000D12A1092C9021092CA021092CB0210929E
:101B6000CC0260E084E090E00E94D12A60E081E253
:101B700090E00E94D12A60E085E090E00E94D12AA6
:101B800060E086E090E00E94D12A6FEF87E090E06D
:101B90000E94D12A40E050E0BA0188E090E00E9423
:101BA000E32A60E08DE090E00E94D12A40E050E01E
:101BB000BA0188E190E00E94E32A60E087E190E0CA
:101BC0000E94D12A40E050E0BA018CE190E00E94EE
:101BD000E32A60E080E290E00E94D12A40E050E0F9
:101BE000BA0188E190E00E94E32A1092D402109298
:101BF000D5021092D6021092D70284E080618093C1
:101C0000D4024091D4025091D5026091D6027091D5
:101C1000D7028FE090E00E94E32A40E050E0BA0152
:101C200083E190E00C94E32ACF93C82F873070F5BE
:101C30008091180190911901892B89F564E670E073
:101C400080E40E941F289093190180931801892B2A
:101C5000D1F464E670E082E10E947B289093190140
:101C600080931801892B79F481E090E001C0880FFE
:101C7000CA95EAF764E670E080950E947B2890930D
:101C8000190180931801CF910C94CE288A30B9F0B5
:101C900040F4883071F0893079F0209A2898CF91FB
:101CA00008958C3091F070F08D30B9F73E9A4698D7
:101CB000F6CF219A2998F3CF229A2A98F0CF239A27
:101CC0002B98EDCF529A5A98EACF539A5B98E7CF68
:101CD000CF93DF938091020380FD0BC0E9ECF1E02C
:101CE0001182108212821382349652E0E530F50799
:101CF000B9F7C9ECD1E0FE01928120813181892FB1
:101D0000291708F4822F381708F4832F8383381B90
:101D10003183281B2083981B9283349682E0E53020
:101D2000F80751F70E94192864E670E084E80E94E1
:101D30001F2864E670E088810E947B2864E670E0DA
:101D400089810E947B2864E670E08A810E947B285A
:101D500064E670E08B810E947B28249692E0C53077
:101D6000D90739F70E94CE28579A3BB13F772BB15C
:101D700020684FB7F89489EC91E0FC015191CF01B4
:101D800068E02BB9000000C057FF3BB9550F0000B9
:101D900000C000C000C03BB900C06A9591F7F2E0F6
:101DA00085309F0751F74FBF8FE594E00197F1F71A
:101DB00000C00000DF91CF9108958F929F92AF9263
:101DC000BF92CF92DF92EF92FF920F931F93CF9328
:101DD000DF93FC01B280948081E08483C5E0D2E08F
:101DE00009EC11E08BE4A82E88248394EE24EA9475
:101DF000F12C2BE4C22ED12C91101DC01B821A8213
:101E000098014A81698188810E94E70825960C5FC4
:101E10001F4F82E0C035D80779F7DF91CF911F912E
:101E20000F91FF90EF90DF90CF90BF90AF909F9079
:101E30008F900C94680E2B81222309F121502B8363
:101E40003C818A2D821B311101C0822F90910503A4
:101E5000899FC0011124B6010E94EC286A832111D8
:101E600004C0332311F01C82AB8222E02B1540F218
:101E7000809103038883809104038983C1CF0E94EA
:101E80007529823091400CF0BBCF82E08B15C0F4F5
:101E90000E947529B7010E940029888322E02B1532
:101EA00090F40E947529209104032695622F70E01A
:101EB0000E940029280F29831A82AB828C82A0CF2E
:101EC00080910303EACF20910403F5CFEF92FF92B4
:101ED0001F93CF93DF93EC0189ECE82E81E0F82E7D
:101EE00010E08C8197014091050360910403810FFC
:101EF0000E94E7081F5E84E0E80EF11C1F3F89F78F
:101F00000E94680E9A818C8190FF08C08F5F8C833D
:101F1000DF91CF911F91FF90EF9008958150F7CFFF
:101F2000BF92CF92DF92EF92FF920F931F93CF93C6
:101F3000DF93FC018281DD24DA9480FD02C0DD2480
:101F4000D39409EC11E0D0E0C0E02FE0B22EF8010C
:101F5000118210821282138294E0E92EF12CC12C9E
:101F60008091C6018C0D80310CF43DC06B2D0E9418
:101F7000DE28892F082E000C990B8C179D0791F4F1
:101F8000809105038E9DA0018F9D500D11245595C4
:101F900047955595479598016091040380910303F7
:101FA0000E94E708CD0CF1E0EF1AF108C9F621967E
:101FB0000C5F1F4FCF30D10551F60E94680E809103
:101FC000C60191E0D91215C0811111C08EE0809335
:101FD000C601DF91CF911F910F91FF90EF90DF909D
:101FE000CF90BF90089587FFC5CF815FC3CF815049
:101FF000EECF90E00196BE010E940029E8CF0F933A
:102000001F93CF93DF93C9ECD1E0FE0111821082C0
:1020100012821382349682E0E530F807B9F710E0B7
:1020200000E08091C701082E000C990B08171907D2
:102030008CF180911601082E000C990B80179107E6
:102040004CF19E01409105036091040380910303CC
:102050000E94E7080F5F1F4F24960F30110509F704
:102060000E94680E809115019091C701980F90937E
:10207000C70120911601280F20931601121614F49F
:102080009E301CF0819580931501DF91CF911F91B7
:102090000F910895198218821A821B82DBCF8F92CA
:1020A0009F92AF92BF92CF92DF92EF92FF920F93E7
:1020B0001F93CF93DF93EC014C81042F10E0980124
:1020C000D8010E94592B9B01AC010E94242B4B018B
:1020D0005C01E0E2F0E0E01BF10BA5E5B0E0AC0153
:1020E0009B010E94242B6B017C019F01DF010E9458
:1020F0001A299B01AC010E942F2B9B01AC01280DDA
:10210000391D4A1D5B1DC701B6010E94372BF22EF7
:10211000822F90E039E23F15D8F143E0249F9001EF
:10212000112435952795122F109599ECC92E91E021
:10213000D92E00E085E5E82EEF188E2D01FD8F2DBC
:102140009601412F609104030E94E7080F5F54E05D
:10215000C50ED11C0F3089F70E94680E9C8181E06A
:10216000992319F0903219F48FEF80931701809121
:102170001701890F8C83DF91CF911F910F91FF90F1
:10218000EF90DF90CF90BF90AF909F908F90089589
:1021900025E530E0A901481B590BCA019A01220F1D
:1021A000331F280F391F37FFBCCF2F5F3F4FB9CFE9
:1021B000EF92FF920F931F93CF93DF938C01C9ECA3
:1021C000D1E0F12CE12CF80194816091040380911D
:1021D0000303F7E0EF16F104FCF49923F9F09E01F4
:1021E000409105030E94E7082FEFE21AF20A2496B5
:1021F0008FE0E816F10439F70E94680EF801848137
:1022000090E00196817099278483DF91CF911F918F
:102210000F91FF90EF900895992309F39E0140E0FC
:10222000E1CF9091020390FF0DC0E9ECF1E08183D2
:10223000608342831382349692E0E530F907B9F760
:102240000C94680E08950F931F93CF93DF9300D0E3
:1022500000D0CDB7DEB78C018091C80181110AC0D2
:102260009E012F5F3F4F4FEF6FEF0E94E7088A817B
:102270008093C801F8016481613069F08091C801E0
:1022800040E0662361F040E0623011F44091C80103
:1022900080E060E004C06091C80140E080E00E94FE
:1022A0001111F801848190E0019663E070E00E94D2
:1022B000002984830F900F900F900F90DF91CF91A2
:1022C0001F910F910895CF93DF9300D000D0CDB729
:1022D000DEB79091020390FF0AC09E012F5F3F4F2F
:1022E0000E94E7084B8169818A810E9411110F9039
:1022F0000F900F900F90DF91CF910895CF93DF93C0
:10230000EC01EC81F0E0E555FD4F4491E2E0F3E0B3
:10231000628181810E9463118C818F5F8C83DF9148
:10232000CF910895CF93DF93EC01E2E0F3E0438196
:1023300062818C810E9463118C818F5F8C83DF911D
:10234000CF9108955F926F927F928F929F92AF92FA
:10235000BF92CF92DF92EF92FF920F931F93CF9392
:10236000DF9300D000D0CDB7DEB7182F762E042F24
:10237000622E9091020390FF29C0E92FE695AE2FBF
:10238000B0E0AF5CBE4F8C91809307039E7F92308C
:1023900089F59E012F5F3F4F812F0E94E7084B81F7
:1023A00069818A810E9411111093030370920403C2
:1023B00000930503662051F06091020370910303BE
:1023C00080910403909105030E94560D0F900F9089
:1023D0000F900F90DF91CF911F910F91FF90EF9091
:1023E000DF90CF90BF90AF909F908F907F906F9035
:1023F0005F900895823019F400910503D5CF86309F
:1024000019F410910303D0CF8930D9F3893161F6E3
:10241000E9518E2F8170582EE695F0E0EA55FD4F78
:10242000A590B490BB2489ECE82E81E0F82ED12C45
:10243000C12C9FE0892E912CC601B4010E94EC288A
:10244000812F511013C0860F9701402F672D0E94D6
:10245000E708CA0CDB1C84E0E80EF11C85E0E816F6
:1024600082E0F80649F70E94680E9ECF861BECCFEB
:10247000E2E0F3E043812CE0421B08F440E021E07D
:10248000628181810C94A211E2E0F3E043812CE0AF
:10249000420F08F44FEF21E0628181810C94A21178
:1024A000E2E0F3E062812FEF621B08F460E021E0DC
:1024B000438181810C94A211E2E0F3E062812FEF6D
:1024C000620F08F46FEF21E0438181810C94A21127
:1024D000E2E0F3E0818121E0438162818C500C9441
:1024E000A211E2E0F3E0818121E043816281845F17
:1024F0000C94A21180E290E090931901809318014E
:102500008091BC0181110EC00E94192881E0809346
:10251000BC012FEF83ED90E3215080409040E1F724
:1025200000C0000064E670E080E40E941F289093E1
:10253000190180931801892B09F04EC064E670E000
:1025400080E00E947B289093190180931801892BC9
:1025500009F042C064E670E080E00E947B2890931E
:10256000190180931801892BB9F564E670E08FE3B7
:102570000E947B289093190180931801892B61F5A3
:102580000E94CE2864E670E080E40E941F289093A9
:10259000190180931801892BF9F464E670E08CE04E
:1025A0000E947B289093190180931801892BA1F434
:1025B00064E670E080E00E947B289093190180938C
:1025C0001801892B49F464E670E08FE30E947B28B0
:1025D00090931901809318010E94CE2880911801D0
:1025E0000895CF93873050F580911801909119018B
:1025F000C0E0892B71F464E670E081E40E941F283A
:102600009093190180931801892B31F0C0E00E944A
:10261000CE288C2FCF91089584E690E00E94AA28BE
:1026200097FF05C09093190180931801EFCFC82F31
:10263000C0951092190110921801E9CFCFB18FB156
:10264000869586958C73C3708C2BC82FC095E1CF6F
:102650001F920F920FB60F9211242F933F934F9317
:102660005F936F937F938F939F93AF93BF93EF93FA
:10267000FF938091E10082FF09C08091E20082FF18
:1026800005C08091E1008B7F8093E1008091DA00AA
:1026900080FF24C08091D80080FF20C08091DA00A4
:1026A0008E7F8093DA008091D90080FF9BC080E10B
:1026B00089BD82E189BD09B400FEFDCF81E0809330
:1026C000500380912B03811109C00E94EA030E94EC
:1026D000B7048091E20084608093E2008091E10081
:1026E00080FF17C08091E20080FF13C08091E2005C
:1026F0008E7F8093E2008091E20080618093E2000F
:102700008091D80080628093D80019BC85E08093C6
:1027100050038091E10084FF29C08091E20084FF92
:1027200025C080E189BD82E189BD89B5982F91706E
:1027300080FFFBCF8091D8008F7D8093D80080915F
:10274000E1008F7E8093E1008091E2008F7E809394
:10275000E2008091E20081608093E2008091510369
:10276000882309F445C084E0809350038091E10000
:1027700083FF27C08091E20083FF23C08091E100A6
:10278000877F8093E10082E0809350031092510391
:102790008091E1008E7F8093E1008091E2008E7F46
:1027A0008093E2008091E20080618093E20042E049
:1027B00060E080E00E9485048091F0008860809352
:1027C000F000FF91EF91BF91AF919F918F917F9119
:1027D0006F915F914F913F912F910F900FBE0F908E
:1027E0001F90189519BC1092500310922B0376CFAE
:1027F0008091E30087FD93E090935003B7CF7894E6
:102800001F921FB61F9211248F939F93AF93BF9374
:102810008091CD029091CE02A091CF02B091D002D2
:102820000196A11DB11D8093CD029093CE02A0937D
:10283000CF02B093D002BF91AF919F918F911F9023
:102840001FBE1F9018952FB7F8948091CD029091DC
:10285000CE02A091CF02B091D0022FBF08950E9466
:1028600023149C019091100380911103982B21F067
:1028700030930E0320930D03909112038091130364
:10288000982B21F030930B0320930A03E091E90287
:10289000F091EA02309731F00480F581E02D8FE06D
:1028A00093E0099408951092C6021092C5020E9406
:1028B000E00785E0EFE0F3E0DF011D928A95E9F79C
:1028C00010920C03109209031092D1020E942F144F
:1028D00090E080E00E94B10890E080E00C949B08BA
:1028E000CF92DF92EF92FF92CF93DF9300D000D090
:1028F000CDB7DEB70E94E20B6B017C01809128030B
:10290000882321F080912903811115C0C0922403EE
:10291000D0922503E0922603F09227030E945314DD
:102920000F900F900F900F90DF91CF91FF90EF904D
:10293000DF90CF900895198282E08A83C701B601A3
:102940000E948D078B838EEF8C8364E0CE0101960D
:102950000E94D905DBCF0F931F9341E050E060E068
:1029600070E004C0440F551F661F771F8A95D2F789
:10297000CB01BA01609570958095909500912403E4
:1029800010912503209126033091270360237123A2
:10299000822393231F910F910C9470149091C40281
:1029A000809589238093C402282F277071F4282FE3
:1029B000082E000C330B9217130639F08595859578
:1029C00085950E94AB141092C40208950F931F9333
:1029D00041E050E060E070E004C0440F551F661F06
:1029E000771F8A95D2F78091240390912503A091B7
:1029F0002603B09127038A019B01082B192B2A2B50
:102A00003B2BC901B8011F910F910C947014609376
:102A1000C9027093CA028093CB029093CC020C94AB
:102A200053141092C70280912401EEE9F1E088234B
:102A300059F08091E60287FF07C08EE1DF011D9209
:102A40008A95E9F70C94531486E0F8CF1F93CF933F
:102A5000DF93CDB7DEB7AA970FB6F894DEBF0FBEEF
:102A6000CDBF82E593E02091F100FC012193CF01DD
:102A7000F3E08A359F07B9F780915303893009F451
:102A800044C018F5823009F4B9C0833009F46EC02F
:102A9000813031F580915203813A11F58091E8003F
:102AA000877F8093E8008091560390915703892B8C
:102AB00041F560E28EE293E070E00E94770580913C
:102AC000E8008B778093E8000BC08B3009F46BC073
:102AD00008F483C0823409F4A2C0853409F4BCC070
:102AE0008091E80083FF50C280915203909153037C
:102AF0009A3008F049C2E92FF0E0E158F44D0C9407
:102B0000142960E090E080E0D7CF809152038132B9
:102B100039F78091560390915703009711F002976F
:102B2000F9F68091E800877F8093E8008091E800C3
:102B300082FF17C09091F3008091F200029729F470
:102B40008091F1008B7F813021F48091F10080939E
:102B50002D038091E8008B778093E8000E94660443
:102B6000BFCF809150038111E1CFBACF8091520342
:102B7000813A09F0B5CF8091560390915703892B84
:102B800009F0AECF8091E800877F8093E8008091C4
:102B9000E80080FFFCCF809124018093F1008091B8
:102BA000E8008E77D9CF80915203813209F098CF17
:102BB0008091560390915703892B09F091CF809112
:102BC000E800877F8093E8000E94660480915403A8
:102BD000809324010E94111583CF8091520381328A
:102BE00009F07ECF8091E800877F8093E8000E9403
:102BF00066048091550380932C0372CF8091520319
:102C0000813A09F06DCF8091E800877F8093E800DA
:102C10008091E80080FFFCCF80912C03BECF809193
:102C20005203803C09F05CCF80915603909157038A
:102C3000029739F58091540390915503892B09F53A
:102C40008091E800877F8093E8006BE170E08AE67E
:102C500096E00E94180582CF80915203803C09F0D3
:102C60003FCF8091560390915703079751F480917D
:102C7000E800877F8093E80062EB70E088EB95E0E6
:102C8000E8CF8091EB0080628093EB0029CF803801
:102C900099F0823809F078C1809156038F7087309F
:102CA00008F072C18093E9008091EB0085FB8827D2
:102CB00080F91092E90006C080914E0390914F0375
:102CC000911182609091E800977F9093E800809343
:102CD000F1001092F1008091E8008E7751C18823B5
:102CE00009F43FC1823009F04FC180915403811132
:102CF00042C1809156038F702FEF280F263008F0C5
:102D000043C18093E9002091EB0020FF34C1933050
:102D100031F48091EB0080628093EB002CC19091A4
:102D2000EB0090619093EB0021E030E001C0220FB6
:102D30008A95EAF72093EA001092EA008091EB006E
:102D40008860EACF811120C1109154031F778091D0
:102D5000E3008078812B8093E3008091E800877FF7
:102D60008093E8000E9466048091E80080FFFCCF19
:102D70008091E30080688093E30082E0111183E09A
:102D80008093500301C18058823008F0FDC08091CB
:102D90005403909155038C3D23E09207A1F583E005
:102DA0008A838AE289834FB7F894DE01139620E084
:102DB0003EE051E2E32FF0E050935700E49120FF12
:102DC00003C0E295EF703F5FEF708E2F90E0EA3026
:102DD000C0F0C7968D939D932F5F243159F74FBF55
:102DE0008091E800877F8093E8006AE270E0CE017E
:102DF00001960E9477058091E8008B778093E80028
:102E0000C3C0C096E7CF2091560330915703492F96
:102E100055274330510551F1A0F44130510509F4D3
:102E200059C06BE670E086E896E04230510509F043
:102E3000ABC02091E800277F2093E8000E9418058E
:102E4000DACF4132510539F14232510591F14F301B
:102E5000510509F099C0EFE5F7E0649170E08DE568
:102E600097E06115710509F48FC0E3CF9927813090
:102E7000910571F0009731F0029709F085C0E3E009
:102E8000F7E002C0E9E5F7E0649170E0CF01E9CF37
:102E9000E7E2F7E0F9CF2330310508F075C0220FE3
:102EA000331FF901EA56FE4F8081918169E070E09D
:102EB000C0CF2330310508F067C0F901EE0FFF1FC6
:102EC000E057FE4F8081918123573E4FF901608189
:102ED00070E0C7CF62E170E081EF96E0AACF803862
:102EE00009F052C08091E800877F8093E8008091CC
:102EF00051038093F100EFCE811146C0109154032D
:102F0000123008F041C08091E800877F8093E8008C
:102F1000109351030E946604112311F084E005C050
:102F20008091E30087FDFACF81E08093500342E077
:102F300061EC81E00E94850442E061EC82E00E9445
:102F4000850442E261EC83E00E94850442E361EC87
:102F500084E00E94850442E360EC85E00E948504E1
:102F600013C080915403813079F481E0933009F0EB
:102F700080E080934F031092E9008091E800877F02
:102F80008093E8000E9466048091E80083FF0AC0F5
:102F90008091E800877F8093E8008091EB00806259
:102FA0008093EB00AA960FB6F894DEBF0FBECDBF9C
:102FB000DF91CF911F9108951F920F920FB60F923C
:102FC00011242F933F934F935F936F937F938F932E
:102FD0009F93AF93BF93CF93DF93EF93FF93D091E2
:102FE000E900DF708091EC00C82FC17080FDC0E85F
:102FF0001092E9008091F000877F8093F000789430
:103000000E9426151092E9008091F000886080935C
:10301000F000CD2BCF70C093E900FF91EF91DF91CD
:10302000CF91BF91AF919F918F917F916F915F9160
:103030004F913F912F910F900FBE0F901F901895B9
:103040008823B1F19CEF980F913A38F4682F8CE9FE
:1030500091E00E942E070C94E00790E2980F9830C0
:1030600088F4877021E030E0A90102C0440F551FA9
:103070008A95E2F7CA0180959091C70289238093CF
:10308000C702E9CF9BE5980F933020F490E080E0F1
:103090000C94B10898E5980F973120F490E080E007
:1030A0000C949B08803F20F00E94F0050C942F1494
:1030B0000895CF93C82F882309F46EC08CEF8C0F2E
:1030C000813AB8F580912401882311F18091E602BC
:1030D00087FF1EC0EC2FE695E695E695F0E0E456F6
:1030E000FE4F828190E04C2F477021E030E002C01B
:1030F000220F331F4A95E2F782239323892B89F00D
:103100006C2F8CE991E00E942E070E94E00709C015
:10311000EEE9F1E08191C81799F381E0E43AF8070C
:10312000C9F76C2F8CE991E00E945807CF910C945D
:10313000E00780E28C0F883068F4C77021E030E04F
:1031400001C0220FCA95EAF78091C702822B8093B3
:10315000C702ECCFEBE5EC0FE33040F4F0E0E45ACB
:10316000FE4F808190E0CF910C94B108E8E5EC0F20
:10317000E73150F4F0E0EE0FFF1FE15AFE4F80817F
:103180009181CF910C949B08C03F30F08C2F0E940E
:10319000B706CF910C942F14CF9108950F931F93DE
:1031A000CF93DF93C62FD42F022FFC018281882377
:1031B000A1F060935C030E94231490935B038093BF
:1031C0005A03C77081E001C0880FCA95EAF7DF9102
:1031D000CF911F910F910C94910880915C0368131B
:1031E00038C080915A0390915B030E941F07883C6E
:1031F000910578F510E21D0FCD17B9F080E28C0F24
:10320000883040F4C77081E001C0880FCA95EAF7A2
:103210000E948608183048F481E09D2F977001C005
:10322000880F9A95EAF70E949108802F0E945918FA
:10323000802F0E942018183098F4D77081E001C0C8
:10324000880FDA95EAF7DF91CF911F910F910C94D7
:103250008608C77081E001C0880FCA95EAF7F3CFEE
:10326000DF91CF911F910F910895609102036695B0
:1032700070E04BE050E08AE091E00E94B02A892B98
:1032800019F481E0809308030E9423149093FD02B7
:103290008093FC0208959091020390FF36C09170D4
:1032A000811129C0926090930203662351F06091CE
:1032B00002037091030380910403909105030E941F
:1032C000560D60910203669570E04BE050E08AE095
:1032D00091E00E94B02A892BA9F01092080381E0A6
:1032E0008093FF0220E040910503609104038091E8
:1032F00003030C94A2118B3210F09465D4CF880F85
:10330000982BD1CF0E943519EACF089561E00C9433
:103310004B19E2E0F3E080818160808386950C9414
:103320008619809102038695815009F48AE261E052
:103330000C944B198091020386958F5F8B3208F0B5
:1033400081E061E00C944B199091020390FF07C05B
:103350009695981720F0961710F40C949A190C94DF
:1033600086194F925F926F927F928F929F92AF9247
:10337000BF92CF92DF92EF92FF920F931F93CF9362
:10338000DF9300D000D00F92CDB7DEB77C01FC01F7
:1033900083819481892B39F01081D180812F8D21F7
:1033A0008F3F09F0BFC50F900F900F900F900F90B7
:1033B000DF91CF911F910F91FF90EF90DF90CF9011
:1033C000BF90AF909F908F907F906F905F904F9045
:1033D00008950E945D0B082F682F89819A810E94B1
:1033E0004E08E12FF0E026E0D29EE00DF11D112401
:1033F00034E5039FE00DF11D1124EE0FFF1FE5558D
:10340000FC4F0591149180912803882321F080912D
:103410002903811173C50A32FDE51F0709F08AC02F
:10342000F70182818823C9F18091D40291E0980F3D
:103430009770887F953008F4892B8093D40280910F
:10344000D4028770FFEF8F9FC00111249595879557
:1034500095958795992790938900809388009093FC
:103460008B0080938A0090938D0080938C00409114
:10347000D4025091D5026091D6027091D7028FE0AC
:1034800090E00E94E32A60912403709125038091CB
:103490002603909127030E94E20BF7019281992362
:1034A00009F451C510925C030230FCE51F0708F4D3
:1034B000AFC106312CE5120738F098012B5F3C456F
:1034C0002730310508F0A4C10E94480D9093E7020F
:1034D0008093E6020F303CE5130709F47AC108F047
:1034E000F4C008309CE5190709F45DC108F0C9C0B3
:1034F0000430FCE51F0709F44AC108F0AFC00230F0
:103500003CE5130709F43BC103301C4509F43BC1FA
:103510006091E6021091E70284E090E00E94D12AD7
:10352000612F81E290E00E94D12A0E94111567C0AC
:1035300081E1EAC40D322DE5120709F451C008F506
:103540000C328DE5180709F443C0043FFCE51F0762
:1035500009F475C068F5093D3CE5130709F46BC033
:103560000A3D8CE5180709F476C0083D9CE519076B
:1035700009F093CF26E241EE61EEC7010E94CE181A
:103580003EC00E329DE5190709F447C00F32EDE544
:103590001E07D9F6F7018281882389F10E948919D3
:1035A00081E00E94861921E04FEF6FEF8BE125C08B
:1035B000063FECE51E0709F44AC008F444C0073F83
:1035C0002CE5120709F069CF27E245EE66EED5CF6C
:1035D000F7018281882399F081E00E9486190FC04B
:1035E000F7018281882359F00E94891981E00E94A5
:1035F000861921E04FEF6FEF8CEA0E94A2118091B3
:10360000C402877009F4CFCEF7018281882309F4C0
:10361000CACE82E00E94CE14C6CEF70182818823F2
:1036200071F30E94891981E00E94861921E040E827
:103630006FEF86E5E2CF27E245EE65EE9ECF26E20C
:1036400041EE60EE9ACF27E245EE64EE96CF26E299
:1036500041EE62EE92CF28E241E0EFCF8091E602A8
:10366000806106309CE5190709F447C08091E602A5
:10367000886007301C4508F440C08091E6028062F3
:103680003CC00B30FCE51F0709F49BC068F409300F
:103690003CE5130709F48BC00A301C4509F038CF0C
:1036A0008091E6028C6029C08091E6028B7F0D300C
:1036B0009CE5190711F18091E6028D7F0E301C45C3
:1036C000E0F08091E602877F18C00B3FFCE51F0702
:1036D00009F461C060F502313CE5130709F481C0CB
:1036E00078F400319CE5190709F477C08091E6026F
:1036F0008F7B01311C4509F00BCF8093E60208CF88
:103700000431FCE51F0709F47AC008F470C00531E4
:103710001C4509F0FDCE8091E60282FB992790F9C5
:1037200021E0922790FB82F990FB83F9E6CF0E3FD0
:103730008CE5180709F449C070F40C3FECE51E074E
:1037400071F18091E7028E7F0D3F1C4509F0E0CEBC
:103750008093E702DDCE01152DE5120709F44BC079
:1037600060F101301D4509F0D3CE8091E702982F1A
:10377000909591708E7F892B90FB81F9E9CF809194
:10378000E6028160BACF8091E6028260B6CF809176
:10379000E6028460B2CF8091E7028160D9CF809148
:1037A000E7028260D5CF8091E6028064A6CF0E94B6
:1037B00011158091E6028068A0CF8091E7028360B6
:1037C000C7CF8091E6028E7F98CF8091E7028D7FF0
:1037D000BFCF8091E6028F7E90CF8091E6028F7DF1
:1037E0008CCF0E9411158091E6028F7786CF809151
:1037F000E602837F82CF8091E7028C7FA9CF0E946F
:1038000011159091E602892F97FB87F9805875CFA3
:103810008091C7020631ECE51E0709F0A2C38A7A3F
:1038200091E009F490E09093540269E2811165E31C
:103830008CE991E00E9458070E94E007E0CE809159
:10384000020380FF1BC08E7F8093020360910203FE
:103850007091030380910403909105030E94560D1B
:1038600010920803FFEF20E732E0F1502040304093
:10387000E1F700C000000E94680EC1CE0E948919C5
:10388000BECE41E959E16AE979E10E94D308B7CE99
:103890004AE959E161E979E1F8CF48E652E161E7A7
:1038A00072E1F3CF41E752E168E672E1EECF40E525
:1038B00052E16CE572E1E9CF4CE552E160E572E17D
:1038C000E4CF48E352E164E472E1DFCF44E452E143
:1038D00068E372E1DACF48E65DE069E77DE0D5CFE5
:1038E00049E75DE068E67DE0D0CF65E082E00E94D8
:1038F000A41985CE68E086E0FACF6EE089E0F7CFC4
:1039000064E18FE0F4CF67E185E1F1CF88E165CE36
:1039100062E289E1ECCF83E260CE0F3D8CE51807CF
:1039200009F446C00930EDE51E0709F444C001154D
:103930001C4509F047C00E9411152FEF34E38CE0BD
:10394000215030408040E1F700C00000F89481E051
:103950008093E00080E28093D8001092C900EFE1EC
:10396000FEE43197F1F700C000001DBA1092680024
:103970001CBC10BE1FBA10927A0010926E001092FA
:103980006F0010927100109272001092C900109294
:10399000BC0014B817B81AB81DB810BA1092BC0001
:1039A00015B818B81BB81EB811BA0C94003F27CE32
:1039B0000E94990D24CE80912A0391E0892780935B
:1039C0002A031DCEF70100811181992309F43DC01E
:1039D000C8010E945D0BD82E682FC8010E944E08B6
:1039E000B8018D2D0E94C1098C01882EF701A58098
:1039F000A2944FE0A422D280D1101092C6028091EE
:103A0000C402877099F0DD2089F0812F807F803497
:103A100021F080E2800F883048F082E00E94CE14CE
:103A20008091C4028770CC24C3948111C12CB12E23
:103A3000B2943FE0B322FBE0FB1508F440C0EB2D4D
:103A4000F0E0E757F44D0C941429C8010E942508B2
:103A5000D82EC6CF212F2F70A22E107F19F0A2943E
:103A600020EFA222DD20C9F0AA2069F080E2800FB9
:103A7000883010F081100BC08091C702A82AA09254
:103A8000C7020E94E007802F0E94591818C0809139
:103A9000C602A82AA092C602F4CF802F0E94201846
:103AA000AA2069F0A094005E083010F0811046C092
:103AB0008091C702A822A092C7020E94E0072B2D86
:103AC0002850330B2430310510F40E94C708CC2055
:103AD000A9F08091C40280FD11C0F7011282859582
:103AE000859585950E94E614C7010E94B1198091C1
:103AF000C4028595859585950E94AB1485E0F701F4
:103B0000DE01119601900D928A95E1F789819A81E3
:103B10000E9425089A81E981F0E026E0929FE00D5D
:103B2000F11D112434E5839FE00DF11D1124EE0FEA
:103B3000FF1FE555FC4F8591949135CC8091C602CD
:103B4000A822A092C602B9CF312F3F70932E107FCA
:103B5000103219F0929490EF9922882041F081E080
:103B6000881631F1DD2079F1AA2041F18CCFDD20DA
:103B700091F09091C802892D892BA11003C00E9459
:103B800091089DCFE1E0AE12FACF981709F497CFD4
:103B90008093C80294CFA11006C00E94DA07892D35
:103BA0000E9486088CCFF1E0AF1609F488CFF5CFDC
:103BB000DD2031F021E02A1508F481CF892DDFCFF7
:103BC000A1107DCFECCFAA2051F339E383128FC12E
:103BD0008FEF97EEE3E081509040E040E1F700C0C6
:103BE000000085C1812F86958695837061F08130B4
:103BF00009F065CFC8019370D11002C090E080E059
:103C00000E949B085CCFC8019370D11002C090E065
:103C100080E00E94B10853CF802FDD2029F00E9460
:103C2000B7060E942F144BCF0E94F005FACF812FC8
:103C3000837009F066C0D11042CF802F829586959F
:103C40008770880F880F602F6F70462E512C712C53
:103C5000612C082E04C0440C551C661C771C0A9469
:103C6000D2F740E050E0BA0104FF0FC04FE050E04F
:103C700060E070E004C0440F551F661F771F8A95EF
:103C8000D2F74095509560957095812F86958695D1
:103C90008370823019F1D8F40091C9021091CA02E0
:103CA0002091CB023091CC02813069F04429552912
:103CB00066297729CB01BA016023712382239323DC
:103CC0000E940715FCCE402A512A622A732ACB0192
:103CD000BA016429752986299729F2CF44295529E3
:103CE000662977290091C9021091CA022091CB025E
:103CF0003091CC02CB01BA0160277127822793272C
:103D0000DFCF8695DD2011F0812F8170882309F4A3
:103D1000D6CE802F829586958770880F880F602F6A
:103D20006F70462E512C712C612C082E04C0440C4F
:103D3000551C661C771C0A94D2F740E050E0BA018B
:103D400004FF0FC04FE050E060E070E004C0440F9B
:103D5000551F661F771F8A95D2F74095509560953D
:103D60007095812F869586958370823019F1D8F4ED
:103D700000912403109125032091260330912703FD
:103D8000813069F04429552966297729CB01BA0188
:103D900060237123822393230E94701490CE402AC3
:103DA000512A622A732ACB01BA016429752986290E
:103DB0009729F2CF442955296629772900912403B0
:103DC000109125032091260330912703CB01BA01DE
:103DD0006027712782279327DFCF1F70DD2029F00E
:103DE000812F0E94E614802FCACE802F0E94860861
:103DF000812F0E94AB1463CE802FF2EF8F1609F44F
:103E00004EC0F81578F020EF821619F131EF8316C5
:103E100009F43DC0DD2009F465C0A11034CE812F26
:103E20008F713AC093EF891609F43EC0E4EF8E1209
:103E3000F1CFDD2009F44BC01F71812F0E94E614E1
:103E400028E0129FC001112483608093C402812F57
:103E500023C0DD20B9F0A11032CE1F7161E070E007
:103E600080E090E004C0660F771F881F991F1A95A5
:103E7000D2F700912403109125032091260330915D
:103E80002703A6CFF1E0FA1508F419CEE6CF812F6B
:103E90008F71DD2009F4ADCF0E94E61410CE812F82
:103EA0008F71DD20C9F3A5CF60E070E0CB01DD208C
:103EB00009F472CF1F7161E070E080E090E004C00F
:103EC000660F771F881F991F1A95D2F765CF81E07B
:103ED0000E94CE1431E03A1508F0F1CD82E00E9444
:103EE000CE14EDCDAA2039F0893309F471CE802F9C
:103EF0000E942018E4CD812F8F717BCF1982F701AA
:103F00008281811115CB82E18A83F70180818B83C5
:103F100081818C838EEF8D8365E0CE0101960E94B6
:103F2000D90579CA85E0DE01119601900D928A9536
:103F3000E1F7F701228189819A8121114ACA0E9401
:103F40002508082F4ECA06311C4509F03BCD80914B
:103F5000540269E2811165E38CE991E00E942E0729
:103F60006BCC8272F801E35CFC45E431F10508F0AA
:103F7000D4CCEB56F44D0C9414291F93CF93DF93BC
:103F800080915A02807FA9F480915702882389F09A
:103F900080918C02D0915B02609155027091560223
:103FA000A0915802B0915902C62FC72316E0D8132A
:103FB00004C0DF91CF911F91089590E0109711F008
:103FC000CF3F19F401968770F2CF189F9001199F87
:103FD000300D1124F901E45AFD4F41814713F2CF0E
:103FE00040814613EFCF42814111ECCF4381548190
:103FF0004A1B5B0B483C510528F780915A028F7091
:10400000806180935A02F901EF59FD4F80818F70D2
:104010008061808385E592E00E94B119DF91CF91A4
:104020001F910C947C08AF92BF92CF92DF92EF92D7
:10403000FF920F931F93CF93DF93CDB7DEB76197B6
:104040000FB6F894DEBF0FBECDBF8C0185E0F8013E
:10405000DE011D9601900D928A95E1F7F8018081AD
:104060009181E28025E5A22E22E0B22E60915802D5
:10407000709159026115710509F43EC130915502E4
:1040800040915602232F24232F3F09F435C1C380CA
:10409000D480F0905702F601E61BF70BFF2009F4DD
:1040A000FBC020915A02522F507FE83CF10508F0E6
:1040B000BBC0511178C0FE2C491321C038131FC05A
:1040C000E1101DC02F70206120935A02C5010E948B
:1040D000B11980915A02F80185838F2D61960FB630
:1040E000F894DEBF0FBECDBFDF91CF911F910F912E
:1040F000FF90EF90DF90CF90BF90AF900895CD28C4
:1041000029F0282F29232F3F09F014C120E0F22F96
:10411000F170DF2E20FF3DC020918C0240915B02A8
:1041200056E0241315C08D879E878D859E850E943D
:104130009F0B292F22952F702230F8F0243020F584
:104140009F70F9F0F8019581907FD9F4D12C1FC0B0
:1041500030E0529FF001539FF00D1124E45AFD4FBF
:104160006181961306C06081861303C06281E612E6
:1041700010C02F5F3F4F2770D4CF9F7011F088235E
:1041800029F3805E883010F3C8010E94B119FD2C1C
:10419000A4CFEE2009F4A1CF80915A0281608093D0
:1041A0005A02F12C9ACF491312C0381310C0E110F3
:1041B0000EC0F8012583C8010E94B11986E0F801FC
:1041C000A5E5B2E001900D928A95E1F786CF8D8743
:1041D0009E878D859E850E94A90B882309F1EE207C
:1041E000F9F080915A02803270F02091550230919E
:1041F000560238872F831986DB86CA868C87CE01C4
:1042000007960E94B11986E0F801A5E5B2E0019099
:104210000D928A95E1F70E94BD1FFF24F3945DCFB4
:10422000C8010E94B119F9CF51110AC085E592E089
:104230000E94B11986E0F50111928A95E9F7B1CF94
:1042400049130FC038130DC0E1100BC0F8012583CE
:10425000C8010E94B11986E0F50111928A95E9F72B
:104260003CCF8D879E878D859E850E94A90B8823D4
:10427000B9F2EE20A9F280915A02803220F2209108
:104280005502309156023A8329831B82DD82CC820B
:104290008E83CE010196B5CFE83CF105E0F6FE2C09
:1042A000EE2009F4BDCF491316C0381314C0809115
:1042B0005A0280FD83CF982F907F09F47FCFF801B9
:1042C0008583903F09F477CF982F907F905F8F7010
:1042D000892B858370CF8D879E878D859E850E94D3
:1042E000A90B811190CF80915A02816080935A026C
:1042F000C8010E94B119F1CEEE2009F491CF8D874B
:104300009E878D859E850E94A90BF82E882309F42F
:1043100087CF86E0F801A5E5B2E001900D928A957D
:10432000E1F780915502909156020E949F0B0E94E6
:10433000BD1FD3CE21E02E25EACE1F93CF93DF936E
:10434000CDB7DEB767970FB6F894DEBF0FBECDBF0F
:104350004B8B5C8B6D8B7E8B8F8B1A8A198A85E0D9
:10436000FE017396DE011D9601900D928A95E1F78C
:1043700086E0FE013D96DE01179601900D928A952A
:10438000E1F7CE0107960E941320811112C086E04A
:10439000FE013796DE01119601900D928A95E1F7A4
:1043A0008A859B85892B29F08F81988589238F3F6A
:1043B000B1F516E080918C0290915B0289131DC0CB
:1043C00067960FB6F894DEBF0FBECDBFDF91CF91D9
:1043D0001F91089596E0929FD001939FB00D1124F4
:1043E000A45ABD4FFE01319601900D929A95E1F7C6
:1043F00080935B020E947C08DCCF819FC001112466
:10440000845A9D4F0E9413208823D1F280918C0200
:1044100090E001968770992780938C02CBCF2091F2
:104420005B0230E0C90101968770992740918C02A8
:104430004817190679F60E94111510925B02109226
:104440008C0286E0E5E5F2E0DF011D928A95E9F74E
:10445000B0CF8F929F92BF92CF92DF92EF92FF9256
:104460000F931F93CF93DF938091180190911901BF
:10447000892B91F08091BD018F5F8093BD018111E7
:104480000BC00E947A1290E090931901809318015A
:10449000892B11F40E94CE0C28ED822E22E0922E60
:1044A000740110E000E097E0C92EC00E802F0E943A
:1044B000140E8C2D0E94140E802F0E94F112E70121
:1044C00099917E01D12C891729F0FE0131978083C3
:1044D000DD24D3948C2D0E94F112F7019681891767
:1044E00009F47AC0868381E08D29182B0E94160C6E
:1044F0000F5F0730C1F60E9423146091BF017091D5
:10450000C0019093C0018093BF012091BE0130E0B3
:10451000261B370B820F931F6BEF70E00E94EC2875
:10452000E82E392F082F8093BE01F090C201FF20A2
:1045300009F4A3C01092C201E091D202F091D3021B
:10454000AF01425F5F4F20E08BEFB82E6BEF70E062
:10455000A191AB3F99F0CA2ED12C8E2D932F0A1723
:10456000E8F18C199D09092E000CAA0BBB0B4E9784
:10457000A105B105C8F1DF011197BC92E417F50759
:1045800039F72093C201111102C0211178C0109295
:10459000C101A091D202B091D3029091C201EEEE7E
:1045A000F2E080E03191E40129914E01321751F09F
:1045B0003C913B3FD9F40C93AF0141505109EA01C2
:1045C000288391E01196D2E0EC3FFD0759F79093D4
:1045D000C2018093C10157C080E086CFDB01AC19D6
:1045E000BD098A0F9B1FBFCF2F2DC8CF81E0EACF17
:1045F0009170892B09F458C08091C4019091C50134
:104600008130984780F010922A03609124037091C2
:10461000250380912603909127030E94E20B1092BC
:10462000C5011092C4018091C4019091C501019609
:104630009093C5018093C401812FDF91CF911F9189
:104640000F91FF90EF90DF90CF90BF909F908F9051
:1046500008950E94DC0B2EC0892B71F31092C501C6
:104660001092C40160912403709125038091260368
:10467000909127030E94E20BDFCF111188CF809128
:10468000C101811184CF8091C4019091C501209115
:104690002A03222309F3009709F0AACF0E94D30B23
:1046A0000E94D00B0E94CD0BC091C301CC2389F294
:1046B0000E94D00B81E0C827C093C3019DCFCDB726
:1046C000DEB7C955D1090FB6F894DEBF0FBECDBF16
:1046D00084B7877F84BF0FB6F894A8958091600057
:1046E000886180936000109260000FBE80E890E0C7
:1046F0000FB6F89480936100909361000FBE85B768
:10470000806885BF85B7806885BF0E94EA030E94E4
:10471000B7048091E20084608093E20078948091F5
:1047200050038823A1F01091E9001F709091EC00D4
:10473000892F817090FD80E8182B1092E9008091FC
:10474000E80083FD0E9426151F701093E90082E0A7
:1047500084BD93E095BD9AEF97BD80936E000E9453
:104760007A1290E090931901809318010E94160C20
:104770000E94250CE8EDF2E02EEE622E22E0722E71
:10478000D30111921D9222E0E63EF207D1F78EE0AE
:1047900090E00E9485298093D2029093D302FC017D
:1047A0000E962BEF21938E179F07E1F790E080E0A4
:1047B0000E94CB2A8F3E9E4F11F00E94990D89EAEC
:1047C0008093800089E08093810024982C983F9802
:1047D0008AB18F7C8AB96E98479A8BB180638BB906
:1047E000769A8FE090E00E94C52A6093D40270937D
:1047F000D5028093D6029093D70267708FEF689F9F
:10480000B001112475956795759567957727709315
:1048100089006093880070938B0060938A00709386
:104820008D0060938C000E94CE0C90E080E00E948E
:10483000CB2A8F3E9E4F11F00E94990D82E090E0AE
:104840000E94BD2A809315030E94480D9093E702B1
:104850008093E60283E090E00E94BD2A682F70E01A
:1048600090E080E00E940715609124037091250379
:1048700080912603909127030E94E20B8091E80229
:10488000811136C090E080E00E94CB2A8F3E9E4F7F
:1048900021F00E94990D0E948A0D88E090E00E940C
:1048A000C52A6093020370930303809304039093DB
:1048B00005036E7F71F40E948A0D88E090E00E94EB
:1048C000C52A6093020370930303809304039093BB
:1048D00005030E94D808109208038091020380FF0C
:1048E00004C060E086950E944B1981E08093E80245
:1048F00060912403709125038091260390912703F2
:104900000E94E20B8AE191E09093EA028093E9022F
:1049100018E1C12ED12C0CEFA02E02E0B02E81E4C4
:10492000882E912C8C0E9D1E22E0820E911C80916F
:104930005003853019F5A0E4FA2EBEE0EB2EE60C0C
:104940005524539400E112E180915003853009F41D
:10495000A9C10E9411150E94C7081092ED02809112
:10496000EC02882349F08091020381608093020366
:1049700060E086950E944B190E9435190E942922F9
:10498000E6E1F3E0AEEEB2E010E000E0302F8D9112
:104990002191281709F4EDC190E0FF24F394282712
:1049A000422F4F2109F4E0C161969FAF6197629653
:1049B0003FAF62978F2191E009F490E063969FAF3B
:1049C00063970E9423148160782F65969FAF8EAF06
:1049D000659761964FAD619762965FAD62976396FA
:1049E0006FAD639765968FAD65970E949D21F80125
:1049F000EA5EFC4F8081F826F082809108038823CC
:104A000009F441C080910703E0910203E695E81B99
:104A1000E093FE02823009F0D3C1F0E0EC54FA4F8B
:104A2000E4910E2F10E0FEE7EF2EF1E1FF2E8091D2
:104A3000FF02882389F01092FF020E94231498013C
:104A400020953095820F931F9093FD028093FC0276
:104A500010920103109200038091FC029091FD02DC
:104A60000E941F078017910770F0E091FC02F091FF
:104A7000FD020E0F1F1F1093FD020093FC028CEF2E
:104A800092E0F701099585E0EFE0F3E0DE01119691
:104A900001900D928A95E1F7F0901003E0901103D8
:104AA000109112030091130310921003109211033E
:104AB00010921203109213038F2D8E2909F448C00F
:104AC00080910D0390910E030E941F079C0190910D
:104AD0000C03992309F482C225313105C8F19F3FA7
:104AE00019F09F5F90930C03FF2059F00E949306EA
:104AF0009FEF1F140CF491E0899F802D1124809367
:104B00001003EE2059F00E9493069FEF1E140CF440
:104B100091E0899F802D112480931103309110031F
:104B20003323B1F020911103222391F045EB34039C
:104B3000C0011124992309F4AFC19093100345EBF0
:104B4000240390011124332309F4AAC130931103E3
:104B5000812F802B09F448C080910A0390910B03A8
:104B60000E941F079C0190910903992309F431C207
:104B700025313105C8F19F3F19F09F5F90930903DC
:104B8000112359F00E9473069FEF11160CF491E067
:104B9000899F802D112480931203002359F00E94D5
:104BA00073069FEF10160CF491E0899F802D11245D
:104BB00080931303309112033323B1F02091130338
:104BC000222391F045EB3403C0011124992309F409
:104BD0006BC19093120345EB2403900111243323FE
:104BE00009F466C13093130380911003909111036F
:104BF000892B90911203892B90911303892B11F02B
:104C00000E942F1485E0FE013196AFE0B3E00190E1
:104C10000D928A95E1F70E94C708909114038917B5
:104C200021F00E94C70880931403809150038430C0
:104C300009F07DCE85E08093E9008091E80082FF55
:104C400076CE8091E80090E085FF06C00E940904BE
:104C5000882309F431C191E08091E8008B7780933B
:104C6000E800992309F463CE1981111141C18091A3
:104C70002A03882309F457C110922A0381E0809304
:104C8000290322961FAE229723961FAE23978EEFFD
:104C900024968FAF249763E0CE018F5B9F4F0E94D5
:104CA000D90545CE80915003843009F43DC010925F
:104CB000EB020FB6F894A895C09260000FBEF09278
:104CC0006000109208038091ED02811116C050928D
:104CD000ED0280910203982F91709093EC028E7FE9
:104CE000809302034FEF80E792E041508040904074
:104CF000E1F700C000000E94680E83B7817F8460E6
:104D000083BF83B7816083BF7894889583B78E7F94
:104D100083BF0FB6F894A895809160008861809356
:104D20006000109260000FBE80914F03882309F449
:104D30000BCE0E947A1290E0909319018093180193
:104D40000E94160C0E94250CEEEEF2E01192AE16B7
:104D5000BF06E1F70E942922EEEEF2E08191811177
:104D600022C1EE12FBCFF0CD9F5FFF0C963009F011
:104D700017CE0F5F1F4F0E30110509F007CE8FEFD2
:104D800066968FAF669767968FAF679768961FAEE8
:104D900068970E9423148160782F6A969FAF8EAF28
:104DA0006A9766964FAD669767965FAD6797689608
:104DB0006FAD68976A968FAD6A970E949D211DCE50
:104DC000863059F4F0E0EF54FA4FE4910E2F10E0E2
:104DD000E2E9EE2EE1E1FE2E2ACE893061F4E6957D
:104DE000F0E0E255FA4FE4910E2F10E076E6E72E60
:104DF0007FE0F72E1CCE8F3061F4E695F0E0E555AC
:104E0000FA4FE4910E2F10E060E9E62E6FE0F62EE7
:104E10000ECE853159F4F0E0E855FA4FE4910E2FAB
:104E200010E05FEFE52E5FE0F52E01CE08E210E026
:104E30002FE4E22E20E1F22E883109F4F8CD8332FE
:104E400049F4E6EAF5E00591149143E2E42E41E1EC
:104E5000F42EEDCD04EF11E098EDE92E90E1F92E5E
:104E6000843209F4E4CD853281F48E2F63E00E9410
:104E7000D228E92FF0E0ED55FA4FE4910E2F10E023
:104E80003DEDE32E3EE0F32ED2CD00ED17E085EDB3
:104E9000E82E85E0F82ECBCD81E0809310034FCE35
:104EA00081E08093110354CE81E08093120393CE6E
:104EB00081E08093130398CE00E410E0CE010196C8
:104EC0007C018091E80085FD0AC08091E8008B7725
:104ED0008093E8000E940904882399F3BCCE809156
:104EE000F100F70181937F010150110951F7B3CE11
:104EF0001130C9F422961FAE229723961FAF239735
:104F00008CE0E5E2F1E0D40101900D928A95E1F7A1
:104F10008EEF60968FAF60976FE0CE018F5B9F4FF3
:104F20000E94D90504CD809129038823D1F1123044
:104F300041F01330F9F081E022968FAF229761E0C3
:104F4000ABCE60912403709125038091260390914C
:104F500027030E948D0722961FAE229723961FAF2C
:104F6000239724968FAF24978EEF25968FAF2597A2
:104F700064E092CE8A81813041F0882341F0823012
:104F8000D1F681E08093280302C010922803229674
:104F90001FAE229783E023968FAF2397809128033B
:104FA000E0CF8FEFC9CF09BD19BD09B400FEFDCF19
:104FB0008091D8008F7D8093D8008091E00082603E
:104FC0008093E0008091E00081FDFCCF0E941115EC
:104FD000BBCC2139314008F0D0CD06CE232B09F0CF
:104FE00080CDB6CD1F921FB61F9211248F939F9331
:104FF000AF93BF938091EB02811113C08091CD02DA
:105000009091CE02A091CF02B091D0024196A11D05
:10501000B11D8093CD029093CE02A093CF02B093A6
:10502000D002BF91AF919F918F911F901FBE1F9093
:1050300018951092B9008CE08093B8000895EF9213
:10504000FF920F931F93CF93DF93182FEB011092D2
:10505000BC0084EA8093BC000E9423147C018091F0
:10506000BC0087FF27C08091B900887F883029F075
:105070008091B900887F8031D9F51093BB0084E816
:105080008093BC000E9423148C018091BC0087FF98
:1050900024C02091B900287F90E080E02831B1F051
:1050A00081E090E0203411F490E080E091958195CA
:1050B00091090CC0CF3FDC0791F20E9423148E1996
:1050C0009F098C179D0758F28EEF9FEFDF91CF91CC
:1050D0001F910F91FF90EF900895CF3FDC07A9F249
:1050E0000E942314801B910B8C179D0770F2ECCF4C
:1050F0008FEF9FEFEBCF0F931F93CF93DF93EB01D6
:105100008093BB0084E88093BC000E9423148C0130
:105110008091BC0087FF11C02091B900287F81E0F9
:1051200090E0283211F490E080E09195819591090A
:10513000DF91CF911F910F910895CF3FDC0741F38D
:105140000E942314801B910B8C179D0708F38EEF90
:105150009FEFEECF0F931F93CF93DF93EC0184E883
:105160008093BC000E9423148C018091BC0087FFB7
:1051700008C08091BB0090E0DF91CF911F910F910B
:105180000895CF3FDC0789F30E942314801B910B05
:105190008C179D0750F38EEF9FEFEECF84E980933D
:1051A000BC000895991B79E004C0991F961708F078
:1051B000961B881F7A95C9F78095089587FB082E5E
:1051C000062687FD819567FD61950E94D2280EF421
:1051D000919507FC81950895AA1BBB1B51E107C05F
:1051E000AA1FBB1FA617B70710F0A61BB70B881F77
:1051F000991F5A95A9F780959095BC01CD01089506
:1052000097FB072E16F4009407D077FD09D00E9473
:10521000EC2807FC05D03EF4909581959F4F0895AA
:10522000709561957F4F0895EE0FFF1F0590F491E3
:10523000E02D09940E94592B332312F48A1B9B0BF7
:105240000C9424290E94592BB7FF0895821B930BBD
:1052500008958F929F92AF92BF92CF92DF92EF927A
:10526000FF92CF93DF93EC01688179818A819B81E2
:10527000611571058105910521F464E279ED8BE5F5
:1052800097E02DE133EF41E050E00E94052B49010A
:105290005A019B01AC01A7EAB1E40E94242B6B01E7
:1052A0007C01ACEEB4EFA50194010E94322BDC012D
:1052B000CB018C0D9D1DAE1DBF1DB7FF03C0019717
:1052C000A109B04888839983AA83BB839F77DF9124
:1052D000CF91FF90EF90DF90CF90BF90AF909F90D5
:1052E0008F9008950E942929089580E091E00E94FE
:1052F00029290895B0E0A0E0809300019093010176
:10530000A0930201B093030108950F931F93CF93CD
:10531000DF938230910510F482E090E0E0915F032A
:10532000F091600330E020E0B0E0A0E0309799F425
:105330002115310509F447C0281B390B24303105EC
:10534000C0F58A819B816115710571F1FB01938321
:105350008283FE0111C0408151810281138148176F
:105360005907F8F04817590799F4109761F0129609
:105370000C93129713961C933296CF01DF91CF9125
:105380001F910F91089500935F0310936003F4CF72
:105390002115310519F04217530718F49A01BD0180
:1053A000EF01DF01F801C2CF9093600380935F03A8
:1053B000D0CFFE01E20FF31F819391932250310968
:1053C00039832883DACF20915D0330915E03232B4C
:1053D00041F4209106013091070130935E03209340
:1053E0005D0320910401309105012115310541F43F
:1053F0002DB73EB74091080150910901241B350B90
:1054000040915D0350915E034217530708F0B5CFFA
:10541000241B350B2817390708F4AFCFBC016E5F8A
:105420007F4F2617370708F4A8CF640F751F7093B6
:105430005E0360935D03FA01819391939ECFCF93B6
:10544000DF930097E9F0FC01329713821282C0913A
:105450005F03D0916003DE0130E020E02097A1F4EB
:1054600020813181820F931F20915D0330915E0373
:105470002817390709F067C0F0935E03E0935D03D6
:10548000DF91CF910895DA01AE17BF0708F040C051
:1054900012964D915C9113979D014115510599F715
:1054A000D9011396FC93EE9312974D915D91A40F41
:1054B000B51FEA17FB0779F4808191810296840F6A
:1054C000951FD90111969C938E9382819381139697
:1054D0009C938E931297B0E0A0E08A819B81009705
:1054E000B9F5FE0181919191E80FF91F80915D035B
:1054F00090915E038E179F0719F6109761F5109231
:10550000600310925F03D0935E03C0935D03B8CF36
:10551000B383A28340815181840F951FA817B907D7
:1055200071F44E5F5F4F8D919C911197480F591FF9
:105530005183408312968D919C9193838283211590
:10554000310509F0ADCFF0936003E0935F0398CF8E
:10555000DE01EC01C2CF13961C921E921297D3CF9C
:10556000FC014150504030F001900616D1F73197C0
:10557000CF010895882799270895F999FECF92BD04
:1055800081BDF89A992780B50895A6E1B0E044E07E
:1055900050E00C94F72AA8E1B0E042E050E00C940F
:1055A000F72A262FF999FECF92BD81BDF89A01976F
:1055B00000B4021639F01FBA20BD0FB6F894FA9A5B
:1055C000F99A0FBE08950396272F0E94D22A0E94AF
:1055D000D12A252F0E94D22A242F0C94D22A019658
:1055E000272F0E94D22A0C94D12ADC01CB01FC0186
:1055F000F999FECF06C0F2BDE1BDF89A319600B42C
:105600000D9241505040B8F70895052E97FB1EF4B7
:1056100000940E941C2B57FD07D00E94372B07FCDB
:1056200003D04EF40C941C2B509540953095219549
:105630003F4F4F4F5F4F08959095809570956195BE
:105640007F4F8F4F9F4F08950E94592BA59F900D1C
:10565000B49F900DA49F800D911D11240895B7FF54
:105660000C94242B0E94242B821B930B0895A1E2FF
:105670001A2EAA1BBB1BFD010DC0AA1FBB1FEE1FCC
:10568000FF1FA217B307E407F50720F0A21BB30B17
:10569000E40BF50B661F771F881F991F1A9469F793
:1056A00060957095809590959B01AC01BD01CF01EF
:1056B0000895A29FB001B39FC001A39F700D811DEB
:1056C0001124911DB29F700D811D1124911D08950B
:1056D000F894FFCFB80BB80BC10BC10BC30BC10BB8
:1056E000C10BC10BB80BB80BC80BC10BC10BC80B5E
:1056F000FD0B090C0E0C070C0C0C130C110C4716AF
:105700006F16C4176F16C417A216C316C4176F17E7
:105710007C172A1D2A1DA41DA41DF21D0C1E5F1D31
:105720005F1D171EED1EFC1EFC1E1F1C411C481C8D
:105730004D1C521C571C5C1C611C661C6B1C701C95
:10574000EC1A751C7A1C7D1C801C831C861C881C12
:025750008B1CB0
:105752000100000000006103200001191A1B1C1D3A
:105762001E1F2021220102012000D6058E0C6D0C85
:10577200690C650C015A7142307A2F30724B454EDA
:1057820000000102020202060606090909090909C6
:105792000F0F0F0F0F0F15151518191919191919C0
:1057A200191919192324252525252525818283E206
:1057B20000E900EA00B500B600B700CD008301CCD5
:1057C200008A019201940121022302240225022669
:1057D2000227022A02B300B4006F007000404D6D30
:0C57E20066011901AC009806B106CA0669
:00000001FF
