:100000000C94C3040C94E0040C94E0040C94E004FD
:100010000C94E0040C94E0040C94E0040C94E004D0
:100020000C94E0040C94E0040C948D0F0C94411497
:100030000C942B240C94E0040C94E0040C94E00445
:100040000C94E0040C94E0040C94E0040C94E004A0
:100050000C94E0040C9464100C94E0040C94E00400
:100060000C94E0040C94E0040C94E0040C94E00480
:100070000C94E0040C94E0040C94E0040C94E00470
:100080000C94E0040C94E0040C94E0040C94E00460
:100090000C94E0040C94E0040C94E0040C94E00450
:1000A0000C94E0040C94E0040C94E0040501098035
:1000B000A101850319012AB700150126B700950192
:1000C00075108100C0050C0901A101850419012AE0
:1000D000A002150126A002950175108100C005013E
:1000E0000906A1018505050719E029E71500250185
:1000F0009508750181020507190029EF15002501F2
:1001000095F075018102050819012905950575010C
:100110009102950175039101C005010902A1010930
:1001200001A100050919012905150025019505758D
:10013000018102950175038101050109300931151D
:1001400081257F95027508810609381581257F95DF
:100150000175088106050C0A38021581257F950175
:1001600075088106C0C005010906A101050719E04F
:1001700029E715002501950875018102950175088B
:1001800081010507190029FF150026FF0095067556
:100190000881000508190129059505750191029549
:1001A0000175039101C00000000000000000000084
:1001B000000000000000000000007E0F00D4FFFFE0
:1001C000FFC70000007800000000000000002A2B9C
:1001D00028000000000000000000000000000000F7
:1001E0000029000000002C1E342021222434262760
:1001F000252E362D3738271E1F2021222324252681
:100200003333362E37381F0405060708090A0B0C4E
:100210000D0E0F101112131415161718191A1B1C96
:100220001D2F3130232D350405060708090A0B0C54
:100230000D0E0F101112131415161718191A1B1C76
:100240001D2F3130354C0102E301012B0103E30086
:100250000102E301012C0103E3000102E20102E3D8
:100260000101310103E30103E2000102E201012C7B
:100270000103E2001D08E2002961E10005530000CE
:100280001E00340004413300095D4D001F0036009C
:100290001200140001002A642000370008000D003D
:1002A0002D002C682100130018000E002E004A00BB
:1002B00022001C000C001B0000002D5D210A190803
:1002C0000000060800002E5D220A035300003518C6
:1002D00000002F5D23000900070005000000305DCD
:1002E00024000A000B0010002F004B002500060020
:1002F00017001A0030002800260015001100190010
:1003000001002B0027000F0016421D0001004E00C7
:10031000310038002D78E500045300002900010069
:1003200001000100010000003A001E02010022024B
:100330002E0001003B001F022102230201000100E8
:100340003C002F0226022F000100E3003D00300296
:1003500027023000010001003E0031023500350265
:100360000000010046001901000006010000010024
:100370000100010000000100000001003F00010039
:1003800001000100000001004000150828141501BB
:1003900001000100410007081701070137000100B3
:1003A00042002600050C2000270001004300250222
:1003B0002E0231002E000100440045000100010022
:1003C000010000000100010029650100010000009A
:1003D0000100010001000100095D010001000A00A7
:1003E000F2000B000100F5000100F000F100280010
:1003F0000100F40001000600F300170001000100F5
:1004000001000100010001000000010001000100E5
:1004100000000100000001000100010000000100D7
:100420000000010001000100500001000000010077
:100430000100010051000100A900010001000100BC
:100440005200AC00AA00FA00010001004F00AB000E
:10045000A800F900010001000100010001000100F5
:10046000005C0100AE00010001000000010001007D
:100470000100E100010000001E00140004001D61E5
:10048000095D01001F001A0016001B00E1040100B5
:1004900020000800070006000100010021001500EF
:1004A0000900190001000100220017000A000500E0
:1004B0000000010001000100000001000000010037
:1004C00001000100000001000000010023001C00E9
:1004D0000B00110000000100240018000D001000A6
:1004E0002F00010025000C000E0036003000010036
:1004F000260012000F003700010001002700130042
:100500003300387101000100010031003468E5005A
:100510000100000029002B003961E100E00000002B
:100520001E00140004001D00010001001F001A003D
:1005300016001B000100E200200008000700060072
:1005400001002C002100150009001900E300010042
:10055000220017000A0005000000010046001C00F0
:1005600000001200000001004C001901000006010B
:100570000000010023001C000B001100000001001E
:10058000240018000D0010000100010025000C00DF
:100590000E00360001000100260012000F00370097
:1005A00001000100270013003300380001000100A2
:1005B0002A003100010001000100000000000000DD
:1005C000000000000100000000003400005733620A
:1005D00001000000000036001200140001000000BD
:1005E0000000370008000D002D0006510000130028
:1005F00018000E002E00000000001C000C001B0064
:10060000000000002C042A0000002C6800000000FC
:1006100001002B000000280000000000000009007D
:10062000070005000000000000000A000B00100099
:100630002F0000000000060017001A0030000751CC
:1006400000001500110019000100000000000F005B
:1006500016781D720100000000000000000000007C
:100660000100000001000100010001000100000084
:1006700001003A001E0001000100010001003B00E2
:100680001F0001000100010001003C0020000100EA
:100690000100010001003D002100010001000100F6
:1006A00001003E00220001000000010001000100E5
:1006B0000000010000000100010001000000010035
:1006C0000000010001003F002300010000000100C4
:1006D0000100400024000100010001000100410070
:1006E0002500010001000100010042002600010078
:1006F000010001000100430027000100010001008A
:1007000001000100010001000100000001000100E2
:1007100001000100010000000100010001000100D2
:1007200001000100010001000100010001000100C1
:10073000010001002602010001000100010001008A
:1007400027020100010001000100310235003502DD
:100750000000010001000100000001000000010094
:100760000100010000000100000001000100010083
:1007700050000100000001000100010051000100D3
:100780000100010001000100520001000100010010
:10079000010001004F000100010001000100010003
:1007A0000100010001000100010001000100010041
:1007B000010000000A00000000000306B20008006B
:1007C00001000000A800080002000300A0001400BF
:1007D000030057494E55534200000000000000003E
:1007E00000008400040007002A0044006500760031
:1007F00069006300650049006E00740065007200C6
:100800006600610063006500470055004900440030
:100810007300000050007B003900440042003700A4
:1008200046003100460044002D00370045003700E7
:1008300041002D0034003000300038002D00390018
:100840003300360042002D003600420041003600E1
:1008500043003100390041003300300038006300AC
:100860007D00000000001B0301636F6E6669677501
:1008700072652E6572676F646F782D657A2E636F6F
:100880006D0009026B00040100A0FA0904000001D8
:100890000301010009211101000122400007058127
:1008A0000308000A090401000103010200092111E3
:1008B000010001224D000705820308000A09040215
:1008C000000103000000092111010001226D000751
:1008D00005830320000A0904030002FF000000074B
:1008E00005840340000507050503400005120110BB
:1008F000020000000897327449010001020001164D
:10090000034500720067006F0044006F007800200C
:100910000045005A00000030035A005300410020F7
:100920000054006500630068006E006F006C006F8B
:10093000006700790020004C006100620073002015
:100940000049006E006300000004030904050F392C
:1009500000021C100500DF60DDD88945C74C9CD221
:10096000659D9E648A9F00000306B2004500181032
:10097000050038B60834A909A0478BFDA076881574
:10098000B6650001420011241FBECFEFDAE0DEBFE2
:10099000CDBF11E0A0E0B1E0E2EBFDE402C00590C4
:1009A0000D92A837B107D9F722E0A8E7B1E001C05E
:1009B0001D92A73AB207E1F70E94BD200C94AC2625
:1009C0000C940000E8EDF0E080818E7F808310922F
:1009D000E2001092DA001092E100A0EEB0E08C91FB
:1009E00081608C9380818F77808319BCA7EDB0E004
:1009F0008C918E7F8C9380818F7E80831092710288
:100A000008952091E4003091E50095E6A901209138
:100A1000EC00822F817020FF06C08091E80080FFEB
:100A200006C080E008952091E80022FD1AC0809160
:100A30009602882389F0853089F08091EB0085FD4E
:100A40000FC02091E4003091E50042175307F9F2FE
:100A50009150E1F684E0089582E0089583E00895DE
:100A600081E00895EF92FF920F931F93CF937C0143
:100A70008B010E940105C82F882371F08C2FCF9124
:100A80001F910F91FF90EF900895F70181917F01E1
:100A90008093F100015011090115110579F380913E
:100AA000E80085FDF2CF8091E8008E778093E80022
:100AB0000E940105882381F3C82FE0CF809198021E
:100AC00087FF13C08091E80082FF06C08091E80094
:100AD0008B778093E80004C0809196028111F2CF59
:100AE0000895809196028823D9F38091E80080FFD1
:100AF000F8CF8091E8008E77ECCF982F9093E900A3
:100B0000242F762F50E0891731F07091EC0020915E
:100B1000ED005091F00021FD07C09F5F973071F705
:100B20008093E90081E008953091EB003E7F30939F
:100B3000EB003091ED003D7F3093ED003091EB0004
:100B400031603093EB007093EC002093ED005093F4
:100B5000F0002091EE0027FDE0CF80E00895CF92D5
:100B6000DF92EF92FF920F931F93CF93DF93C8ED25
:100B7000D0E088818F7E8883E7EDF0E0808181601E
:100B8000808384E082BF81E08093710288818E7FC0
:100B9000888302EE10E0F80110821092DA0081EEF4
:100BA000C82ED12CF601108288818F7788838881A6
:100BB0008068888388818F7D888319BC1092960213
:100BC00010929702109295021092940290EEE92EE4
:100BD000F12CF70180818B7F8083888181608883FD
:100BE00042E060E080E00E947D05F60180818E7F1A
:100BF0008083F80180818160808380818860808328
:100C0000F70180818E7F8083888180618883DF9176
:100C1000CF911F910F91FF90EF90DF90CF900895AB
:100C2000FC0180919E0290919F0286179707A0F089
:100C30006115710529F48091E8008E778093E800B2
:100C400090E06115710551F4911108C08091E800A0
:100C500082FF35C080E00895BC01F2CF80919602FA
:100C60008823C9F18530C9F18091E80083FD31C046
:100C70008091E80082FDEACF8091E80080FFE1CF1B
:100C80008091F3002091F200382F6115710519F061
:100C90002830310558F091E02830310509F090E016
:100CA0008091E8008E778093E800CBCF8491809389
:100CB000F1003196615071092F5F3F4FE6CF80916F
:100CC0009602882341F0853041F08091E80083FF4F
:100CD000BDCF81E0089582E0089583E00895FC018E
:100CE00080919E0290919F0286179707A0F0611550
:100CF000710529F49091E8009E779093E80090E0C8
:100D00006115710551F4911108C08091E80082FFCE
:100D100034C080E00895BC01F2CF80919602882310
:100D2000C1F18530C1F18091E80083FD30C0809130
:100D3000E80082FDEACF8091E80080FFE1CF80915A
:100D4000F3002091F200382F6115710519F0283059
:100D5000310558F091E02830310509F090E02091FC
:100D6000E8002E772093E800CBCF81918093F100AB
:100D7000615071092F5F3F4FE7CF80919602882322
:100D800041F0853041F08091E80083FFBECF81E0E3
:100D9000089582E0089583E0089580917302089594
:100DA00020919602243091F42093E90070E050E005
:100DB00040E00E943205882321F010926F021092C9
:100DC00070028091E8008E778093E80008959091FA
:100DD0005602803F59F48091570287FF0DC0109250
:100DE000570291110BC01092520208C0813F81F44A
:100DF0008091570218169CF3992381F08091580234
:100E000090915902892B09F064C010924F02089505
:100E1000823F49F497FFF0CF10925602809157021B
:100E20008111ECCFE0CF833F19F41916ACF3E4CF76
:100E300020915802893F29F41216F4F610925802B4
:100E4000DBCF8A3F19F427FFD7CFF8CF2091590283
:100E50008B3F29F427FFD0CF10925902CDCF8C3F82
:100E600019F41216CCF3C8CF843F31F480915502A7
:100E70008E7F80935502C0CF853F21F4809155022B
:100E80008D7FF7CF863F21F4809155028B7FF1CF84
:100E9000873F21F480915502877FEBCF883F21F473
:100EA000809155028F7EE5CF8D3F31F480912702EE
:100EB0008E7F80932702A0CF8E3F21F4809127025E
:100EC0008D7FF7CF8F3F09F097CF809127028B7FDF
:100ED000F0CF08958091270280FD1AC081FD14C0D3
:100EE00082FD14C080914F02882391F08C3370F4FE
:100EF00027E0829FC00111246CE370E00E941F254F
:100F0000862F672B29F0089583E0089587E00895E0
:100F100081E008958091270280FD16C081FD16C0F2
:100F200082FD18C080915202882391F08C3390F496
:100F300023E2829FC00111246CE370E00E941F2510
:100F4000862F672B49F0089588E0089581E1089580
:100F500085E0089583E2089581E00895803F31F4AB
:100F60000E948A078195809357020895813F19F462
:100F70000E948A07F8CF823F31F40E948A07819548
:100F8000809356020895833F19F40E948A07F8CF90
:100F9000893F29F40E946A078093580208958A3F86
:100FA00021F40E946A078195F7CF8B3F31F40E94AC
:100FB0006A0781958093590208958C3F19F40E9425
:100FC0006A07F8CF843F31F48091550281608093A5
:100FD00055020895853F21F4809155028260F7CF34
:100FE000863F21F4809155028460F1CF873F21F440
:100FF000809155028860EBCF883F21F480915502A3
:101000008061E5CF8D3F31F480912702816080932C
:10101000270208958E3F21F4809127028260F7CF46
:101020008F3FB9F7809127028460F1CF9C014FB7C1
:10103000F8948091230290912402A0912502B0910E
:1010400026024FBF821B930B089520912A01222371
:10105000C9F020913C0227FF15C0E62FE695E695E2
:10106000E695EE31D8F4E80FF92FF11D677021E015
:1010700030E001C0220F6A95EAF72095828128238B
:1010800022830895FC01329608962191621303C0D1
:10109000DF0111971C92E817F907B9F7089520911D
:1010A0002A012223C1F020913C0227FF14C0E62F21
:1010B000E695E695E695EE31F8F4E80FF92FF11D87
:1010C000677021E030E001C0220F6A95EAF7828163
:1010D000822B82830895FC0132962FEF30E04191FC
:1010E000641751F02F3F19F4411101C0232F3F5FC6
:1010F0003630A9F72F3F09F40895820F911D27FD7F
:101100009A95FC0162830895CF92DF92EF92FF924D
:101110006C01EE24FF2420E0C114D104E104F104A9
:1011200019F0C701B60120E1C72ED82EE92EFF2401
:10113000C114D104E104F10419F0285FC701B6011C
:101140006B017C0154E0F694E794D794C7945A95C8
:10115000D1F7C114D104E104F10419F02C5FC701E7
:10116000B6016B017C0142E0F694E794D794C794F2
:101170004A95D1F7C114D104E104F10419F02E5FAE
:10118000C701B6019695879577956795672B682B6C
:10119000692B09F02F5F822FFF90EF90DF90CF90A7
:1011A000089580911E02811110921E02089580956B
:1011B00090911D02982390931D02089580911D0225
:1011C00090911C02892B90911B02892B80937801AE
:1011D00090911E029923A1F0892B80937801809130
:1011E0002A01882341F180913C0287FF24C08EE1CF
:1011F000EAE7F1E090E0815000F591110E94D108FA
:10120000E0913E02F0913F023097E1F080912A0197
:10121000882359F080913C0287FF07C080917801B4
:101220008093790185E0809378010280F381E02D3D
:1012300088E791E0099486E0DBCF21912223D9F25F
:101240009F5FD9CF0895E92FEE0FE90FEE0F8E0FB4
:10125000982F977086958695869525E0829FF00158
:101260001124ED51FE4F50E040E080E0219130E04C
:10127000092E02C0369527950A94E2F7217033278C
:10128000042E01C0220F0A94EAF7822B4F5F5F4FB2
:101290004530510559F70895E92FEE0FE90FEE0F8C
:1012A0008E0F982F977041E001C0440F9A95EAF78E
:1012B00086958695869595E0899FF0011124ED51DC
:1012C000FE4F30E020E070E05191DF011197CB013B
:1012D000022E02C0969587950A94E2F78170819557
:1012E0008527842385278C932F5F3F4F2530310539
:1012F00059F708958091E2019091B101981301C0CE
:1013000008958F5F8770FACF882321F00E94D70855
:101310000C94DE080895882339F090911D02982BD3
:1013200090931D020C94DE0808952091A60130913F
:10133000A7012817390771F09093A7018093A601A0
:10134000E0913E02F0913F02309721F00084F18558
:10135000E02D099408952091A4013091A50128174A
:10136000390771F09093A5018093A401E0913E02AA
:10137000F0913F02309721F00680F781E02D09942B
:101380000895E0913E02F0913F02309721F00190E4
:10139000F081E02D099480E00895CF93DF93EC0174
:1013A00081E0898B80911D029F81892B80931D0292
:1013B00080911C029885892B80931C020E94DE0874
:1013C000EA81FB81309739F06C897D89CE010696E0
:1013D000DF91CF910994DF91CF910895EF92FF9221
:1013E0000F931F93CF93DF93EC018A85811139C04E
:1013F000EB80FC8087E5F81A26E12E9DC0012F9D29
:10140000900D1124DC01AA5FBE4F1496ED91FC9162
:101410001597309731F054966D917C91845F9E4F73
:10142000099586E18E9D80018F9D100D11240A5F24
:101430001E4FF80187810E94D708F8018085982FF8
:10144000909580911C02892380931C020E94DE08E3
:10145000188219861B861E821D821092A901109285
:10146000A801DF91CF911F910F91FF90EF90089508
:1014700090913C0292FF06C0282F28712830F9F481
:10148000877F846093FF06C0282F28712831F1F4EC
:10149000877E846120913D0220FF06C0382F38717D
:1014A0003830D9F4877F816021FF06C0282F28714A
:1014B0002831D1F4877E816194FD877E0895282F9D
:1014C00024712430F9F68B7F8860DCCF282F2471BB
:1014D000243101F78B7E8861DDCF382F31713130B7
:1014E00019F78E7F8860E0CF282F2171213121F7F5
:1014F0008E7E8861E1CFCF93DF93972F70E026E057
:10150000929F600D711D1124FB0134E5839FE00D56
:10151000F11D1124EE0FFF1FEC58FD4FC591D49122
:10152000CE01C238D105B9F1E8F5C133D10509F4CE
:1015300099C050F5C932D10509F48DC0CA32D10520
:1015400009F497C0C11521E5D20708F0BFC0C11545
:1015500030E5D30708F016C1C83ED10508F09DC09C
:10156000C03ED10568F5C83AD10508F089C0C53A32
:10157000D10508F0FFC0C130D10511F1209709F461
:1015800043C02497E8F440C0C533D10509F45CC0DA
:10159000C933D105B9F620913C02237089F080EE61
:1015A00090E00EC0C33ED10591F168F4C03ED10574
:1015B000F9F0C23ED10531F620913C0222FD20C057
:1015C000DF91CF910895C63ED10561F1C73ED105A7
:1015D00081F1C43ED10509F0B5CF20913D0221FF34
:1015E000EFCF80913C0284FD0FC087EE90E0E8CF02
:1015F00020913C0220FD12C130913D0230FFE0CF2E
:1016000083EE90E024FFDCCF90E080E0D9CF209102
:101610003C0222FD06C130913D0230FDC0CF24FFC7
:10162000CFCFF2CF20913C0223FFCACF24FDECCFD5
:10163000DCCF20913C0223FDF7C030913D0231FF09
:10164000EECF84EE90E0BCCF20913C0225FFB8CFD6
:1016500089E290E0B5CF20913C0225FFB1CF85E330
:1016600090E0AECF20913C0226FFAACF8AE290E024
:10167000A7CF20913C0226FFA3CF81E390E0A0CF2B
:10168000CF3BD10508F6C85AD0E0CC0FDD1FC65CB1
:10169000DE4F88819981946493CFC11520E2D207EF
:1016A00060F4C11531E0D30708F08ACFCE01906510
:1016B000C03FD10508F084CFA7CFC11580E4D8077B
:1016C00008F4A2CFCE019F70906A7ACFC11595E53C
:1016D000D90710F5C11524E5D20708F088C0C11557
:1016E00033E5D30708F06FC0C11582E5D80708F4C9
:1016F00065C09E012370332781E090E002C0880F0F
:10170000991F2A95E2F7C695C69520E2C29FE0018F
:1017100011248C2B9D2B50C0C11599E5D907A0F43D
:10172000C11528E5D20708F067C0C11536E5D30713
:1017300008F06ACF8C2F0E94380A90E0982F8827F3
:1017400088279F7190623CCFC1158AE5D80708F4BD
:1017500058C0CE0190568115904208F055CF8D2F7C
:101760008F710E94380A90E0982F882788279F71F0
:101770008C2BE8CFC55AD0E0C95CDE4F888190E061
:1017800090641ECF9E01E4E036952795EA95E1F737
:1017900023708C2F86958695837030E2839FC001DD
:1017A0001124922BC37021E030E002C0220F331FBE
:1017B000CA95E2F7822B932B9C6802CF9C2F882737
:1017C000816F906AFDCE9E012370332781E090E007
:1017D00002C0880F991F2A95E2F7C695C69530E298
:1017E000C39FE00111248C2B9D2B9A68E9CE9C2F7E
:1017F0008827846F906AE4CE9C2F8827806F906A38
:10180000DFCE8C2F8F700E94380A34E0D695C795B2
:101810003A95E1F7CF709C2F9069D2CE89E390E0A2
:10182000CFCE82EE90E0CCCE86EE90E0C9CEBF92D5
:10183000CF92DF92EF92FF920F931F93CF93DF939C
:101840008C01C0906A02D0906B02E0906C02F09024
:101850006D0280911F0290912002A0912102B0910F
:101860002202C82AD92AEA2AFB2ACFE1D0E0BC2EDC
:10187000D701C6010C2E04C0B695A79597958795FC
:101880000A94D2F780FD0EC0219788F7B12C8B2DDA
:10189000DF91CF911F910F91FF90EF90DF90CF904C
:1018A000BF900895B8018C2F0E947B0A019761F3C5
:1018B000EECFCF93DF93EC010E94170CBE01DF91B6
:1018C000CF910C947B0A0E94590C292F2F7092956E
:1018D0009F7092509E3078F4E92FF0E0E255F94D78
:1018E0000C943325803F19F020F4883E20F481E0E9
:1018F0000895843FE1F380E00895883EC0F3813F7E
:10190000D1F7F5CF822F86958695869508952798ED
:101910002F98089526982E98089525982D98089523
:1019200056985E980895279A2F9A0895269A2E9A87
:101930000895259A2D9A0895CF92DF92EF92FF9203
:10194000CF936B017C010E948408C82F0E94900CE9
:101950000E948D0C0E948A0C0E94870CC150C730D7
:1019600040F4EC2FF0E0E454F94D0C9433250E9440
:10197000990CC701B601CF91FF90EF90DF90CF9007
:1019800008950E94990C0E94960CF3CF0E94990C26
:101990000E94930CEECF0E94990C0E94960CF8CFF7
:1019A000209828982198299822982A9823982B984B
:1019B00052985A9853985B983E9846980895809804
:1019C000889A8198899A84988C9A85988D9A869815
:1019D0008E9A87988F9A0895CF9384E090E00E9422
:1019E0003925C82F81E290E00E943925982F8C2F4D
:1019F000CF910895CF93DF9300D00F92CDB7DEB78C
:101A000090919602943019F589837B836A8383E0F1
:101A10008093E9008FEF9091E800815095FD06C01A
:101A200095ED9A95F1F700008111F5CF8091E800CE
:101A300085FF0DC050E040E063E070E0CE0101960C
:101A40000E9432058091E8008E778093E8000F9025
:101A50000F900F90DF91CF910895BC0184E00C941A
:101A6000FA0CBC0183E00C94FA0C9C0182E0809398
:101A7000E9009FEF8091E800915085FD06C085ED5B
:101A80008A95F1F700009111F5CF8091E80085FF6C
:101A90000CC050E040E065E070E0C9010E943205F2
:101AA0008091E8008E778093E8000895CF93DF93CC
:101AB000EC0180912A018823B1F180913C0287FFDB
:101AC00032C060E283E08093E9008FEF9091E800FC
:101AD000815095FD06C095ED9A95F1F700008111B2
:101AE000F5CF8091E80085FF1BC080912A0170E04E
:101AF00050E040E0811104C050E040E068E070E058
:101B0000CE010E9432058091E8008E778093E80034
:101B100080E2FE01A4E7B2E001900D928A95E1F720
:101B2000DF91CF91089568E081E0CDCFEF92FF92F1
:101B30000F931F93CF93DF930E94900C0E948D0C04
:101B40000E948A0C0E94870C88E8E82EF12C8FEF07
:101B500090E0F701918380830AE810E0F801918317
:101B60008083CCE8D0E0998388830E94990CFFEFB2
:101B700020E782E0F15020408040E1F700C0000003
:101B80000E94960C9FEFE0E7F2E09150E040F040B9
:101B9000E1F700C000000E94930C2FEF80E792E075
:101BA000215080409040E1F700C000000E948D0C61
:101BB000EFEFF0E722E0E150F0402040E1F700C015
:101BC00000000E948A0C8FEF90E7E2E08150904085
:101BD000E040E1F700C000000E94870C80912A02DB
:101BE0008770FFEF8F9FC00111249595879595957C
:101BF00087959927F70191838083F80191838083EA
:101C0000998388830E94900C0E948D0C0E948A0CFC
:101C1000DF91CF911F910F91FF90EF900C94870C63
:101C20006FEE7EEF90E080E00E946B2560E082E046
:101C300090E00E944D2560E083E090E00E944D25F9
:101C400010921F0210922002109221021092220282
:101C500060E084E090E00E944D2560E081E290E049
:101C60000E944D2560E085E090E00E944D2560E0F7
:101C700086E090E00E944D256FEF87E090E00E94A3
:101C80004D2540E050E0BA0188E090E00E945F25D9
:101C900060E08DE090E00E944D2540E050E0BA0108
:101CA00088E190E00E945F2560E087E190E00E947B
:101CB0004D2540E050E0BA018CE190E00E945F25A4
:101CC00060E080E290E00E944D2540E050E0BA01E3
:101CD00088E190E00E945F2510922A0210922B0268
:101CE00010922C0210922D0284E0806180932A02CF
:101CF00040912A0250912B0260912C0270912D028A
:101D00008FE090E00E945F2540E050E0BA0183E15F
:101D100090E00C945F25CF93C82F873070F58091A9
:101D20001E0190911F01892B89F564E670E080E423
:101D30000E94582490931F0180931E01892BD1F497
:101D400064E670E082E10E94B42490931F018093C6
:101D50001E01892B79F481E090E001C0880FCA95BB
:101D6000EAF764E670E080950E94B42490931F0126
:101D700080931E01CF910C9407258A30B9F040F46E
:101D8000883071F0893079F0209A2898CF910895A1
:101D90008C3091F070F08D30B9F73E9A4698F6CFBE
:101DA000219A2998F3CF229A2A98F0CF239A2B9838
:101DB000EDCF529A5A98EACF539A5B98E7CF80E2D8
:101DC00090E090931F0180931E01809198018111F2
:101DD0000EC00E94522481E0809398012FEF83ED82
:101DE00090E3215080409040E1F700C0000064E69D
:101DF00070E080E40E94582490931F0180931E019C
:101E0000892B09F04EC064E670E080E00E94B424A3
:101E100090931F0180931E01892B09F042C064E654
:101E200070E080E00E94B42490931F0180931E0113
:101E3000892BB9F564E670E08FE30E94B424909397
:101E40001F0180931E01892B61F50E94072564E61E
:101E500070E080E40E94582490931F0180931E013B
:101E6000892BF9F464E670E08CE00E94B42490932E
:101E70001F0180931E01892BA1F464E670E080E0CD
:101E80000E94B42490931F0180931E01892B49F472
:101E900064E670E08FE30E94B42490931F01809366
:101EA0001E010E94072580911E010895CF9387305F
:101EB00050F580911E0190911F01C0E0892B71F4B3
:101EC00064E670E081E40E94582490931F0180939F
:101ED0001E01892B31F0C0E00E9407258C2FCF9185
:101EE000089584E690E00E94E32497FF05C0909354
:101EF0001F0180931E01EFCFC82FC09510921F01C4
:101F000010921E01E9CFCFB18FB1869586958C7363
:101F1000C3708C2BC82FC095E1CF1F920F920FB6C4
:101F20000F9211242F933F934F935F936F937F935F
:101F30008F939F93AF93BF93EF93FF938091E100B3
:101F400082FF09C08091E20082FF05C08091E1001C
:101F50008B7F8093E1008091DA0080FF24C0809124
:101F6000D80080FF20C08091DA008E7F8093DA0055
:101F70008091D90080FF9BC080E189BD82E189BD4D
:101F800009B400FEFDCF81E080939602809171023A
:101F9000811109C00E94E2040E94AF058091E20015
:101FA00084608093E2008091E10080FF17C08091FF
:101FB000E20080FF13C08091E2008E7F8093E200F8
:101FC0008091E20080618093E2008091D80080627D
:101FD0008093D80019BC85E0809396028091E1003F
:101FE00084FF29C08091E20084FF25C080E189BD83
:101FF00082E189BD89B5982F917080FFFBCF8091D8
:10200000D8008F7D8093D8008091E1008F7E8093EF
:10201000E1008091E2008F7E8093E2008091E200F7
:1020200081608093E20080919702882309F445C083
:1020300084E0809396028091E10083FF27C0809125
:10204000E20083FF23C08091E100877F8093E1005D
:1020500082E080939602109297028091E1008E7F39
:102060008093E1008091E2008E7F8093E200809176
:10207000E20080618093E20042E060E080E00E9444
:102080007D058091F00088608093F000FF91EF91D2
:10209000BF91AF919F918F917F916F915F914F9180
:1020A0003F912F910F900FBE0F901F90189519BC64
:1020B000109296021092710276CF8091E30087FD14
:1020C00093E090939602B7CF78941F921FB61F9219
:1020D00011248F939F93AF93BF938091230290918C
:1020E0002402A0912502B09126020196A11DB11DE6
:1020F0008093230290932402A0932502B09326029A
:10210000BF91AF919F918F911F901FBE1F90189507
:102110002FB7F8948091230290912402A091250278
:10212000B09126022FBF08950E9488109C019091C3
:10213000560280915702982B21F03093540220933D
:1021400053029091580280915902982B21F03093BC
:10215000510220935002E0913E02F0913F023097ED
:1021600031F00480F581E02D85E592E00994089531
:1021700010921C0210921B020E94DE0885E0E5E529
:10218000F2E0DF011D928A95E9F710925202109257
:102190004F02109227020E94941090E080E00E946B
:1021A000AB0990E080E00C949509CF92DF92EF921A
:1021B000FF92CF93DF9300D000D0CDB7DEB70E945F
:1021C0009C0C6B017C0180916E02882321F0809130
:1021D0006F02811115C0C0926A02D0926B02E09228
:1021E0006C02F0926D020E94B8100F900F900F9049
:1021F0000F90DF91CF91FF90EF90DF90CF900895F7
:10220000198282E08A83C701B6010E9484088B8309
:102210008EEF8C8364E0CE0101960E94D006DBCF66
:102220000F931F9341E050E060E070E004C0440F62
:10223000551F661F771F8A95D2F7CB01BA016095AB
:1022400070958095909500916A0210916B02209193
:102250006C0230916D0260237123822393231F91BE
:102260000F910C94D51090911A0280958923809338
:102270001A02282F277071F4282F082E000C330B18
:102280009217130639F08595859585950E94101152
:1022900010921A0208950F931F9341E050E060E0FE
:1022A00070E004C0440F551F661F771F8A95D2F750
:1022B00080916A0290916B02A0916C02B0916D02C4
:1022C0008A019B01082B192B2A2B3B2BC901B80132
:1022D0001F910F910C94D51060931F0270932002F0
:1022E00080932102909322020C94B81010921D0248
:1022F00080912A01EAE7F1E0882359F080913C02BD
:1023000087FF07C08EE1DF011D928A95E9F70C94E3
:10231000B81086E0F8CF1F93CF93DF93CDB7DEB729
:10232000AA970FB6F894DEBF0FBECDBF88E992E042
:102330002091F100FC012193CF01F2E0803A9F0748
:10234000B9F780919902893009F444C018F58230B8
:1023500009F4B9C0833009F46EC0813031F5809141
:102360009802813A11F58091E800877F8093E80018
:1023700080919C0290919D02892B41F560E284E757
:1023800092E070E00E946F068091E8008B77809366
:10239000E8000BC08B3009F46BC008F483C08234B2
:1023A00009F4A2C0853409F4BCC08091E80083FF21
:1023B00050C280919802909199029A3008F049C2D7
:1023C000E92FF0E0ED53F94D0C94332560E090E0F7
:1023D00080E0D7CF80919802813239F780919C02BA
:1023E00090919D02009711F00297F9F68091E80014
:1023F000877F8093E8008091E80082FF17C090916A
:10240000F3008091F200029729F48091F1008B7F14
:10241000813021F48091F100809373028091E80073
:102420008B778093E8000E945E05BFCF8091960273
:102430008111E1CFBACF80919802813A09F0B5CFEE
:1024400080919C0290919D02892B09F0AECF8091E2
:10245000E800877F8093E8008091E80080FFFCCF50
:1024600080912A018093F1008091E8008E77D9CF86
:1024700080919802813209F098CF80919C029091CE
:102480009D02892B09F091CF8091E800877F80938E
:10249000E8000E945E0580919A0280932A010E94C2
:1024A000761183CF80919802813209F07ECF80919E
:1024B000E800877F8093E8000E945E0580919B0280
:1024C0008093720272CF80919802813A09F06DCFA9
:1024D0008091E800877F8093E8008091E80080FF8A
:1024E000FCCF80917202BECF80919802803C09F0AF
:1024F0005CCF80919C0290919D02029739F580916A
:102500009A0290919B02892B09F58091E800877FC0
:102510008093E8006BE170E086E698E00E94100688
:1025200082CF80919802803C09F03FCF80919C023D
:1025300090919D02079751F48091E800877F8093E6
:10254000E80062EB70E084EB97E0E8CF8091EB006D
:1025500080628093EB0029CF803899F0823809F0AF
:1025600078C180919C028F70873008F072C180938F
:10257000E9008091EB0085FB882780F91092E90043
:1025800006C0809194029091950291118260909181
:10259000E800977F9093E8008093F1001092F1009B
:1025A0008091E8008E7751C1882309F43FC18230C1
:1025B00009F04FC180919A02811142C180919C0221
:1025C0008F702FEF280F263008F043C18093E90069
:1025D0002091EB0020FF34C1933031F48091EB0067
:1025E00080628093EB002CC19091EB0090619093FE
:1025F000EB0021E030E001C0220F8A95EAF720933A
:10260000EA001092EA008091EB008860EACF811125
:1026100020C110919A021F778091E3008078812B6E
:102620008093E3008091E800877F8093E8000E9418
:102630005E058091E80080FFFCCF8091E300806818
:102640008093E30082E0111183E08093960201C140
:102650008058823008F0FDC080919A0290919B02D0
:102660008C3D23E09207A1F583E08A838AE2898387
:102670004FB7F894DE01139620E03EE051E2E32FDD
:10268000F0E050935700E49120FF03C0E295EF7013
:102690003F5FEF708E2F90E0EA30C0F0C7968D93C9
:1026A0009D932F5F243159F74FBF8091E800877FBA
:1026B0008093E8006AE270E0CE0101960E946F0606
:1026C0008091E8008B778093E800C3C0C096E7CF85
:1026D00020919C0230919D02492F5527433051058E
:1026E00051F1A0F44130510509F459C06BE670E096
:1026F00082E898E04230510509F0ABC02091E80033
:10270000277F2093E8000E941006DACF413251055E
:1027100039F14232510591F14F30510509F099C01C
:10272000EFE4F9E0649170E08DE499E061157105E2
:1027300009F48FC0E3CF99278130910571F000979C
:1027400031F0029709F085C0EFEFF8E002C0E9E44C
:10275000F9E0649170E0CF01E9CFE7E1F9E0F9CF6A
:102760002330310508F075C0220F331FF901EF58EF
:10277000FE4F8081918169E070E0C0CF2330310548
:1027800008F067C0F901EE0FFF1FE559FE4F808189
:10279000918128593E4FF901608170E0C7CF62E115
:1027A00070E08DEE98E0AACF803809F052C0809199
:1027B000E800877F8093E800809197028093F10082
:1027C000EFCE811146C010919A02123008F041C03C
:1027D0008091E800877F8093E800109397020E9421
:1027E0005E05112311F084E005C08091E30087FDB0
:1027F000FACF81E08093960242E061EC81E00E9492
:102800007D0542E061EC82E00E947D0542E261ECE0
:1028100083E00E947D0542E361EC84E00E947D0537
:1028200042E360EC85E00E947D0513C080919A022E
:10283000813079F481E0933009F080E08093950253
:102840001092E9008091E800877F8093E8000E9461
:102850005E058091E80083FF0AC08091E800877FD1
:102860008093E8008091EB0080628093EB00AA9651
:102870000FB6F894DEBF0FBECDBFDF91CF911F9191
:1028800008951F920F920FB60F9211242F933F932A
:102890004F935F936F937F938F939F93AF93BF9368
:1028A000CF93DF93EF93FF93D091E900DF70809196
:1028B000EC00C82FC17080FDC0E81092E900809143
:1028C000F000877F8093F00078940E948B11109223
:1028D000E9008091F00088608093F000CD2BCF70EC
:1028E000C093E900FF91EF91DF91CF91BF91AF913C
:1028F0009F918F917F916F915F914F913F912F9118
:102900000F900FBE0F901F901895882379F19CEFC0
:10291000980F913A38F4682F88E791E00E942508D3
:102920000C94DE0890E2980F983050F4877091E094
:1029300001C0990F8A95EAF7892F0E94D708F0CF36
:102940009BE5980F933020F490E080E00C94AB0965
:1029500098E5980F973120F490E080E00C94950969
:10296000803F20F00E94E7060C94941008950C9488
:1029700085148FE39CE90197F1F700C00000809176
:102980009A01823079F028F4813039F010929A015E
:102990000895833051F08530C9F784E090E00E94BB
:1029A000B714F4CF80EE90E0FACF89E290E0F7CF51
:1029B000CF93C82F882309F46EC08CEF8C0F813A17
:1029C000B8F580912A01882311F180913C0287FF9C
:1029D0001EC0EC2FE695E695E695F0E0E858FE4F30
:1029E000828190E04C2F477021E030E002C0220F3E
:1029F000331F4A95E2F782239323892B89F06C2FAA
:102A000088E791E00E9425080E94DE0809C0EAE7F5
:102A1000F1E08191C81799F381E0E038F807C9F730
:102A20006C2F88E791E00E944F08CF910C94DE084C
:102A300080E28C0F883068F4C77021E030E001C07C
:102A4000220FCA95EAF780911D02822B80931D0206
:102A5000ECCFEBE5EC0FE33040F4F0E0E95CFE4F47
:102A6000808190E0CF910C94AB09E8E5EC0FE73161
:102A700050F4F0E0EE0FFF1FE65CFE4F8081918185
:102A8000CF910C949509C03F30F08C2F0E94AE0777
:102A9000CF910C949410CF910895CF93C82F0E949A
:102AA000D814C93349F42FEF87EE93E021508040CA
:102AB0009040E1F700C000008C2FCF910C9485145A
:102AC0000F931F93CF93DF93C62FD42F022FFC01B8
:102AD00082818823A1F06093A2020E9488109093C3
:102AE000A1028093A002C77081E001C0880FCA953F
:102AF000EAF7DF91CF911F910F910C948B09809190
:102B0000A202681335C08091A0029091A1020E9498
:102B10001608883C910560F510E21D0FCD17B9F03D
:102B200080E28C0F883040F4C77081E001C0880FCC
:102B3000CA95EAF70E948409183048F481E09D2F75
:102B4000977001C0880F9A95EAF70E948B09802F31
:102B50000E944D15183098F4D77081E001C0880F9D
:102B6000DA95EAF7DF91CF911F910F910C948409C8
:102B7000C77081E001C0880FCA95EAF7F3CFDF91F3
:102B8000CF911F910F910895CF92DF92EF92FF9214
:102B90000F931F93CF93DF93EC018AE0C82EFE01C1
:102BA0008491882309F481C0813009F03EC03196B8
:102BB0008491813039F42296FE0184910E944D1552
:102BC0002196EDCF823031F42296FE0184910E944D
:102BD000D814F6CF833031F42296FE0184910E94FE
:102BE0008514EECF843009F05EC02296FE01249158
:102BF00090E080E0FE0131962053330B2A303105FE
:102C000048F00197E8F2EFE9FFE03197F1F700C0F3
:102C10000000F7CFC89EA001C99E500D1124C90124
:102C2000840F951F2491EF01E5CFE82FF0E0EA53E0
:102C3000FE4FD490082F06950695069510E0F801F2
:102C4000EA54FE4FE4908770F12C082E02C0F594F0
:102C5000E7940A94E2F721E0E222FF240A551E4F8E
:102C6000F801049110E002C0159507958A95E2F7E6
:102C700001701127E114F10419F081EE0E94D814BB
:102C80000115110519F086EE0E94D8148D2D0E94B1
:102C90004D15012B19F086EE0E948514EF2809F4DA
:102CA0008FCF81EE9CCFEF018BCFDF91CF911F9122
:102CB0000F91FF90EF90DF90CF9008950C94D8146F
:102CC00084E090E00E945E1684E090E00C94B714DB
:102CD000CF93DF93EC018881833031F40E9460163A
:102CE0000E9460160E9460168881843020F0DF9177
:102CF000CF910C946016DF91CF910895FC018081F3
:102D0000813091F48185882331F081E080939A01AC
:102D100084E090E016C082858823B9F382E0809336
:102D20009A0180EE90E00DC08230B9F48185811166
:102D30000EC08285811107C083E080939A0189E2E9
:102D400090E00C945E1684E080939A01089585E0EB
:102D500080939A010E946016DBCF86E0F5CF4F92F8
:102D60005F926F927F928F929F92AF92BF92CF921B
:102D7000DF92EF92FF920F931F93CF93DF9300D0D8
:102D800000D00F92CDB7DEB77C01DC0113968D9198
:102D90009C911497892B41F01C911196DC90812F06
:102DA0008D218F3F09F098C50F900F900F900F90D5
:102DB0000F90DF91CF911F910F91FF90EF90DF90D7
:102DC000CF90BF90AF909F908F907F906F905F90CB
:102DD0004F9008950E94170C082F682F89819A81BF
:102DE0000E944C09E12FF0E0B6E0DB9EE00DF11D02
:102DF000112424E5029FE00DF11D1124EE0FFF1FA9
:102E0000EC58FD4F05911491D70112968C918111C8
:102E1000E4C080916E02811121C10A32BDE51B0719
:102E200009F039C1F70182818823C9F180912A0212
:102E300091E0980F9770887F953008F4892B8093E4
:102E40002A0280912A028770FFEF8F9FC001112410
:102E50009595879595958795992790938900809367
:102E6000880090938B0080938A0090938D008093CC
:102E70008C0040912A0250912B0260912C0270919B
:102E80002D028FE090E00E945F2560916A027091B0
:102E90006B0280916C0290916D020E949C0CC801A3
:102EA00097558F3F910511F008F03AC120911C0110
:102EB00030911D012817390724F490931D01809348
:102EC0001C01F701228136E1389F5001399FB00C77
:102ED0001124C5018A5F9E4F6C01DC0150962C9332
:102EE0005097928116968C911697992309F40AC1EE
:102EF0001A961C930E9319978F5F16968C930E94C7
:102F00008810F6019687858780911E0287838091BD
:102F10001C0290911D02892B80870190F081E02D89
:102F2000309741F0D60154966D917C91C501845F34
:102F30009E4F09951093A9010093A801D7011296FD
:102F40008C91882309F4DAC41092A2020230BCE505
:102F50001B0708F4FFC10631ECE51E0738F09801A5
:102F60002B5F3C452730310508F0F4C10E94EC0C82
:102F700090933D0280933C020F30FCE51F0709F45B
:102F8000CAC108F04BC108303CE5130709F4ADC1D4
:102F900008F01EC104309CE5190709F49AC108F035
:102FA00006C10230BCE51B0709F48FC180913C02C9
:102FB000826003301C4509F41DC160913C021091F0
:102FC0003D0284E090E00E944D25612F81E290E077
:102FD0000E944D250E947611C9C080911C019091DC
:102FE0001D01019609F415CF66E0C62E61E0D62ECC
:102FF000B12CA12C9924939480911C0190911D01D6
:103000008A159B050CF405CFF60186818823F9F01B
:10301000818592858017910739F48091A80190915C
:10302000A9018017910799F0D6011F969C921F97CE
:103030001C961C930E931B9751968C91811103C083
:10304000C6010E94CD09C60106960E94EE09BFEF97
:10305000AB1ABB0AE6E1CE0ED11CCECF80916F0237
:10306000882309F4DACE1982D70112968C91811146
:1030700010C082E18A83D7018C918B8311968C9149
:103080008C838EEF8D8365E0CE0101960E94D00681
:10309000C4CE81E1EFCF0E322DE5120711F178F4A5
:1030A0000D328DE5180709F0FACEF70182818823E9
:1030B00009F4F5CE8AE692E00E94C415F0CE0F32F4
:1030C0009DE51907B9F00033ADE51A0709F0E7CE21
:1030D000D70112968C91882309F4E1CE86E492E020
:1030E000EBCFD70112968C91882309F4D8CE8AE5CC
:1030F00092E0E2CFF7018281882309F4D0CE80E507
:1031000092E0DACF882309F419CFF6018189882368
:1031100009F414CFC501845F9E4F0E94EE090ECFC3
:10312000043FFCE51F07A1F188F4093D3CE51307C6
:1031300059F10A3D8CE51807B9F1083D9CE51907DE
:1031400009F0FCCE26E241EE61EE0DC0063FACE593
:103150001A0731F108F127E245EE66EE073FECE58C
:103160001E0709F0EBCEC7010E94601580911A027C
:10317000877009F419CEF7018281882309F414CEEF
:1031800082E00E94331110CE27E245EE65EEEBCFD0
:1031900026E241EE60EEE7CF27E245EE64EEE3CFB4
:1031A00026E241EE62EEDFCF28E241E0EFCF8091F0
:1031B0003C0280610630FCE51F07E1F080913C0293
:1031C000886007301C45B0F080913C02806212C0DC
:1031D0000B303CE5130709F496C078F409309CE500
:1031E000190709F486C080913C028C600A301C45A6
:1031F00009F0E3CE80933C02E0CE80913C028B7FCD
:103200000D30BCE51B07B1F380913C028D7F0E3081
:103210001C4580F380913C02877FECCF0B3FFCE59F
:103220001F0709F45AC048F502313CE5130709F4B9
:103230007AC060F400319CE5190709F470C08091F0
:103240003C028F7B01311C45A9F2B7CE0431BCE5AD
:103250001B0709F476C008F46CC005311C4509F061
:10326000ACCE80913C0282FB992790F921E0922715
:1032700090FB82F990FB83F9BDCF0E3F2CE512073E
:1032800009F445C070F40C3F8CE5180751F18091AA
:103290003D028E7F0D3F1C4509F08FCE80933D028D
:1032A0008CCE0115ADE51A0709F447C040F1013095
:1032B0001D4509F082CE80913D02982F9095917026
:1032C0008E7F892B90FB81F9E9CF80913C02816050
:1032D00091CF80913C0284608DCF80913D028160CE
:1032E000DDCF80913D028260D9CF80913C02806425
:1032F00081CF0E94761180913C0280687BCF8091C3
:103300003D028360CBCF80913C028E7F73CF809152
:103310003D028D7FC3CF80913C028F7E6BCF809129
:103320003C028F7D67CF0E94761180913C028F779F
:1033300061CF80913C02837F5DCF80913D028C7F85
:10334000ADCF0E94761190913C02892F97FB87F9AF
:10335000805850CF0631FCE51F0709F0DDC280918F
:103360001D028A7A91E009F490E09093AA0169E243
:10337000811165E388E791E00E944F080E94DE0812
:10338000F5CE0E94100EF2CE8091700291E0892756
:1033900080937002EBCED7010D911C91882309F424
:1033A0003DC0C8010E94170CD82E682FC8010E948A
:1033B0004C09B8018D2D0E947B0A8C01882EF701E3
:1033C000A580A2944FE0A422D280D11010921C02BA
:1033D00080911A02877099F0DD2089F0812F807F1B
:1033E000803421F080E2800F883048F082E00E9433
:1033F000331180911A028770CC24C3948111C12C9F
:10340000B12EB2943FE0B322FBE0FB1508F43DC0BF
:10341000EB2DF0E0E353F94D0C943325C8010E94E5
:103420002309D82EC6CF212F2F70A22E107F19F07E
:10343000A29420EFA222DD20C9F0AA2069F080E248
:10344000800F883010F081100BC080911D02A82AD7
:10345000A0921D020E94DE08802F0E94D81415C081
:1034600080911C02A82AA0921C02F4CF802F0E94F7
:103470008514AA2051F0005E083010F0811044C07D
:103480008A2D0E94D7080E94DE08EB2DE850FF0B22
:10349000349710F40E94C109CC20B1F080911A0237
:1034A00080FD12C0D70112961C9285958595859551
:1034B0000E944B11C7010E94AF1680911A02859598
:1034C000859585950E94101185E0F701DE01119622
:1034D00001900D928A95E1F789819A810E942309D2
:1034E0009A81E981F0E0B6E09B9FE00DF11D112487
:1034F00024E5829FE00DF11D1124EE0FFF1FEC5813
:10350000FD4F8591949150CCA09480911C02A822EB
:10351000A0921C02B8CF312F3F70932E107F103233
:1035200019F0929490EF9922882041F081E088165A
:1035300031F1DD2079F1AA2041F18ECFDD2091F02B
:1035400090911E02892D892BA11003C00E948B0926
:103550009CCFA1E0AA12FACF981709F496CF8093D6
:103560001E0293CFA11006C00E94D108892D0E948F
:1035700084098BCFB1E0AB1609F487CFF5CFDD20FE
:1035800031F0E1E0EA1508F480CF892DDFCFA110FA
:103590007CCFECCFAA2051F3F9E38F1209C02FEFB3
:1035A00037EE83E0215030408040E1F700C000005A
:1035B000802F0E94851469CF812F86958695837010
:1035C00061F0813009F061CFC8019370D11002C061
:1035D00090E080E00E94950958CFC8019370D11007
:1035E00002C090E080E00E94AB094FCF802FDD2029
:1035F00029F00E94AE070E94941047CF0E94E70670
:10360000FACF812F837009F066C0D1103ECF802F92
:10361000829586958770880F880F602F6F70462E71
:10362000512C712C612C082E04C0440C551C661CB6
:10363000771C0A94D2F740E050E0BA0104FF0FC0B3
:103640004FE050E060E070E004C0440F551F661F7B
:10365000771F8A95D2F74095509560957095812F88
:10366000869586958370823019F1D8F400911F02F7
:10367000109120022091210230912202813069F0C4
:103680004429552966297729CB01BA016023712382
:10369000822393230E946C11F8CE402A512A622A79
:1036A000732ACB01BA016429752986299729F2CF9B
:1036B000442955296629772900911F02109120027B
:1036C0002091210230912202CB01BA01602771279B
:1036D00082279327DFCF8695DD2011F0812F81701F
:1036E000882309F4D2CE802F829586958770880F23
:1036F000880F602F6F70462E512C712C612C082E74
:1037000004C0440C551C661C771C0A94D2F740E098
:1037100050E0BA0104FF0FC04FE050E060E070E0FD
:1037200004C0440F551F661F771F8A95D2F7409536
:10373000509560957095812F86958695837082301F
:1037400019F1D8F400916A0210916B0220916C0279
:1037500030916D02813069F0442955296629772915
:10376000CB01BA0160237123822393230E94D510D9
:103770008CCE402A512A622A732ACB01BA016429CD
:10378000752986299729F2CF442955296629772951
:1037900000916A0210916B0220916C0230916D02CF
:1037A000CB01BA016027712782279327DFCF1F70D3
:1037B000DD2029F0812F0E944B11802FC7CE802F52
:1037C0000E948409812F0E9410115FCE802F92EFFA
:1037D000891609F44EC0981578F0A0EF8A1619F1F1
:1037E000B1EF8B1609F43DC0DD2009F465C0A110CE
:1037F00033CE812F8F713AC0E3EF8E1609F43EC0AD
:10380000F4EF8F12F1CFDD2009F44BC01F71812F2F
:103810000E944B1138E0139FC001112483608093F4
:103820001A02812F23C0DD20B9F0A1102ECE1F7106
:1038300061E070E080E090E004C0660F771F881FB1
:10384000991F1A95D2F700916A0210916B0220918C
:103850006C0230916D02A6CF21E02A1508F415CE36
:10386000E6CF812F8F71DD2009F4ADCF0E944B117F
:103870000CCE812F8F71DD20C9F3A5CF60E070E001
:10388000CB01DD2009F472CF1F7161E070E080E0B0
:1038900090E004C0660F771F881F991F1A95D2F712
:1038A00065CF81E00E94331181E08A1508F0EDCDEB
:1038B00082E00E943311E9CDAA2059F0893309F042
:1038C00077CE9FEFA7EEB3E09150A040B040E1F774
:1038D0006DCE812F8F7177CF85E0F701DE011196D4
:1038E00001900D928A95E1F7F701228189819A81F1
:1038F000211170CA0E942309082F74CA06311C4581
:1039000009F049CD8091AA0169E2811165E388E758
:1039100091E00E94250832CD0F3D2CE5120709F4F5
:1039200030CD09303DE5130709F42ECD01151C45B6
:1039300009F031CD0E9476112FEF34E38CE0215055
:1039400030408040E1F700C00000F89481E08093AF
:10395000E00080E28093D8001092C900AFE1BEE49D
:103960001197F1F700C000001DBA109268001CBC4E
:1039700010BE1FBA10927A0010926E0010926F0063
:1039800010927100109272001092C9001092BC0047
:1039900014B817B81AB81DB810BA1092BC0015B8F0
:1039A00018B81BB81EB811BA0C94003FDFCB1F9398
:1039B000CF93DF938091B001807FA9F48091AD0116
:1039C000882389F08091E201D091B1016091AB012F
:1039D0007091AC01A091AE01B091AF01C62FC72389
:1039E00016E0D81304C0DF91CF911F91089590E0A5
:1039F000109711F0CF3F19F401968770F2CF189FFE
:103A00009001199F300D1124F901EE54FE4F4181B0
:103A10004713F2CF40814613EFCF42814111ECCFE3
:103A2000438154814A1B5B0B483C510528F7809128
:103A3000B0018F7080618093B001F901E954FE4FAD
:103A400080818F70806180838BEA91E00E94AF1645
:103A5000DF91CF911F910C947A09AF92BF92CF92D0
:103A6000DF92EF92FF920F931F93CF93DF93CDB727
:103A7000DEB761970FB6F894DEBF0FBECDBF8C01E5
:103A800085E0F801DE011D9601900D928A95E1F71F
:103A9000F80180819181E2802BEAA22E21E0B22EF2
:103AA0006091AE017091AF016115710509F43EC1DD
:103AB0003091AB014091AC01232F24232F3F09F417
:103AC00035C1C380D480F090AD01F601E61BF70B41
:103AD000FF2009F4FBC02091B001522F507FE83C39
:103AE000F10508F0BBC0511178C0FE2C491321C06C
:103AF00038131FC0E1101DC02F7020612093B0014A
:103B0000C5010E94AF168091B001F80185838F2D09
:103B100061960FB6F894DEBF0FBECDBFDF91CF9197
:103B20001F910F91FF90EF90DF90CF90BF90AF90DB
:103B30000895CD2829F0282F29232F3F09F014C1FB
:103B400020E0F22FF170DF2E20FF3DC02091E20136
:103B50004091B10156E0241315C08D879E878D8555
:103B60009E850E94590C292F22952F702230F8F043
:103B7000243020F59F70F9F0F8019581907FD9F4F9
:103B8000D12C1FC030E0529FF001539FF00D112443
:103B9000EE54FE4F6181961306C06081861303C008
:103BA0006281E61210C02F5F3F4F2770D4CF9F7005
:103BB00011F0882329F3805E883010F3C8010E9439
:103BC000AF16FD2CA4CFEE2009F4A1CF8091B00157
:103BD00081608093B001F12C9ACF491312C0381341
:103BE00010C0E1100EC0F8012583C8010E94AF1675
:103BF00086E0F801ABEAB1E001900D928A95E1F719
:103C000086CF8D879E878D859E850E94630C882335
:103C100009F1EE20F9F08091B001803270F020912E
:103C2000AB013091AC0138872F831986DB86CA86B9
:103C30008C87CE0107960E94AF1686E0F801ABEAAA
:103C4000B1E001900D928A95E1F70E94D71CFF2404
:103C5000F3945DCFC8010E94AF16F9CF51110AC08D
:103C60008BEA91E00E94AF1686E0F50111928A95E9
:103C7000E9F7B1CF49130FC038130DC0E1100BC0E5
:103C8000F8012583C8010E94AF1686E0F501119264
:103C90008A95E9F73CCF8D879E878D859E850E940A
:103CA000630C8823B9F2EE20A9F28091B001803232
:103CB00020F22091AB013091AC013A8329831B8221
:103CC000DD82CC828E83CE010196B5CFE83CF10532
:103CD000E0F6FE2CEE2009F4BDCF491316C03813D0
:103CE00014C08091B00180FD83CF982F907F09F49C
:103CF0007FCFF8018583903F09F477CF982F907F8D
:103D0000905F8F70892B858370CF8D879E878D857F
:103D10009E850E94630C811190CF8091B0018160DB
:103D20008093B001C8010E94AF16F1CEEE2009F4D5
:103D300091CF8D879E878D859E850E94630CF82E7E
:103D4000882309F487CF86E0F801ABEAB1E001905F
:103D50000D928A95E1F78091AB019091AC010E94A0
:103D6000590C0E94D71CD3CE21E02E25EACE1F93FA
:103D7000CF93DF93CDB7DEB767970FB6F894DEBF6A
:103D80000FBECDBF4B8B5C8B6D8B7E8B8F8B1A8A5E
:103D9000198A85E0FE017396DE011D9601900D9251
:103DA0008A95E1F786E0FE013D96DE0117960190C7
:103DB0000D928A95E1F7CE0107960E942D1D811183
:103DC00012C086E0FE013796DE01119601900D9239
:103DD0008A95E1F78A859B85892B29F08F819885C3
:103DE00089238F3FB1F516E08091E2019091B101F6
:103DF00089131DC067960FB6F894DEBF0FBECDBF06
:103E0000DF91CF911F91089596E0929FD001939FEB
:103E1000B00D1124AE54BE4FFE01319601900D92AB
:103E20009A95E1F78093B1010E947A09DCCF819FD6
:103E3000C00111248E549E4F0E942D1D8823D1F263
:103E40008091E20190E00196877099278093E201CA
:103E5000CBCF2091B10130E0C9010196877099273D
:103E60004091E2014817190679F60E9476111092E6
:103E7000B1011092E20186E0EBEAF1E0DF011D9270
:103E80008A95E9F7B0CF8F929F92BF92CF92DF923F
:103E9000EF92FF920F931F93CF93DF9380911E01B8
:103EA00090911F01892B91F080919B018F5F8093EE
:103EB0009B0181110BC00E94DF0E90E090931F01C7
:103EC00080931E01892B11F40E94960DEEE28E2E36
:103ED000E2E09E2E740110E000E077E0C72EC00EF5
:103EE000802F0E948B0E8C2D0E948B0E802F0E94A3
:103EF000560FE70199917E01D12C891729F0FE0117
:103F000031978083DD24D3948C2D0E94560FF701C6
:103F10009681891709F47AC0868381E08D29182B50
:103F20000E94D00C0F5F0730C1F60E94881060918C
:103F30009D0170919E0190939E0180939D0120911F
:103F40009C0130E0261B370B820F931F6BEF70E054
:103F50000E940B25E82E392F082F80939C01F090AA
:103F6000A001FF2009F4E3C01092A001E091280213
:103F7000F0912902AF01425F5F4F20E06BEFB62E58
:103F80006BEF70E0A191AB3F99F0CA2ED12C8E2D32
:103F9000932F0A17E8F18C199D09092E000CAA0B22
:103FA000BB0B4E97A105B105C8F1DF011197BC927B
:103FB000E417F50739F72093A001111102C0211170
:103FC000B8C010929F01A0912802B091290290914F
:103FD000A001E1E4F2E080E03191E40129914E0199
:103FE000321751F03C913B3FD9F40C93AF01415053
:103FF0005109EA01288391E01196D2E0EF34FD07E0
:1040000059F79093A00180939F0197C080E086CFDD
:10401000DB01AC19BD098A0F9B1FBFCF2F2DC8CF65
:1040200081E0EACFF89EF001F99EF00D1124EA5FDD
:10403000FE4FC288D388C114D10419F428ECC22ED3
:10404000D12CF89EE001F99ED00D1124CA5FDE4FFD
:104050008E818823B9F08D859E850E941608C8162A
:10406000D90680F40F9D600111248989811105C052
:10407000C6018A5F9E4F0E94CD09C601845F9E4F94
:104080000E94EE090F5F802F90E020911C0130917B
:104090001D012817390734F657C000E086E1F82ED5
:1040A000F2CF009789F40E948D0C0E948A0C0E9426
:1040B000870CC091A101CC23B9F10E948A0C81E048
:1040C000C827C093A10103C09170892B91F38091FF
:1040D000A2019091A3018130984780F01092700264
:1040E00060916A0270916B0280916C0290916D02F6
:1040F0000E949C0C1092A3011092A2018091A20137
:104100009091A30101969093A3018093A201812F26
:10411000DF91CF911F910F91FF90EF90DF90CF90A3
:10412000BF909F908F9008950E94960CC8CF111158
:1041300048CF80919F01811144CF80911C019091C3
:104140001D01019609F0A9CF8091A2019091A301D0
:10415000209170022111A5CF892BC9F21092A301E1
:104160001092A20160916A0270916B0280916C02C0
:1041700090916D020E949C0CCACFCDB7DEB7C95595
:10418000D1090FB6F894DEBF0FBECDBF84B7877FCD
:1041900084BF0FB6F894A8958091600088618093E1
:1041A0006000109260000FBE80E890E00FB6F894B7
:1041B00080936100909361000FBE85B7806885BFD2
:1041C00085B7806885BF0E94E2040E94AF05809198
:1041D000E20084608093E2007894809196028823C4
:1041E000A1F01091E9001F709091EC00892F81706F
:1041F00090FD80E8182B1092E9008091E80083FD83
:104200000E948B111F701093E90082E084BD93E03F
:1042100095BD9AEF97BD80936E000E94DF0E90E0EF
:1042200090931F0180931E010E94D00C0E94DF0C0E
:10423000EEE2F2E061E4662E62E0762E8CE392E03C
:10424000D30111921D928E179F07D9F78EE090E04F
:104250000E9481258093280290932902FC010E96EA
:104260002BEF21938E179F07E1F790E080E00E94EB
:1042700047258F3E9E4F11F00E94100E89EA8093D1
:10428000800089E08093810024982C983F988AB11F
:104290008F7C8AB96E98479A8BB180638BB9769A76
:1042A0008FE090E00E94412560932A0270932B02D8
:1042B00080932C0290932D0267704FEF649FB001A2
:1042C0001124759567957595679577277093890083
:1042D0006093880070938B0060938A0070938D00C8
:1042E00060938C000E94960D90E080E00E9447252C
:1042F0008F3E9E4F11F00E94100E82E090E00E94CF
:10430000392580935B020E94EC0C90933D028093D0
:104310003C0283E090E00E943925682F70E090E035
:1043200080E00E946C1160916A0270916B02809132
:104330006C0290916D020E949C0C80E291E090933F
:104340003F0280933E0228E1C22ED12C3FE4A32EEF
:1043500032E0B32E41E4842E912C8C0E9D1EF2E0AF
:104360008F0E911C80919602853081F480E4F82EA6
:104370009EE0E92EE60C00E112E180919602853084
:1043800009F452C10E9476110E94C1090E94431F84
:10439000ECE5F2E0A1E4B2E010E000E0302F8D9116
:1043A0002191281709F48AC190E0FF24F39428276B
:1043B000422F4F2109F47DC161969FAF61976296AC
:1043C0003FAF62978F2191E009F490E063969FAF31
:1043D00063970E9488108160782F65969FAF8EAF9B
:1043E000659761964FAD619762965FAD62976396F0
:1043F0006FAD639765968FAD65970E94B71EF80104
:10440000E45AFD4F8081F826F08285E0E5E5F2E090
:10441000DE01119601900D928A95E1F7F090560217
:10442000E0905702109158020091590210925602E2
:104430001092570210925802109259028F2D8E2915
:1044400009F448C080915302909154020E941608CA
:104450009C0190915202992309F4F9C1253131054B
:10446000C8F19F3F19F09F5F90935202FF2059F0CF
:104470000E948A079FEF1F140CF491E0899F802D02
:10448000112480935602EE2059F00E948A079FEF74
:104490001E140CF491E0899F802D11248093570203
:1044A000309156023323B1F020915702222391F02C
:1044B00045EB3403C0011124992309F426C19093DC
:1044C000560245EB240390011124332309F421C142
:1044D00030935702812F802B09F448C080915002FD
:1044E000909151020E9416089C0190914F029923CD
:1044F00009F4A8C125313105C8F19F3F19F09F5F2C
:1045000090934F02112359F00E946A079FEF1116F2
:104510000CF491E0899F802D112480935802002390
:1045200059F00E946A079FEF10160CF491E0899FE2
:10453000802D112480935902309158023323B1F019
:1045400020915902222391F045EB3403C00111243C
:10455000992309F4E2C09093580245EB240390019B
:104560001124332309F4DDC030935902809156029F
:1045700090915702892B90915802892B9091590262
:10458000892B11F00E94941085E0FE013196A5E57B
:10459000B2E001900D928A95E1F70E94C1099091D5
:1045A0005A02891721F00E94C10980935A02809112
:1045B0009602843009F0D6CE85E08093E9008091A0
:1045C000E80082FFCFCE8091E80090E085FF06C032
:1045D0000E940105882309F4A8C091E08091E800B9
:1045E0008B778093E800992309F4BCCE19811111CF
:1045F000B8C080917002882309F4CEC01092700276
:1046000081E080936F0222961FAE229723961FAE01
:1046100023978EEF24968FAF249763E0CE018F5BB4
:104620009F4F0E94D0069ECE80919602843009F161
:10463000109240020FB6F894A895C09260000FBE89
:10464000F092600083B7817F846083BF83B781600D
:1046500083BF7894889583B78E7F83BF0FB6F89415
:10466000A89580916000886180936000109260003E
:104670000FBE80919502882309F47FCE0E94DF0E41
:1046800090E090931F0180931E010E94D00C0E9425
:10469000DF0CE1E4F2E01192AE16BF06E1F70E94F2
:1046A000431FE1E4F2E081918111B6C0EE12FBCF2D
:1046B00064CE9F5FFF0C963009F07ACE0F5F1F4FDC
:1046C0000E30110509F06ACE8FEF66968FAF6697B0
:1046D00067968FAF679768961FAE68970E9488109D
:1046E0008160782F6A969FAF8EAF6A9766964FADBE
:1046F000669767965FAD679768966FAD68976A969D
:104700008FAD6A970E94B71E80CE81E080935602DB
:10471000D8CE81E080935702DDCE81E080935802AD
:104720001CCF81E08093590221CF00E410E0CE013C
:1047300001967C018091E80085FD0AC08091E80027
:104740008B778093E8000E940105882399F345CF79
:104750008091F100F70181937F010150110951F718
:104760003CCF1130C9F422961FAE229723961FAF7B
:1047700023978CE0EBE2F1E0D40101900D928A9551
:10478000E1F78EEF60968FAF60976FE0CE018F5BA1
:104790009F4F0E94D006E6CD80916F028823D1F111
:1047A000123041F01330F9F081E022968FAF22975A
:1047B00061E034CF60916A0270916B0280916C026B
:1047C00090916D020E94840822961FAE2297239634
:1047D0001FAF239724968FAF24978EEF25968FAF28
:1047E000259764E01BCF8A81813041F0882341F016
:1047F0008230D1F681E080936E0202C010926E0288
:1048000022961FAE229783E023968FAF2397809145
:104810006E02E0CF8FEFC9CF09BD19BD09B400FE0C
:10482000FDCF8091D8008F7D8093D8008091E000EB
:1048300082608093E0008091E00081FDFCCF0E94C7
:1048400076119BCD2139314008F059CE8FCE232BE4
:1048500009F009CE3FCE1F921FB61F9211248F93ED
:104860009F93AF93BF9380914002811113C08091B9
:10487000230290912402A0912502B0912602419634
:10488000A11DB11D8093230290932402A0932502C1
:10489000B0932602BF91AF919F918F911F901FBE41
:1048A0001F9018951092B9008CE08093B80008957D
:1048B000EF92FF920F931F93CF93DF93182FEB018B
:1048C0001092BC0084EA8093BC000E9488107C0196
:1048D0008091BC0087FF27C08091B900887F883015
:1048E00029F08091B900887F8031D9F51093BB0001
:1048F00084E88093BC000E9488108C018091BC00E9
:1049000087FF24C02091B900287F90E080E0283103
:10491000B1F081E090E0203411F490E080E09195D6
:10492000819591090CC0CF3FDC0791F20E9488105D
:104930008E199F098C179D0758F28EEF9FEFDF911C
:10494000CF911F910F91FF90EF900895CF3FDC071B
:10495000A9F20E948810801B910B8C179D0770F2A2
:10496000ECCF8FEF9FEFEBCF0F931F93CF93DF939E
:10497000EB018093BB0084E88093BC000E94881008
:104980008C018091BC0087FF11C02091B900287F65
:1049900081E090E0283211F490E080E091958195DB
:1049A0009109DF91CF911F910F910895CF3FDC07BF
:1049B00041F30E948810801B910B8C179D0708F310
:1049C0008EEF9FEFEECF0F931F93CF93DF93EC010A
:1049D00084E88093BC000E9488108C018091BC0008
:1049E00087FF08C08091BB0090E0DF91CF911F91BD
:1049F0000F910895CF3FDC0789F30E948810801B38
:104A0000910B8C179D0750F38EEF9FEFEECF84E94B
:104A10008093BC000895AA1BBB1B51E107C0AA1FCD
:104A2000BB1FA617B70710F0A61BB70B881F991F4F
:104A30005A95A9F780959095BC01CD01089597FBF3
:104A4000072E16F4009407D077FD09D00E940B259D
:104A500007FC05D03EF4909581959F4F0895709581
:104A600061957F4F0895EE0FFF1F0590F491E02DA3
:104A70000994F999FECF92BD81BDF89A992780B526
:104A80000895A6E1B0E044E050E00C947325A8E15D
:104A9000B0E042E050E00C947325262FF999FECF48
:104AA00092BD81BDF89A019700B4021639F01FBA81
:104AB00020BD0FB6F894FA9AF99A0FBE089503969E
:104AC000272F0E944E250E944D25252F0E944E25FE
:104AD000242F0C944E250196272F0E944E250C94CE
:104AE0004D25DC01CB01FC01F999FECF06C0F2BDDA
:104AF000E1BDF89A319600B40D9241505040B8F79C
:104B000008950F931F93CF93DF938230910510F494
:104B100082E090E0E091A502F091A60230E020E072
:104B2000B0E0A0E0309799F42115310509F447C0B1
:104B3000281B390B24303105C0F58A819B81611512
:104B4000710571F1FB0193838283FE0111C04081E5
:104B500051810281138148175907F8F04817590706
:104B600099F4109761F012960C93129713961C9378
:104B70003296CF01DF91CF911F910F91089500934D
:104B8000A5021093A602F4CF2115310519F04217A2
:104B9000530718F49A01BD01EF01DF01F801C2CFFC
:104BA0009093A6028093A502D0CFFE01E20FF31FDF
:104BB000819391932250310939832883DACF209150
:104BC000A3023091A402232B41F4209102013091E1
:104BD00003013093A4022093A3022091000130919D
:104BE00001012115310541F42DB73EB74091040173
:104BF00050910501241B350B4091A3025091A40252
:104C00004217530708F0B5CF241B350B2817390777
:104C100008F4AFCFBC016E5F7F4F2617370708F44B
:104C2000A8CF640F751F7093A4026093A302FA01CA
:104C3000819391939ECFCF93DF930097E9F0FC018E
:104C4000329713821282C091A502D091A602DE0192
:104C500030E020E02097A1F420813181820F931F62
:104C60002091A3023091A4022817390709F067C0E8
:104C7000F093A402E093A302DF91CF910895DA01AB
:104C8000AE17BF0708F040C012964D915C91139784
:104C90009D014115510599F7D9011396FC93EE93A7
:104CA00012974D915D91A40FB51FEA17FB0779F498
:104CB000808191810296840F951FD90111969C9352
:104CC0008E938281938113969C938E931297B0E07A
:104CD000A0E08A819B810097B9F5FE0181919191B5
:104CE000E80FF91F8091A3029091A4028E179F07ED
:104CF00019F6109761F51092A6021092A502D093B2
:104D0000A402C093A302B8CFB383A2834081518190
:104D1000840F951FA817B90771F44E5F5F4F8D91EF
:104D20009C911197480F591F5183408312968D9182
:104D30009C91938382832115310509F0ADCFF093C7
:104D4000A602E093A50298CFDE01EC01C2CF139634
:104D50001C921E921297D3CFF894FFCF720C720C54
:104D60007B0C7B0C7D0C7B0C7B0C7B0C720C720C1B
:104D7000820C7B0C7B0C820CB70CC30CC80CC10CD6
:104D8000C60CCD0CCB0CAC12D4122914D41229149D
:104D9000071328132914D413E113131A131A8B1AA7
:104DA0008B1ADC1AF61A451A451A011BD71BE61B8B
:024DB000E61B00
:104DB2000000A702200068167E16B9140000000049
:104DC200000000000000000000000000FFFF2000C3
:104DD200CD06560D350D310D2D0D01763434596E3B
:104DE2002F5065346D5800818283E200E900EA00A9
:104DF200B500B600B700CD008301CC008A01920154
:104E020094012102230224022502260227022A02F9
:104E1200B300B4006F007000404D6D66011901AC23
:084E2200009408AD08C6080069
:00000001FF
