:100000000C9415030C9432030C9432030C943203B9
:100010000C9432030C9432030C9432030C9432038C
:100020000C9432030C9432030C94710D0C94251231
:100030000C949A200C9432030C9432030C943203E7
:100040000C9432030C9432030C9432030C9432035C
:100050000C9432030C94480E0C9432030C9432032B
:100060000C9432030C9432030C9432030C9432033C
:100070000C9432030C9432030C9432030C9432032C
:100080000C9432030C9432030C9432030C9432031C
:100090000C9432030C9432030C9432030C9432030C
:1000A0000C9432030C9432030C9432030501098042
:1000B000A101850319012AB700150126B700950192
:1000C00075108100C0050C0901A101850419012AE0
:1000D000A002150126A002950175108100C005013E
:1000E0000906A1018505050719E029E71500250185
:1000F0009508750181020507190029EF15002501F2
:1001000095F075018102050819012905950575010C
:100110009102950175039101C005010902A1010930
:1001200001A100050919012905150025019505758D
:10013000018102950175038101050109300931151D
:1001400081257F95027508810609381581257F95DF
:100150000175088106050C0A38021581257F950175
:1001600075088106C0C005010906A101050719E04F
:1001700029E715002501950875018102950175088B
:1001800081010507190029FF150026FF0095067556
:100190000881000508190129059505750191029549
:1001A0000175039101C00000000000000000000084
:1001B000000000000000000000007E0F00D4FFFFE0
:1001C000FFC70000007800000000000000002A2B9C
:1001D00028000000000000000000000000000000F7
:1001E0000029000000002C1E342021222434262760
:1001F000252E362D3738271E1F2021222324252681
:100200003333362E37381F0405060708090A0B0C4E
:100210000D0E0F101112131415161718191A1B1C96
:100220001D2F3130232D350405060708090A0B0C54
:100230000D0E0F101112131415161718191A1B1C76
:100240001D2F3130354C0102E20102E30101310181
:1002500003E30103E2000102E201012C0103E200D9
:100260002E004C002900E100354100001E00140062
:1002700004001D61095D4D001F001A0016001B00DF
:10028000E1042A00200008000700060050002C00AE
:1002900021001500090019004F004A002200170034
:1002A0000A0005000000305D500001530000000FFF
:1002B0000000315D4F000153000000070000E20024
:1002C00023001C000B00110000002961240018000D
:1002D0000D00100052004B0025000C000E003600EF
:1002E00051002800260012000F0037002F002B00BD
:1002F000270013003342387130004E002D003100CA
:100300003468E500015100002900010001000100EE
:10031000010000003A001E02200222022E002F5D82
:100320003B001F0221022302010001003C002F02BA
:1003300026022F000100CB5C3D0030022702300076
:1003400001002E5D3E003102350035020000C45C24
:10035000010001000000010000002D5D010001000E
:1003600000000100000001003F0052005100240283
:1003700000002C5D4000240021001E00010001004F
:100380004100250022001F003700C65C4200260005
:10039000230020002700C75C430025022E02310005
:1003A0002E00010044004500010001000100000092
:1003B0000100010001000100010000000100010036
:1003C00001000100095D010001000100F2000100CF
:1003D0000100F5000100F000F10001000100F4004F
:1003E00001000100F3000100010001000100010013
:1003F00001000100000001000100010000000100F7
:1004000000000100010001000000010000000100E7
:100410000100010050000100000001000100010086
:1004200051000100A9000100010001005200AC00D0
:10043000AA00FA00010001004F00AB00A800F9007B
:10044000010001000100010001000100005C010049
:10045000AE000100010000000A00000000000306D9
:10046000B200080001000000A8000800020003001C
:10047000A0001400030057494E55534200000000ED
:100480000000000000008400040007002A0044006F
:100490006500760069006300650049006E00740025
:1004A000650072006600610063006500470055004A
:1004B000490044007300000050007B0039004400F4
:1004C0004200370046003100460044002D0037004E
:1004D0004500370041002D00340030003000380066
:1004E0002D0039003300360042002D003600420056
:1004F0004100360043003100390041003300300034
:10050000380063007D00000000001B0301636F6E74
:100510006669677572652E6572676F646F782D65A1
:100520007A2E636F6D0009026B00040100A0FA09C6
:100530000400000103010100092111010001224012
:10054000000705810308000A0904010001030102F4
:1005500000092111010001224D0007058203080056
:100560000A09040200010300000009211101000131
:10057000226D000705830320000A0904030002FF1F
:10058000000000070584034000050705050340003F
:1005900005120110020000000897327449010001A1
:1005A00002000116034500720067006F0044006FEF
:1005B000007800200045005A00000030035A005324
:1005C000004100200054006500630068006E006F69
:1005D000006C006F006700790020004C0061006231
:1005E000007300200049006E00630000000403094E
:1005F00004050F3900021C100500DF60DDD88945B5
:10060000C74C9CD2659D9E648A9F00000306B20081
:1006100045001810050038B60834A909A0478BFD1D
:10062000A0768815B6650001420011241FBECFEFE9
:10063000DAE0DEBFCDBF11E0A0E0B1E0E0E9F6E432
:1006400002C005900D92A036B107D9F722E0A0E6CE
:10065000B1E001C01D92AB38B207E1F70E942C1D3A
:100660000C941B230C940000E8EDF0E080818E7F59
:1006700080831092E2001092DA001092E100A0EE66
:10068000B0E08C9181608C9380818F77808319BCDE
:10069000A7EDB0E08C918E7F8C9380818F7E8083DC
:1006A0001092550208952091E4003091E50095E6FE
:1006B000A9012091EC00822F817020FF06C080915B
:1006C000E80080FF06C080E008952091E80022FD48
:1006D0001AC080917A02882389F0853089F0809150
:1006E000EB0085FD0FC02091E4003091E50042173A
:1006F0005307F9F29150E1F684E0089582E00895FD
:1007000083E0089581E00895EF92FF920F931F9385
:10071000CF937C018B010E945303C82F882371F073
:100720008C2FCF911F910F91FF90EF900895F701BB
:1007300081917F018093F10001501109011511058C
:1007400079F38091E80085FDF2CF8091E8008E7703
:100750008093E8000E945303882381F3C82FE0CFE1
:1007600080917C0287FF13C08091E80082FF06C061
:100770008091E8008B778093E80004C080917A0232
:100780008111F2CF089580917A028823D9F3809164
:10079000E80080FFF8CF8091E8008E77ECCF982FAB
:1007A0009093E900242F762F50E0891731F0709153
:1007B000EC002091ED005091F00021FD07C09F5FFB
:1007C000973071F78093E90081E008953091EB0054
:1007D0003E7F3093EB003091ED003D7F3093ED0094
:1007E0003091EB0031603093EB007093EC0020937C
:1007F000ED005093F0002091EE0027FDE0CF80E067
:100800000895CF92DF92EF92FF920F931F93CF93B1
:10081000DF93C8EDD0E088818F7E8883E7EDF0E03C
:1008200080818160808384E082BF81E08093550273
:1008300088818E7F888302EE10E0F801108210928A
:10084000DA0081EEC82ED12CF601108288818F77D4
:10085000888388818068888388818F7D888319BC9C
:1008600010927A0210927B02109279021092780212
:1008700090EEE92EF12CF70180818B7F80838881B7
:100880008160888342E060E080E00E94CF03F6014F
:1008900080818E7F8083F801808181608083808168
:1008A00088608083F70180818E7F8083888180616A
:1008B0008883DF91CF911F910F91FF90EF90DF9090
:1008C000CF900895FC018091820290918302861757
:1008D0009707A0F06115710529F48091E8008E77E3
:1008E0008093E80090E06115710551F4911108C002
:1008F0008091E80082FF35C080E00895BC01F2CF0E
:1009000080917A028823C9F18530C9F18091E8008D
:1009100083FD31C08091E80082FDEACF8091E8003C
:1009200080FFE1CF8091F3002091F200382F611514
:10093000710519F02830310558F091E02830310563
:1009400009F090E08091E8008E778093E800CBCFAB
:1009500084918093F1003196615071092F5F3F4F70
:10096000E6CF80917A02882341F0853041F0809172
:10097000E80083FFBDCF81E0089582E0089583E021
:100980000895FC0180918202909183028617970757
:10099000A0F06115710529F49091E8009E7790937D
:1009A000E80090E06115710551F4911108C0809143
:1009B000E80082FF34C080E00895BC01F2CF80914E
:1009C0007A028823C1F18530C1F18091E80083FD6E
:1009D00030C08091E80082FDEACF8091E80080FF7E
:1009E000E1CF8091F3002091F200382F611571055D
:1009F00019F02830310558F091E02830310509F020
:100A000090E02091E8002E772093E800CBCF8191F1
:100A10008093F100615071092F5F3F4FE7CF8091C4
:100A20007A02882341F0853041F08091E80083FF0D
:100A3000BECF81E0089582E0089583E0089580911B
:100A40005702089520917A02243091F42093E9000E
:100A500070E050E040E00E948403882321F010926F
:100A60005302109254028091E8008E778093E80040
:100A7000089590913A02803F59F480913B0287FF9C
:100A80000DC010923B0291110BC01092360208C0AB
:100A9000813F81F480913B0218169CF3992381F0E9
:100AA00080913C0290913D02892B09F064C0109224
:100AB00033020895823F49F497FFF0CF10923A0233
:100AC00080913B028111ECCFE0CF833F19F41916DE
:100AD000ACF3E4CF20913C02893F29F41216F4F6DE
:100AE00010923C02DBCF8A3F19F427FFD7CFF8CF13
:100AF00020913D028B3F29F427FFD0CF10923D0279
:100B0000CDCF8C3F19F41216CCF3C8CF843F31F40B
:100B1000809139028E7F80933902C0CF853F21F4C6
:100B2000809139028D7FF7CF863F21F48091390281
:100B30008B7FF1CF873F21F480913902877FEBCF04
:100B4000883F21F4809139028F7EE5CF8D3F31F4CB
:100B500080910B028E7F80930B02A0CF8E3F21F4F9
:100B600080910B028D7FF7CF8F3F09F097CF809157
:100B70000B028B7FF0CF089580910B0280FD1AC08D
:100B800081FD14C082FD14C080913302882391F04E
:100B90008C3370F427E0829FC00111246CE370E075
:100BA0000E948E21862F672B29F0089583E00895F7
:100BB00087E0089581E0089580910B0280FD16C0C2
:100BC00081FD16C082FD18C080913602882391F005
:100BD0008C3390F423E2829FC00111246CE370E017
:100BE0000E948E21862F672B49F0089588E0089592
:100BF00081E1089585E0089583E2089581E00895F4
:100C0000803F31F40E94DC05819580933B0208957A
:100C1000813F19F40E94DC05F8CF823F31F40E9435
:100C2000DC05819580933A020895833F19F40E9470
:100C3000DC05F8CF893F29F40E94BC0580933C0273
:100C400008958A3F21F40E94BC058195F7CF8B3F20
:100C500031F40E94BC05819580933D0208958C3F3C
:100C600019F40E94BC05F8CF843F31F48091390219
:100C70008160809339020895853F21F48091390283
:100C80008260F7CF863F21F4809139028460F1CFF2
:100C9000873F21F4809139028860EBCF883F21F4AF
:100CA000809139028061E5CF8D3F31F480910B0254
:100CB000816080930B0208958E3F21F480910B0296
:100CC0008260F7CF8F3FB9F780910B028460F1CF3C
:100CD0009C014FB7F8948091070290910802A0916F
:100CE0000902B0910A024FBF821B930B0895209115
:100CF00012012223C9F02091200227FF15C0E62F00
:100D0000E695E695E695EE31D8F4E80FF92FF11D5A
:100D1000677021E030E001C0220F6A95EAF7209564
:100D20008281282322830895FC013296089621911E
:100D3000621303C0DF0111971C92E817F907B9F796
:100D40000895209112012223C1F02091200227FF53
:100D500014C0E62FE695E695E695EE31F8F4E80F37
:100D6000F92FF11D677021E030E001C0220F6A9574
:100D7000EAF78281822B82830895FC0132962FEF5D
:100D800030E04191641751F02F3F19F4411101C037
:100D9000232F3F5F3630A9F72F3F09F40895820FC4
:100DA000911D27FD9A95FC0162830895CF92DF92F1
:100DB000EF92FF926C01EE24FF2420E0C114D104D5
:100DC000E104F10419F0C701B60120E1C72ED82EC5
:100DD000E92EFF24C114D104E104F10419F0285FC5
:100DE000C701B6016B017C0154E0F694E794D794F7
:100DF000C7945A95D1F7C114D104E104F10419F054
:100E00002C5FC701B6016B017C0142E0F694E794C8
:100E1000D794C7944A95D1F7C114D104E104F104E1
:100E200019F02E5FC701B60196958795779567955E
:100E3000672B682B692B09F02F5F822FFF90EF90B3
:100E4000DF90CF90089580910202811110920202EA
:100E500008958091010290910002892B9091FF01E9
:100E6000892B80936001909102029923A1F0892B34
:100E70008093600180911201882341F180912002CA
:100E800087FF24C08EE1E2E6F1E090E0815000F5BA
:100E900091110E942307E0912202F09123023097E2
:100EA000E1F080911201882359F08091200287FFA0
:100EB00007C0809160018093610185E080936001AB
:100EC0000280F381E02D80E691E0099486E0DBCF9B
:100ED00021912223D9F29F5FD9CF0895E92FEE0FF8
:100EE000E90FEE0F8E0F982F977086958695869551
:100EF00025E0829FF0011124E953FE4F50E040E0CD
:100F000080E0219130E0092E02C0369527950A94A1
:100F1000E2F721703327042E01C0220F0A94EAF76A
:100F2000822B4F5F5F4F4530510559F70895E92FE8
:100F3000EE0FE90FEE0F8E0F982F977041E001C072
:100F4000440F9A95EAF786958695869595E0899F50
:100F5000F0011124E953FE4F30E020E070E05191A0
:100F6000DF011197CB01022E02C0969587950A9456
:100F7000E2F7817081958527842385278C932F5FE5
:100F80003F4F2530310559F708958091C601909162
:100F90009501981301C008958F5F8770FACF882359
:100FA00041F08095909101028923809301020C9475
:100FB00029070895882339F090910102982B909386
:100FC00001020C942907089520918C0130918D0124
:100FD0002817390771F090938D0180938C01E0916F
:100FE0002202F0912302309721F00084F185E02D58
:100FF0000994089520918A0130918B0128173907AF
:1010000071F090938B0180938A01E0912202F0911C
:101010002302309721F00680F781E02D099408958E
:10102000E0912202F0912302309721F00190F081AB
:10103000E02D099480E008959091200292FF06C06F
:10104000282F28712830F9F4877F846093FF06C029
:10105000282F28712831F1F4877E846120912102A4
:1010600020FF06C0382F38713830D9F4877F81606F
:1010700021FF06C0282F28712831D1F4877E816195
:1010800094FD877E0895282F24712430F9F68B7FF4
:101090008860DCCF282F2471243101F78B7E886192
:1010A000DDCF382F3171313019F78E7F8860E0CF76
:1010B000282F2171213121F78E7E8861E1CFCF93D6
:1010C000DF93972F70E026E0929F600D711D112431
:1010D000FB0134E5839FE00DF11D1124EE0FFF1F8E
:1010E000E05AFD4FC591D491CE01C238D105B9F176
:1010F000E8F5C133D10509F499C050F5C932D105DD
:1011000009F48DC0CA32D10509F497C0C11521E593
:10111000D20708F0BFC0C11530E5D30708F016C1EB
:10112000C83ED10508F09DC0C03ED10568F5C83A5B
:10113000D10508F089C0C53AD10508F0FFC0C1301B
:10114000D10511F1209709F443C02497E8F440C079
:10115000C533D10509F45CC0C933D105B9F6209176
:101160002002237089F080EE90E00EC0C33ED105CE
:1011700091F168F4C03ED105F9F0C23ED10531F6D7
:101180002091200222FD20C0DF91CF910895C63E1C
:10119000D10561F1C73ED10581F1C43ED10509F009
:1011A000B5CF2091210221FFEFCF8091200284FD55
:1011B0000FC087EE90E0E8CF2091200220FD12C101
:1011C0003091210230FFE0CF83EE90E024FFDCCFAE
:1011D00090E080E0D9CF2091200222FD06C130911D
:1011E000210230FDC0CF24FFCFCFF2CF20912002CB
:1011F00023FFCACF24FDECCFDCCF2091200223FDBA
:10120000F7C03091210231FFEECF84EE90E0BCCFE9
:101210002091200225FFB8CF89E290E0B5CF209140
:10122000200225FFB1CF85E390E0AECF20912002D0
:1012300026FFAACF8AE290E0A7CF2091200226FFC6
:10124000A3CF81E390E0A0CFCF3BD10508F6C85AE9
:10125000D0E0CC0FDD1FCE5DDE4F88819981946494
:1012600093CFC11520E2D20760F4C11531E0D30756
:1012700008F08ACFCE019065C03FD10508F084CF39
:10128000A7CFC11580E4D80708F4A2CFCE019F7084
:10129000906A7ACFC11595E5D90710F5C11524E5F7
:1012A000D20708F088C0C11533E5D30708F06FC036
:1012B000C11582E5D80708F465C09E012370332765
:1012C00081E090E002C0880F991F2A95E2F7C69549
:1012D000C69520E2C29FE00111248C2B9D2B50C0AB
:1012E000C11599E5D907A0F4C11528E5D20708F082
:1012F00067C0C11536E5D30708F06ACF8C2F0E946E
:101300001C0890E0982F882788279F7190623CCF17
:10131000C1158AE5D80708F458C0CE01905681154A
:10132000904208F055CF8D2F8F710E941C0890E0DD
:10133000982F882788279F718C2BE8CFC55AD0E03B
:10134000C15EDE4F888190E090641ECF9E01E4E094
:1013500036952795EA95E1F723708C2F869586952B
:10136000837030E2839FC0011124922BC37021E06F
:1013700030E002C0220F331FCA95E2F7822B932B75
:101380009C6802CF9C2F8827816F906AFDCE9E01BA
:101390002370332781E090E002C0880F991F2A95BF
:1013A000E2F7C695C69530E2C39FE00111248C2B6D
:1013B0009D2B9A68E9CE9C2F8827846F906AE4CE93
:1013C0009C2F8827806F906ADFCE8C2F8F700E94B1
:1013D0001C0834E0D695C7953A95E1F7CF709C2F5D
:1013E0009069D2CE89E390E0CFCE82EE90E0CCCE71
:1013F00086EE90E0C9CEBF92CF92DF92EF92FF923D
:101400000F931F93CF93DF938C01C0904E02D09027
:101410004F02E0905002F0905102809103029091AF
:101420000402A0910502B0910602C82AD92AEA2A2C
:10143000FB2ACFE1D0E0BC2ED701C6010C2E04C0A0
:10144000B695A795979587950A94D2F780FD0EC01B
:10145000219788F7B12C8B2DDF91CF911F910F91A0
:10146000FF90EF90DF90CF90BF900895B8018C2F40
:101470000E945F08019761F3EECFCF93DF93EC01F9
:101480000E94FB09BE01DF91CF910C945F080E947E
:101490003D0A292F2F7092959F7092509E3078F4BC
:1014A000E92FF0E0E35EFC4D0C94A221803F19F09F
:1014B00020F4883E20F481E00895843FE1F380E049
:1014C0000895883EC0F3813FD1F7F5CF822F8695EE
:1014D00086958695089527982F98089526982E9892
:1014E000089525982D98089556985E980895279AFE
:1014F0002F9A0895269A2E9A0895259A2D9A08953E
:10150000CF92DF92EF92FF92CF936B017C010E940A
:10151000D606C82F0E94740A0E94710A0E946E0AA1
:101520000E946B0AC150C73040F4EC2FF0E0E55D3B
:10153000FC4D0C94A2210E947D0AC701B601CF91F7
:10154000FF90EF90DF90CF9008950E947D0A0E9457
:101550007A0AF3CF0E947D0A0E94770AEECF0E949A
:101560007D0A0E947A0AF8CF209828982198299815
:1015700022982A9823982B9852985A9853985B98B7
:101580003E98469808958098889A8198899A849878
:101590008C9A85988D9A86988E9A87988F9A0895B6
:1015A000CF9384E090E00E94A821C82F81E290E0D0
:1015B0000E94A821982F8C2FCF910895CF93DF936D
:1015C00000D00F92CDB7DEB790917A02943019F522
:1015D00089837B836A8383E08093E9008FEF909116
:1015E000E800815095FD06C095ED9A95F1F7000051
:1015F0008111F5CF8091E80085FF0DC050E040E0FB
:1016000063E070E0CE0101960E9484038091E800BF
:101610008E778093E8000F900F900F90DF91CF911D
:101620000895BC0184E00C94DE0ABC0183E00C94B4
:10163000DE0A9C0182E08093E9009FEF8091E80040
:10164000915085FD06C085ED8A95F1F70000911156
:10165000F5CF8091E80085FF0CC050E040E065E0E8
:1016600070E0C9010E9484038091E8008E77809326
:10167000E8000895CF93DF93EC0180911201882355
:10168000B1F18091200287FF32C060E283E0809355
:10169000E9008FEF9091E800815095FD06C095ED2F
:1016A0009A95F1F700008111F5CF8091E80085FF50
:1016B0001BC08091120170E050E040E0811104C035
:1016C00050E040E068E070E0CE010E948403809129
:1016D000E8008E778093E80080E2FE01A8E5B2E0A2
:1016E00001900D928A95E1F7DF91CF91089568E01E
:1016F00081E0CDCFEF92FF920F931F93CF93DF93B3
:101700000E94740A0E94710A0E946E0A0E946B0A6B
:1017100088E8E82EF12C8FEF90E0F7019183808329
:101720000AE810E0F80191838083CCE8D0E0998347
:1017300088830E947D0AFFEF20E782E0F15020407D
:101740008040E1F700C000000E947A0A9FEFE0E7C6
:10175000F2E09150E040F040E1F700C000000E944C
:10176000770A2FEF80E792E0215080409040E1F728
:1017700000C000000E94710AEFEFF0E722E0E150A4
:10178000F0402040E1F700C000000E946E0A8FEF99
:1017900090E7E2E081509040E040E1F700C00000B7
:1017A0000E946B0A80910E028770FFEF8F9FC0012D
:1017B000112495958795959587959927F70191839C
:1017C0008083F80191838083998388830E94740ABF
:1017D0000E94710A0E946E0ADF91CF911F910F91B2
:1017E000FF90EF900C946B0A6FEE7EEF90E080E03C
:1017F0000E94DA2160E082E090E00E94BC2160E07B
:1018000083E090E00E94BC21109203021092040237
:10181000109205021092060260E084E090E00E94BF
:10182000BC2160E081E290E00E94BC2160E085E0A4
:1018300090E00E94BC2160E086E090E00E94BC2124
:101840006FEF87E090E00E94BC2140E050E0BA01D9
:1018500088E090E00E94CE2160E08DE090E00E9460
:10186000BC2140E050E0BA0188E190E00E94CE2126
:1018700060E087E190E00E94BC2140E050E0BA01C6
:101880008CE190E00E94CE2160E080E290E00E9436
:10189000BC2140E050E0BA0188E190E00E94CE21F6
:1018A00010920E0210920F0210921002109211026A
:1018B00084E0806180930E0240910E0250910F02ED
:1018C00060911002709111028FE090E00E94CE2191
:1018D00040E050E0BA0183E190E00C94CE21CF9338
:1018E000C82F873070F58091060190910701892BF0
:1018F00089F564E670E080E40E94C72090930701B8
:1019000080930601892BD1F464E670E082E10E94A5
:1019100023219093070180930601892B79F481E0BC
:1019200090E001C0880FCA95EAF764E670E0809500
:101930000E9423219093070180930601CF910C947C
:1019400076218A30B9F040F4883071F0893079F02E
:10195000209A2898CF9108958C3091F070F08D30B6
:10196000B9F73E9A4698F6CF219A2998F3CF229A52
:101970002A98F0CF239A2B98EDCF529A5A98EACF13
:10198000539A5B98E7CF80E290E0909307018093B1
:1019900006018091800181110EC00E94C12081E06A
:1019A000809380012FEF83ED90E3215080409040A1
:1019B000E1F700C0000064E670E080E40E94C72008
:1019C0009093070180930601892B09F04EC064E6CD
:1019D00070E080E00E94232190930701809306012C
:1019E000892B09F042C064E670E080E00E94232168
:1019F0009093070180930601892BB9F564E670E0A6
:101A00008FE30E9423219093070180930601892B85
:101A100061F50E94762164E670E080E40E94C720B0
:101A20009093070180930601892BF9F464E670E036
:101A30008CE00E9423219093070180930601892B5B
:101A4000A1F464E670E080E00E94232190930701F6
:101A500080930601892B49F464E670E08FE30E94CD
:101A6000232190930701809306010E9476218091A3
:101A700006010895CF93873050F58091060190912B
:101A80000701C0E0892B71F464E670E081E40E94F4
:101A9000C7209093070180930601892B31F0C0E0A5
:101AA0000E9476218C2FCF91089584E690E00E94C9
:101AB000522197FF05C09093070180930601EFCF55
:101AC000C82FC0951092070110920601E9CFCFB13F
:101AD0008FB1869586958C73C3708C2BC82FC0955B
:101AE000E1CF1F920F920FB60F9211242F933F93C5
:101AF0004F935F936F937F938F939F93AF93BF9316
:101B0000EF93FF938091E10082FF09C08091E20092
:101B100082FF05C08091E1008B7F8093E10080917E
:101B2000DA0080FF24C08091D80080FF20C080911F
:101B3000DA008E7F8093DA008091D90080FF9BC00D
:101B400080E189BD82E189BD09B400FEFDCF81E05D
:101B500080937A0280915502811109C00E9434035A
:101B60000E9401048091E20084608093E2008091F1
:101B7000E10080FF17C08091E20080FF13C08091D8
:101B8000E2008E7F8093E2008091E200806180938A
:101B9000E2008091D80080628093D80019BC85E073
:101BA00080937A028091E10084FF29C08091E20055
:101BB00084FF25C080E189BD82E189BD89B5982F68
:101BC000917080FFFBCF8091D8008F7D8093D800EB
:101BD0008091E1008F7E8093E1008091E2008F7E12
:101BE0008093E2008091E20081608093E200809126
:101BF0007B02882309F445C084E080937A028091B7
:101C0000E10083FF27C08091E20083FF23C0809121
:101C1000E100877F8093E10082E080937A02109256
:101C20007B028091E1008E7F8093E1008091E20051
:101C30008E7F8093E2008091E20080618093E200D9
:101C400042E060E080E00E94CF038091F000886075
:101C50008093F000FF91EF91BF91AF919F918F9191
:101C60007F916F915F914F913F912F910F900FBE98
:101C70000F901F90189519BC10927A02109255027D
:101C800076CF8091E30087FD93E090937A02B7CFFF
:101C900078941F921FB61F9211248F939F93AF9336
:101CA000BF938091070290910802A0910902B09120
:101CB0000A020196A11DB11D8093070290930802AC
:101CC000A0930902B0930A02BF91AF919F918F91A7
:101CD0001F901FBE1F9018952FB7F8948091070290
:101CE00090910802A0910902B0910A022FBF0895B5
:101CF0000E946C0E9C0190913A0280913B02982BBD
:101D000021F0309338022093370290913C02809169
:101D10003D02982B21F03093350220933402E0915C
:101D20002202F0912302309731F00480F581E02DFA
:101D300089E392E009940895109200021092FF0145
:101D40000E94290785E0E9E3F2E0DF011D928A9510
:101D5000E9F7109236021092330210920B020E94A1
:101D6000780E90E080E00E94FA0790E080E00C940A
:101D7000E407CF92DF92EF92FF92CF93DF9300D0F0
:101D800000D0CDB7DEB70E94800A6B017C01809144
:101D90005202882321F080915302811115C0C09214
:101DA0004E02D0924F02E0925002F09251020E94F5
:101DB0009C0E0F900F900F900F90DF91CF91FF909E
:101DC000EF90DF90CF900895198282E08A83C70157
:101DD000B6010E94D6068B838EEF8C8364E0CE0121
:101DE00001960E942205DBCF0F931F9341E050E044
:101DF00060E070E004C0440F551F661F771F8A958E
:101E0000D2F7CB01BA0160957095809590950091BD
:101E10004E0210914F0220915002309151026023E6
:101E20007123822393231F910F910C94B90E9091EB
:101E3000FE01809589238093FE01282F277071F47D
:101E4000282F082E000C330B9217130639F08595B6
:101E5000859585950E94F40E1092FE0108950F93CA
:101E60001F9341E050E060E070E004C0440F551F54
:101E7000661F771F8A95D2F780914E0290914F028C
:101E8000A0915002B09151028A019B01082B192B9D
:101E90002A2B3B2BC901B8011F910F910C94B90E4D
:101EA00060930302709304028093050290930602EC
:101EB0000C949C0E1092010280911201E2E6F1E076
:101EC000882359F08091200287FF07C08EE1DF014F
:101ED0001D928A95E9F70C949C0E86E0F8CF1F932B
:101EE000CF93DF93CDB7DEB7AA970FB6F894DEBFD6
:101EF0000FBECDBF8CE792E02091F100FC01219351
:101F0000CF01F2E084389F07B9F780917D028930D4
:101F100009F444C018F5823009F4B9C0833009F4DB
:101F20006EC0813031F580917C02813A11F580914B
:101F3000E800877F8093E800809180029091810281
:101F4000892B41F560E288E592E070E00E94C104CF
:101F50008091E8008B778093E8000BC08B3009F408
:101F60006BC008F483C0823409F4A2C0853409F43C
:101F7000BCC08091E80083FF50C280917C029091A8
:101F80007D029A3008F049C2E92FF0E0EE5CFC4D8A
:101F90000C94A22160E090E080E0D7CF80917C0299
:101FA000813239F78091800290918102009711F07F
:101FB0000297F9F68091E800877F8093E80080918E
:101FC000E80082FF17C09091F3008091F200029721
:101FD00029F48091F1008B7F813021F48091F10010
:101FE000809357028091E8008B778093E8000E94ED
:101FF000B003BFCF80917A028111E1CFBACF809137
:102000007C02813A09F0B5CF8091800290918102E3
:10201000892B09F0AECF8091E800877F8093E8009C
:102020008091E80080FFFCCF809112018093F10045
:102030008091E8008E77D9CF80917C02813209F0BF
:1020400098CF8091800290918102892B09F091CFE5
:102050008091E800877F8093E8000E94B003809120
:102060007E02809312010E945A0F83CF80917C02DE
:10207000813209F07ECF8091E800877F8093E8006D
:102080000E94B00380917F028093560272CF8091AC
:102090007C02813A09F06DCF8091E800877F8093C0
:1020A000E8008091E80080FFFCCF80915602BECF0F
:1020B00080917C02803C09F05CCF809180029091FD
:1020C0008102029739F580917E0290917F02892BDF
:1020D00009F58091E800877F8093E8006BE170E06C
:1020E0008AE095E00E94620482CF80917C02803C6D
:1020F00009F03FCF8091800290918102079751F4BF
:102100008091E800877F8093E80062EB70E088E5CB
:1021100094E0E8CF8091EB0080628093EB0029CFC0
:10212000803899F0823809F078C1809180028F70F0
:10213000873008F072C18093E9008091EB0085FB45
:10214000882780F91092E90006C08091780290916A
:102150007902911182609091E800977F9093E80056
:102160008093F1001092F1008091E8008E7751C1C8
:10217000882309F43FC1823009F04FC180917E026B
:10218000811142C1809180028F702FEF280F26307D
:1021900008F043C18093E9002091EB0020FF34C197
:1021A000933031F48091EB0080628093EB002CC17E
:1021B0009091EB0090619093EB0021E030E001C042
:1021C000220F8A95EAF72093EA001092EA008091A4
:1021D000EB008860EACF811120C110917E021F7749
:1021E0008091E3008078812B8093E3008091E80068
:1021F000877F8093E8000E94B0038091E80080FF11
:10220000FCCF8091E30080688093E30082E01111AD
:1022100083E080937A0201C18058823008F0FDC0CB
:1022200080917E0290917F028C3D23E09207A1F580
:1022300083E08A838AE289834FB7F894DE0113969C
:1022400020E03EE051E2E32FF0E050935700E491AC
:1022500020FF03C0E295EF703F5FEF708E2F90E09C
:10226000EA30C0F0C7968D939D932F5F243159F7C4
:102270004FBF8091E800877F8093E8006AE270E0BA
:10228000CE0101960E94C1048091E8008B77809373
:10229000E800C3C0C096E7CF209180023091810250
:1022A000492F55274330510551F1A0F441305105D4
:1022B00009F459C06BE670E086E295E042305105C2
:1022C00009F0ABC02091E800277F2093E8000E942E
:1022D0006204DACF4132510539F14232510591F1B0
:1022E0004F30510509F099C0E3EFF5E0649170E0DB
:1022F00081EF95E06115710509F48FC0E3CF99274F
:102300008130910571F0009731F0029709F085C096
:10231000E3EAF5E002C0EDEEF5E0649170E0CF0194
:10232000E9CFEBEBF5E0F9CF2330310508F075C0CC
:10233000220F331FF901E75AFE4F8081918169E036
:1023400070E0C0CF2330310508F067C0F901EE0F0F
:10235000FF1FED5AFE4F80819181205B3E4FF901B6
:10236000608170E0C7CF62E170E081E995E0AACFBB
:10237000803809F052C08091E800877F8093E800A0
:1023800080917B028093F100EFCE811146C01091C5
:102390007E02123008F041C08091E800877F809370
:1023A000E80010937B020E94B003112311F084E037
:1023B00005C08091E30087FDFACF81E080937A0227
:1023C00042E061EC81E00E94CF0342E061EC82E0F8
:1023D0000E94CF0342E261EC83E00E94CF0342E31C
:1023E00061EC84E00E94CF0342E360EC85E00E9450
:1023F000CF0313C080917E02813079F481E0933065
:1024000009F080E0809379021092E9008091E80061
:10241000877F8093E8000E94B0038091E80083FFEB
:102420000AC08091E800877F8093E8008091EB00EC
:1024300080628093EB00AA960FB6F894DEBF0FBEC1
:10244000CDBFDF91CF911F9108951F920F920FB6CC
:102450000F9211242F933F934F935F936F937F932A
:102460008F939F93AF93BF93CF93DF93EF93FF939C
:10247000D091E900DF708091EC00C82FC17080FD21
:10248000C0E81092E9008091F000877F8093F0000F
:1024900078940E946F0F1092E9008091F00088609C
:1024A0008093F000CD2BCF70C093E900FF91EF91A6
:1024B000DF91CF91BF91AF919F918F917F916F915C
:1024C0005F914F913F912F910F900FBE0F901F90F2
:1024D00018958823B1F19CEF980F913A38F4682F42
:1024E00080E691E00E9477060C94290790E2980F0D
:1024F000983088F4877021E030E0A90102C0440FD1
:10250000551F8A95E2F7CA018095909101028923AF
:1025100080930102E9CF9BE5980F933020F490E07F
:1025200080E00C94FA0798E5980F973120F490E03A
:1025300080E00C94E407803F20F00E9439050C9461
:10254000780E0895CF93C82F882309F46EC08CEFBE
:102550008C0F813AB8F580911201882311F1809196
:10256000200287FF1EC0EC2FE695E695E695F0E089
:10257000E05AFE4F828190E04C2F477021E030E01E
:1025800002C0220F331F4A95E2F782239323892B3F
:1025900089F06C2F80E691E00E9477060E9429075F
:1025A00009C0E2E6F1E08191C81799F381E0E836CD
:1025B000F807C9F76C2F80E691E00E94A106CF9141
:1025C0000C94290780E28C0F883068F4C77021E0F2
:1025D00030E001C0220FCA95EAF780910102822BF8
:1025E00080930102ECCFEBE5EC0FE33040F4F0E038
:1025F000E15EFE4F808190E0CF910C94FA07E8E510
:10260000EC0FE73150F4F0E0EE0FFF1FEE5DFE4FF0
:1026100080819181CF910C94E407C03F30F08C2FE2
:102620000E940006CF910C94780ECF910895CF931D
:10263000C82F0E94A212C93349F42FEF87EE93E00E
:10264000215080409040E1F700C000008C2FCF91D6
:102650000C9469120F931F93CF93DF93C62FD42F3F
:10266000022FFC0182818823A1F0609386020E94E0
:102670006C0E9093850280938402C77081E001C044
:10268000880FCA95EAF7DF91CF911F910F910C94B3
:10269000DA0780918602681335C080918402909198
:1026A00085020E946806883C910560F510E21D0FC6
:1026B000CD17B9F080E28C0F883040F4C77081E00C
:1026C00001C0880FCA95EAF70E94CF07183048F476
:1026D00081E09D2F977001C0880F9A95EAF70E94BC
:1026E000DA07802F0E941713183098F4D77081E012
:1026F00001C0880FDA95EAF7DF91CF911F910F9112
:102700000C94CF07C77081E001C0880FCA95EAF723
:10271000F3CFDF91CF911F910F910895CF92DF9268
:10272000EF92FF920F931F93CF93DF93EC018AE018
:10273000C82EFE018491882309F481C0813009F0FC
:102740003EC031968491813039F42296FE01849105
:102750000E9417132196EDCF823031F42296FE01AC
:1027600084910E94A212F6CF833031F42296FE01AA
:1027700084910E946912EECF843009F05EC02296E7
:10278000FE01249190E080E0FE0131962053330B4E
:102790002A30310548F00197E8F2EFE9FFE0319780
:1027A000F1F700C00000F7CFC89EA001C99E500DF0
:1027B0001124C901840F951F2491EF01E5CFE82F63
:1027C000F0E0EA53FE4FD490082F06950695069543
:1027D00010E0F801EA54FE4FE4908770F12C082EC7
:1027E00002C0F594E7940A94E2F721E0E222FF2484
:1027F0000A551E4FF801049110E002C01595079587
:102800008A95E2F701701127E114F10419F081EEC5
:102810000E94A2120115110519F086EE0E94A21263
:102820008D2D0E941713012B19F086EE0E9469125C
:10283000EF2809F48FCF81EE9CCFEF018BCFDF9192
:10284000CF911F910F91FF90EF90DF90CF9008955F
:102850004F925F926F927F928F929F92AF92BF92B0
:10286000CF92DF92EF92FF920F931F93CF93DF935C
:1028700000D000D00F92CDB7DEB77C01FC01838180
:102880009481892B39F01081D180812F8D218F3F48
:1028900009F0D6C40F900F900F900F900F90DF911A
:1028A000CF911F910F91FF90EF90DF90CF90BF904D
:1028B000AF909F908F907F906F905F904F90089512
:1028C0000E94FB09082F682F89819A810E9497072F
:1028D000E12FF0E026E0D29EE00DF11D112434E559
:1028E000039FE00DF11D1124EE0FFF1FE05AFD4F75
:1028F0000591149180915202882321F08091530216
:1029000081118AC40A32FDE51F0709F08AC0F70168
:1029100082818823C9F180910E0291E0980F97700F
:10292000887F953008F4892B80930E0280910E02E7
:102930008770FFEF8F9FC00111249595879595951E
:1029400087959927909389008093880090938B00B6
:1029500080938A0090938D0080938C0040910E02AA
:1029600050910F0260911002709111028FE090E07F
:102970000E94CE2160914E0270914F0280915002D0
:10298000909151020E94800AF7018281882309F404
:1029900068C4109286020230FCE51F0708F47FC16C
:1029A00006312CE5120738F098012B5F3C452730A3
:1029B000310508F074C10E94D00A909321028093DF
:1029C00020020F303CE5130709F44AC108F0C4C0E7
:1029D00008309CE5190709F42DC108F099C00430AE
:1029E000FCE51F0709F41AC108F07FC002303CE57E
:1029F000130709F40BC103301C4509F40BC16091A6
:102A000020021091210284E090E00E94BC21612FFD
:102A100081E290E00E94BC210E945A0F25C081E112
:102A200001C400332DE5120769F101333DE51307B9
:102A300099F1043FFCE51F0709F448C0A8F5093DDA
:102A40003CE5130709F43EC00A3D8CE5180709F47C
:102A500049C0083D9CE5190709F096CF26E241EEF2
:102A600061EEC7010E942A138091FE01877009F46C
:102A700011CFF7018281882309F40CCF82E00E94F4
:102A8000170F08CFF7018281882309F47DCF86E5EF
:102A900092E00E948E1378CFF7018281882309F497
:102AA00073CF86E492E0F5CF063FECE51E07B1F068
:102AB00088F0073F2CE5120709F066CF27E245EEC4
:102AC00066EECFCF27E245EE65EECBCF26E241EEB4
:102AD00060EEC7CF27E245EE64EEC3CF26E241EEBB
:102AE00062EEBFCF28E241E0EFCF8091200280610B
:102AF00006309CE5190709F447C0809120028860E0
:102B000007301C4508F440C08091200280623CC020
:102B10000B30FCE51F0709F49BC068F409303CE565
:102B2000130709F48BC00A301C4509F068CF809167
:102B300020028C6029C0809120028B7F0D309CE5A3
:102B4000190711F1809120028D7F0E301C45E0F0B5
:102B500080912002877F18C00B3FFCE51F0709F416
:102B600061C060F502313CE5130709F481C078F4D7
:102B700000319CE5190709F477C0809120028F7B12
:102B800001311C4509F03BCF8093200238CF04313E
:102B9000FCE51F0709F47AC008F470C005311C4534
:102BA00009F02DCF8091200282FB992790F921E036
:102BB000922790FB82F990FB83F9E6CF0E3F8CE5DC
:102BC000180709F449C070F40C3FECE51E0771F1D9
:102BD000809121028E7F0D3F1C4509F010CF80931C
:102BE00021020DCF01152DE5120709F44BC060F14C
:102BF00001301D4509F003CF80912102982F909557
:102C000091708E7F892B90FB81F9E9CF8091200212
:102C10008160BACF809120028260B6CF809120027D
:102C20008460B2CF809121028160D9CF809121024E
:102C30008260D5CF809120028064A6CF0E945A0F77
:102C4000809120028068A0CF809121028360C7CF4D
:102C5000809120028E7F98CF809121028D7FBFCFFF
:102C6000809120028F7E90CF809120028F7D8CCF2B
:102C70000E945A0F809120028F7786CF8091200288
:102C8000837F82CF809121028C7FA9CF0E945A0F2F
:102C900090912002892F97FB87F9805875CF0631D4
:102CA0009CE5190709F0EBC2809101028A7A91E054
:102CB00009F490E090938E0169E2811165E380E66A
:102CC00091E00E94A1060E942907CECE0E94F40B3B
:102CD000CBCE8091540291E0892780935402C4CED8
:102CE000F70100811181882309F43DC0C8010E94C9
:102CF000FB09D82E682FC8010E949707B8018D2DB7
:102D00000E945F088C01882EF701A580A2944FE0F5
:102D1000A422D280D110109200028091FE0187700F
:102D200099F0DD2089F0812F807F803421F080E2CE
:102D3000800F883048F082E00E94170F8091FE01DA
:102D40008770CC24C3948111C12CB12EB2943FE082
:102D5000B322FBE0FB1508F440C0EB2DF0E0E45C8F
:102D6000FC4D0C94A221C8010E946E07D82EC6CF3C
:102D7000212F2F70A22E107F19F0A29420EFA222F3
:102D8000DD20C9F0AA2069F080E2800F883010F0C1
:102D900081100BC080910102A82AA09201020E941A
:102DA0002907802F0E94A21218C080910002A82A31
:102DB000A0920002F4CF802F0E946912AA2069F02D
:102DC000A094005E083010F0811046C0809101028E
:102DD000A822A09201020E9429072B2D2850330B14
:102DE0002430310510F40E941008CC20A9F0809105
:102DF000FE0180FD11C0F7011282859585958595AC
:102E00000E942F0FC7010E9428148091FE01859512
:102E1000859585950E94F40E85E0F701DE011196F7
:102E200001900D928A95E1F789819A810E946E073F
:102E30009A81E981F0E026E0929FE00DF11D1124D6
:102E400034E5839FE00DF11D1124EE0FFF1FE05AC2
:102E5000FD4F859194911ECD80910002A822A092F1
:102E60000002B9CF312F3F70932E107F103219F02E
:102E7000929490EF9922882041F081E0881631F1F8
:102E8000DD2079F1AA2041F18CCFDD2091F09091E5
:102E90000202892F8929A11003C00E94DA079DCF61
:102EA000E1E0AE12FACF981709F497CF80930202AF
:102EB00094CFA11006C00E942307892D0E94CF073E
:102EC0008CCFF1E0AF1609F488CFF5CFDD2031F0DB
:102ED00021E02A1508F481CF892DDFCFA1107DCF05
:102EE000ECCFAA2051F339E383128FC18FEF97EE15
:102EF000E3E081509040E040E1F700C0000085C170
:102F0000812F86958695837061F0813009F065CFB9
:102F1000C8019370D11002C090E080E00E94E407E5
:102F20005CCFC8019370D11002C090E080E00E9495
:102F3000FA0753CF802FDD2029F00E9400060E945F
:102F4000780E4BCF0E943905FACF812F837009F09C
:102F500066C0D11042CF802F829586958770880FEA
:102F6000880F602F6F70462E512C712C612C082E0B
:102F700004C0440C551C661C771C0A94D2F740E030
:102F800050E0BA0104FF0FC04FE050E060E070E095
:102F900004C0440F551F661F771F8A95D2F74095CE
:102FA000509560957095812F8695869583708230B7
:102FB00019F1D8F400910302109104022091050246
:102FC00030910602813069F0442955296629772914
:102FD000CB01BA0160237123822393230E94500FF7
:102FE000FCCE402A512A622A732ACB01BA016429F5
:102FF000752986299729F2CF4429552966297729E9
:103000000091030210910402209105023091060202
:10301000CB01BA016027712782279327DFCF8695DE
:10302000DD2011F0812F8170882309F4D6CE802F06
:10303000829586958770880F880F602F6F70462E57
:10304000512C712C612C082E04C0440C551C661C9C
:10305000771C0A94D2F740E050E0BA0104FF0FC099
:103060004FE050E060E070E004C0440F551F661F61
:10307000771F8A95D2F74095509560957095812F6E
:10308000869586958370823019F1D8F400914E02AE
:1030900010914F022091500230915102813069F01D
:1030A0004429552966297729CB01BA016023712368
:1030B000822393230E94B90E90CE402A512A622A7D
:1030C000732ACB01BA016429752986299729F2CF81
:1030D000442955296629772900914E0210914F0203
:1030E0002091500230915102CB01BA016027712723
:1030F00082279327DFCF1F70DD2029F0812F0E94C8
:103100002F0F802FCACE802F0E94CF07812F0E94C1
:10311000F40E63CE802FF2EF8F1609F44EC0F8152F
:1031200078F020EF821619F131EF831609F43DC0D3
:10313000DD2009F465C0A11034CE812F8F713AC013
:1031400093EF891609F43EC0E4EF8E12F1CFDD2033
:1031500009F44BC01F71812F0E942F0F28E0129F8E
:10316000C001112483608093FE01812F23C0DD20E4
:10317000B9F0A11032CE1F7161E070E080E090E004
:1031800004C0660F771F881F991F1A95D2F7009108
:103190004E0210914F022091500230915102A6CF61
:1031A000F1E0FA1508F419CEE6CF812F8F71DD20FA
:1031B00009F4ADCF0E942F0F10CE812F8F71DD202B
:1031C000C9F3A5CF60E070E0CB01DD2009F472CF38
:1031D0001F7161E070E080E090E004C0660F771F2F
:1031E000881F991F1A95D2F765CF81E00E94170FAB
:1031F00031E03A1508F0F1CD82E00E94170FEDCDD5
:10320000AA2039F0893309F471CE802F0E94691207
:10321000E4CD812F8F717BCF1982F70182818111DB
:10322000FECB82E18A83F70180818B8381818C834D
:103230008EEF8D8365E0CE0101960E94220562CB60
:1032400085E0DE01119601900D928A95E1F7F70174
:10325000228189819A81211133CB0E946E07082F28
:1032600037CB06311C4509F03BCD80918E0169E2D8
:10327000811165E380E691E00E94770624CD0F3D41
:103280002CE5120709F422CD09303DE5130709F4B6
:1032900020CD01151C4509F023CD0E945A0FEFEFF8
:1032A000F4E32CE0E150F0402040E1F700C00000E2
:1032B000F89481E08093E00080E28093D80010923F
:1032C000C9008FE19EE40197F1F700C000001DBA2C
:1032D000109268001CBC10BE1FBA10927A001092A7
:1032E0006E0010926F001092710010927200109296
:1032F000C9001092BC0014B817B81AB81DB810BA9B
:103300001092BC0015B818B81BB81EB811BA0C94AE
:10331000003FAACB1F93CF93DF9380919401807FCE
:10332000A9F480919101882389F08091C601D09100
:10333000950160918F0170919001A0919201B091DF
:103340009301C62FC72316E0D81304C0DF91CF9195
:103350001F91089590E0109711F0CF3F19F4019656
:103360008770F2CF189F9001199F300D1124F90139
:10337000EA56FE4F41814713F2CF40814613EFCF0B
:1033800042814111ECCF438154814A1B5B0B483C85
:10339000510528F7809194018F708061809394018A
:1033A000F901E556FE4F80818F70806180838FE840
:1033B00091E00E942814DF91CF911F910C94C507D2
:1033C000AF92BF92CF92DF92EF92FF920F931F9333
:1033D000CF93DF93CDB7DEB761970FB6F894DEBF1A
:1033E0000FBECDBF8C0185E0F801DE011D96019076
:1033F0000D928A95E1F7F80180819181E2802FE8B2
:10340000A22E21E0B22E609192017091930161157C
:10341000710509F43EC130918F0140919001232F35
:1034200024232F3F09F435C1C380D480F09091014B
:10343000F601E61BF70BFF2009F4FBC02091940175
:10344000522F507FE83CF10508F0BBC0511178C005
:10345000FE2C491321C038131FC0E1101DC02F706E
:10346000206120939401C5010E9428148091940149
:10347000F80185838F2D61960FB6F894DEBF0FBEDD
:10348000CDBFDF91CF911F910F91FF90EF90DF9013
:10349000CF90BF90AF900895CD2829F0282F2923F1
:1034A0002F3F09F014C120E0F22FF170DF2E20FF32
:1034B0003DC02091C6014091950156E0241315C0EE
:1034C0008D879E878D859E850E943D0A292F229596
:1034D0002F702230F8F0243020F59F70F9F0F801B9
:1034E0009581907FD9F4D12C1FC030E0529FF0011C
:1034F000539FF00D1124EA56FE4F6181961306C0CA
:103500006081861303C06281E61210C02F5F3F4FB7
:103510002770D4CF9F7011F0882329F3805E883004
:1035200010F3C8010E942814FD2CA4CFEE2009F44A
:10353000A1CF80919401816080939401F12C9ACF66
:10354000491312C0381310C0E1100EC0F8012583D2
:10355000C8010E94281486E0F801AFE8B1E00190AC
:103560000D928A95E1F786CF8D879E878D859E8502
:103570000E94470A882309F1EE20F9F08091940116
:10358000803270F020918F013091900138872F8325
:103590001986DB86CA868C87CE0107960E9428147E
:1035A00086E0F801AFE8B1E001900D928A95E1F76D
:1035B0000E948A19FF24F3945DCFC8010E94281449
:1035C000F9CF51110AC08FE891E00E94281486E0DB
:1035D000F50111928A95E9F7B1CF49130FC038135D
:1035E0000DC0E1100BC0F8012583C8010E9428140A
:1035F00086E0F50111928A95E9F73CCF8D879E8789
:103600008D859E850E94470A8823B9F2EE20A9F293
:1036100080919401803220F220918F0130919001AD
:103620003A8329831B82DD82CC828E83CE01019670
:10363000B5CFE83CF105E0F6FE2CEE2009F4BDCF55
:10364000491316C0381314C08091940180FD83CFB4
:10365000982F907F09F47FCFF8018583903F09F47C
:1036600077CF982F907F905F8F70892B858370CF55
:103670008D879E878D859E850E94470A811190CFF8
:1036800080919401816080939401C8010E94281464
:10369000F1CEEE2009F491CF8D879E878D859E8592
:1036A0000E94470AF82E882309F487CF86E0F801A4
:1036B000AFE8B1E001900D928A95E1F780918F011A
:1036C000909190010E943D0A0E948A19D3CE21E078
:1036D0002E25EACE1F93CF93DF93CDB7DEB7679742
:1036E0000FB6F894DEBF0FBECDBF4B8B5C8B6D8BDE
:1036F0007E8B8F8B1A8A198A85E0FE017396DE0114
:103700001D9601900D928A95E1F786E0FE013D96A7
:10371000DE01179601900D928A95E1F7CE0107968A
:103720000E94E019811112C086E0FE013796DE0189
:10373000119601900D928A95E1F78A859B85892BD8
:1037400029F08F81988589238F3FB1F516E080910C
:10375000C6019091950189131DC067960FB6F89424
:10376000DEBF0FBECDBFDF91CF911F91089596E0D0
:10377000929FD001939FB00D1124AA56BE4FFE0117
:10378000319601900D929A95E1F7809395010E94F0
:10379000C507DCCF819FC00111248A569E4F0E942D
:1037A000E0198823D1F28091C60190E001968770DC
:1037B00099278093C601CBCF2091950130E0C901B4
:1037C0000196877099274091C6014817190679F626
:1037D0000E945A0F109295011092C60186E0EFE800
:1037E000F1E0DF011D928A95E9F7B0CF8F929F92A9
:1037F000BF92CF92DF92EF92FF920F931F93CF93DE
:10380000DF938091060190910701892B91F08091BF
:1038100081018F5F8093810181110BC00E94C30CD5
:1038200090E09093070180930601892B11F40E9488
:103830007A0B22E1822E22E0922E740110E000E049
:1038400097E0C92EC00E802F0E946F0C8C2D0E9415
:103850006F0C802F0E943A0DE70199917E01D12CC7
:10386000891729F0FE0131978083DD24D3948C2DB4
:103870000E943A0DF7019681891709F47AC0868370
:1038800081E08D29182B0E94B40A0F5F0730C1F622
:103890000E946C0E60918301709184019093840169
:1038A000809383012091820130E0261B370B820F29
:1038B000931F6BEF70E00E947A21E82E392F082FBA
:1038C00080938201F0908601FF2009F4A3C010923A
:1038D0008601E0910C02F0910D02AF01425F5F4F53
:1038E00020E08BEFB82E6BEF70E0A191AB3F99F029
:1038F000CA2ED12C8E2D932F0A17E8F18C199D0911
:10390000092E000CAA0BBB0B4E97A105B105C8F1FF
:10391000DF011197BC92E417F50739F72093860170
:10392000111102C0211178C010928501A0910C02E2
:10393000B0910D0290918601E5E2F2E080E03191D4
:10394000E40129914E01321751F03C913B3FD9F4EB
:103950000C93AF0141505109EA01288391E011967F
:10396000D2E0E333FD0759F79093860180938501F8
:1039700057C080E086CFDB01AC19BD098A0F9B1FC1
:10398000BFCF2F2DC8CF81E0EACF9170892B09F4EA
:1039900058C080918801909189018130984780F0CA
:1039A0001092540260914E0270914F028091500229
:1039B000909151020E94800A109289011092880110
:1039C000809188019091890101969093890180935B
:1039D0008801812FDF91CF911F910F91FF90EF9080
:1039E000DF90CF90BF909F908F9008950E947A0AA9
:1039F0002EC0892B71F31092890110928801609179
:103A00004E0270914F0280915002909151020E949B
:103A1000800ADFCF111188CF80918501811184CF79
:103A2000809188019091890120915402222309F309
:103A3000009709F0AACF0E94710A0E946E0A0E94A4
:103A40006B0AC0918701CC2389F20E946E0A81E043
:103A5000C827C09387019DCFCDB7DEB7C955D1091F
:103A60000FB6F894DEBF0FBECDBF84B7877F84BF8B
:103A70000FB6F894A89580916000886180936000EB
:103A8000109260000FBE80E890E00FB6F89480932B
:103A90006100909361000FBE85B7806885BF85B7D0
:103AA000806885BF0E9434030E9401048091E20077
:103AB00084608093E200789480917A028823A1F058
:103AC0001091E9001F709091EC00892F817090FD9A
:103AD00080E8182B1092E9008091E80083FD0E9495
:103AE0006F0F1F701093E90082E084BD93E095BDD5
:103AF0009AEF97BD80936E000E94C30C90E0909364
:103B00000701809306010E94B40A0E94C30AE2E101
:103B1000F2E065E2662E62E0762E80E292E0D3016A
:103B200011921D928E179F07D9F78EE090E00E94A8
:103B3000F02180930C0290930D02FC010E962BEF66
:103B400021938E179F07E1F790E080E00E94B62155
:103B50008F3E9E4F11F00E94F40B89EA8093800003
:103B600089E08093810024982C983F988AB18F7CBB
:103B70008AB96E98479A8BB180638BB9769A8FE039
:103B800090E00E94B02160930E0270930F02809328
:103B900010029093110267704FEF649FB0011124DF
:103BA00075956795759567957727709389006093EC
:103BB000880070938B0060938A0070938D006093EF
:103BC0008C000E947A0B90E080E00E94B6218F3E2C
:103BD0009E4F11F00E94F40B82E090E00E94A82119
:103BE00080933F020E94D00A90932102809320028A
:103BF00083E090E00E94A821682F70E090E080E0D0
:103C00000E94500F60914E0270914F0280915002BD
:103C1000909151020E94800A88E091E090932302E3
:103C20008093220228E1C22ED12C33E3A32E32E06E
:103C3000B32E41E4842E912C8C0E9D1EF2E08F0E4B
:103C4000911C80917A02853081F480E4F82E9EE008
:103C5000E92EE60C00E112E180917A02853009F448
:103C600052C10E945A0F0E9410080E94F61BE0E405
:103C7000F2E0A5E2B2E010E000E0302F8D9121915A
:103C8000281709F48AC190E0FF24F3942827422FD3
:103C90004F2109F47DC161969FAF619762963FAF56
:103CA00062978F2191E009F490E063969FAF63974C
:103CB0000E946C0E8160782F65969FAF8EAF6597DE
:103CC00061964FAD619762965FAD629763966FADF7
:103CD000639765968FAD65970E946A1BF801E05C5B
:103CE000FD4F8081F826F08285E0E9E3F2E0DE0115
:103CF000119601900D928A95E1F7F0903A02E090CA
:103D00003B0210913C0200913D0210923A02109247
:103D10003B0210923C0210923D028F2D8E2909F435
:103D200048C080913702909138020E9468069C0139
:103D300090913602992309F4F9C125313105C8F172
:103D40009F3F19F09F5F90933602FF2059F00E9429
:103D5000DC059FEF1F140CF491E0899F802D112446
:103D600080933A02EE2059F00E94DC059FEF1E146A
:103D70000CF491E0899F802D112480933B023091B7
:103D80003A023323B1F020913B02222391F045EB1C
:103D90003403C0011124992309F426C190933A02F7
:103DA00045EB240390011124332309F421C13093FE
:103DB0003B02812F802B09F448C0809134029091FE
:103DC00035020E9468069C0190913302992309F400
:103DD000A8C125313105C8F19F3F19F09F5F90932D
:103DE0003302112359F00E94BC059FEF11160CF409
:103DF00091E0899F802D112480933C02002359F08B
:103E00000E94BC059FEF10160CF491E0899F802D55
:103E1000112480933D0230913C023323B1F0209174
:103E20003D02222391F045EB3403C0011124992374
:103E300009F4E2C090933C0245EB24039001112465
:103E4000332309F4DDC030933D0280913A02909112
:103E50003B02892B90913C02892B90913D02892B4A
:103E600011F00E94780E85E0FE013196A9E3B2E0E0
:103E700001900D928A95E1F70E94100890913E0200
:103E8000891721F00E94100880933E0280917A02E7
:103E9000843009F0D6CE85E08093E9008091E80077
:103EA00082FFCFCE8091E80090E085FF06C00E949F
:103EB0005303882309F4A8C091E08091E8008B7730
:103EC0008093E800992309F4BCCE19811111B8C080
:103ED00080915402882309F4CEC01092540281E0EC
:103EE0008093530222961FAE229723961FAE2397EC
:103EF0008EEF24968FAF249763E0CE018F5B9F4FA8
:103F00000E9422059ECE80917A02843009F110929F
:103F100024020FB6F894A895C09260000FBEF092EC
:103F2000600083B7817F846083BF83B7816083BF74
:103F30007894889583B78E7F83BF0FB6F894A89541
:103F400080916000886180936000109260000FBED5
:103F500080917902882309F47FCE0E94C30C90E0FF
:103F600090930701809306010E94B40A0E94C30A3D
:103F7000E5E2F2E01192AE16BF06E1F70E94F61BF1
:103F8000E5E2F2E081918111B6C0EE12FBCF64CE82
:103F90009F5FFF0C963009F07ACE0F5F1F4F0E30F7
:103FA000110509F06ACE8FEF66968FAF6697679618
:103FB0008FAF679768961FAE68970E946C0E8160FE
:103FC000782F6A969FAF8EAF6A9766964FAD6697C9
:103FD00067965FAD679768966FAD68976A968FAD85
:103FE0006A970E946A1B80CE81E080933A02D8CE05
:103FF00081E080933B02DDCE81E080933C021CCFC8
:1040000081E080933D0221CF00E410E0CE010196D3
:104010007C018091E80085FD0AC08091E8008B77E3
:104020008093E8000E945303882399F345CF809141
:10403000F100F70181937F010150110951F73CCF45
:104040001130C9F422961FAE229723961FAF2397F3
:104050008CE0E3E1F1E0D40101900D928A95E1F763
:104060008EEF60968FAF60976FE0CE018F5B9F4FB2
:104070000E942205E6CD809153028823D1F11230AF
:1040800041F01330F9F081E022968FAF229761E082
:1040900034CF60914E0270914F0280915002909106
:1040A00051020E94D60622961FAE229723961FAF7A
:1040B000239724968FAF24978EEF25968FAF259761
:1040C00064E01BCF8A81813041F0882341F0823047
:1040D000D1F681E08093520202C0109252022296E1
:1040E0001FAE229783E023968FAF239780915202D1
:1040F000E0CF8FEFC9CF09BD19BD09B400FEFDCFD8
:104100008091D8008F7D8093D8008091E0008260FC
:104110008093E0008091E00081FDFCCF0E945A0F67
:104120009BCD2139314008F059CE8FCE232B09F099
:1041300009CE3FCE1F921FB61F9211248F939F93DB
:10414000AF93BF9380912402811113C08091070225
:1041500090910802A0910902B0910A024196A11D16
:10416000B11D8093070290930802A0930902B093B7
:104170000A02BF91AF919F918F911F901FBE1F9018
:1041800018951092B9008CE08093B8000895EF92D2
:10419000FF920F931F93CF93DF93182FEB01109291
:1041A000BC0084EA8093BC000E946C0E7C0180916C
:1041B000BC0087FF27C08091B900887F883029F034
:1041C0008091B900887F8031D9F51093BB0084E8D5
:1041D0008093BC000E946C0E8C018091BC0087FF14
:1041E00024C02091B900287F90E080E02831B1F010
:1041F00081E090E0203411F490E080E09195819589
:1042000091090CC0CF3FDC0791F20E946C0E8E1911
:104210009F098C179D0758F28EEF9FEFDF91CF918A
:104220001F910F91FF90EF900895CF3FDC07A9F207
:104230000E946C0E801B910B8C179D0770F2ECCFC7
:104240008FEF9FEFEBCF0F931F93CF93DF93EB0194
:104250008093BB0084E88093BC000E946C0E8C01AC
:104260008091BC0087FF11C02091B900287F81E0B8
:1042700090E0283211F490E080E0919581959109C9
:10428000DF91CF911F910F910895CF3FDC0741F34C
:104290000E946C0E801B910B8C179D0708F38EEF0C
:1042A0009FEFEECF0F931F93CF93DF93EC0184E842
:1042B0008093BC000E946C0E8C018091BC0087FF33
:1042C00008C08091BB0090E0DF91CF911F910F91CA
:1042D0000895CF3FDC0789F30E946C0E801B910B81
:1042E0008C179D0750F38EEF9FEFEECF84E98093FC
:1042F000BC000895AA1BBB1B51E107C0AA1FBB1F2E
:10430000A617B70710F0A61BB70B881F991F5A9561
:10431000A9F780959095BC01CD01089597FB072ED4
:1043200016F4009407D077FD09D00E947A2107FC8B
:1043300005D03EF4909581959F4F089570956195B5
:104340007F4F0895EE0FFF1F0590F491E02D099423
:10435000F999FECF92BD81BDF89A992780B508954D
:10436000A6E1B0E044E050E00C94E221A8E1B0E026
:1043700042E050E00C94E221262FF999FECF92BD45
:1043800081BDF89A019700B4021639F01FBA20BD1A
:104390000FB6F894FA9AF99A0FBE08950396272F4C
:1043A0000E94BD210E94BC21252F0E94BD21242FE7
:1043B0000C94BD210196272F0E94BD210C94BC2195
:1043C000DC01CB01FC01F999FECF06C0F2BDE1BDD5
:1043D000F89A319600B40D9241505040B8F70895C4
:1043E0000F931F93CF93DF938230910510F482E0F7
:1043F00090E0E0918902F0918A0230E020E0B0E0A4
:10440000A0E0309799F42115310509F447C0281B25
:10441000390B24303105C0F58A819B816115710506
:1044200071F1FB0193838283FE0111C040815181B0
:104430000281138148175907F8F04817590799F472
:10444000109761F012960C93129713961C93329664
:10445000CF01DF91CF911F910F91089500938902B1
:1044600010938A02F4CF2115310519F04217530732
:1044700018F49A01BD01EF01DF01F801C2CF90935A
:104480008A0280938902D0CFFE01E20FF31F81934D
:1044900091932250310939832883DACF2091870202
:1044A00030918802232B41F42091020130910301C5
:1044B00030938802209387022091000130910101FE
:1044C0002115310541F42DB73EB7409104015091BB
:1044D0000501241B350B4091870250918802421739
:1044E000530708F0B5CF241B350B2817390708F4FC
:1044F000AFCFBC016E5F7F4F2617370708F4A8CFF8
:10450000640F751F7093880260938702FA0181938C
:1045100091939ECFCF93DF930097E9F0FC01329700
:1045200013821282C0918902D0918A02DE0130E0AA
:1045300020E02097A1F420813181820F931F2091E8
:104540008702309188022817390709F067C0F09375
:104550008802E0938702DF91CF910895DA01AE17C8
:10456000BF0708F040C012964D915C9113979D01D2
:104570004115510599F7D9011396FC93EE931297C3
:104580004D915D91A40FB51FEA17FB0779F4808167
:1045900091810296840F951FD90111969C938E9359
:1045A0008281938113969C938E931297B0E0A0E042
:1045B0008A819B810097B9F5FE0181919191E80F65
:1045C000F91F80918702909188028E179F0719F634
:1045D000109761F510928A0210928902D093880296
:1045E000C0938702B8CFB383A28340815181840FE7
:1045F000951FA817B90771F44E5F5F4F8D919C917D
:104600001197480F591F5183408312968D919C91A9
:10461000938382832115310509F0ADCFF0938A028F
:10462000E093890298CFDE01EC01C2CF13961C9271
:104630001E921297D3CFF894FFCF560A560A5F0AFC
:104640005F0A610A5F0A5F0A5F0A560A560A660A2B
:104650005F0A5F0A660A9B0AA70AAC0AA50AAA0AA9
:10466000B10AAF0A9010B8100D12B8100D12EB106D
:104670000C110D12B811C511B816B8163217321731
:1046800080179A17ED16ED16A5177B188A188A1849
:1046900000008B02200020001F053A0B190B150BA0
:1046A000110B01763434596E2F354A6E4E36008127
:1046B0008283E200E900EA00B500B600B700CD0051
:1046C0008301CC008A019201940121022302240279
:1046D0002502260227022A02B300B4006F007000F0
:1046E000404D6D66011901AC00380551056A0500A1
:00000001FF
